:100000005FC100000EC40000E1C30000B4C30000E3
:1000100087C300005AC300002DC3000000C30000C6
:10002000D3C200007EC100007CC100007AC1000084
:1000300078C1000076C1000074C1000072C10000E8
:1000400070C100006EC100006CC100006AC10000F8
:1000500068C1000066C1000064C100006BC20000FE
:1000600060C10000E1C40000B6C400005AC1000035
:1000700058C1000056C1000054C1000052C1000028
:1000800050C100004EC100004CC100004AC1000038
:1000900079C400004EC4000044C1000042C1000009
:1000A00040C100003EC100003CC100003AC1000058
:1000B00038C1000036C1000034C1000032C1000068
:1000C00030C100002EC100002CC100002AC1000078
:1000D00028C1000026C1000024C1000022C1000088
:1000E00020C10000FC05FF05EE05F205F805360607
:1000F000030607060D06110615061B061F06230636
:10010000360629062D0631060000200023002600B1
:1001100029002C002F00320000010000030106011D
:1001200009015741524E494E473A20436F6D6D7554
:100130006E69636174696F6E206661696C75726562
:100140002C20697320746865204D46524335323245
:100150002070726F7065726C7920636F6E6E65636C
:100160007465643F00203D2028756E6B6E6F776E5E
:100170002900203D2076322E3000203D2076312E81
:100180003000203D2076302E3000203D2028636C4A
:100190006F6E6529004669726D77617265205665DC
:1001A0007273696F6E3A203078003A2000526561B0
:1001B000646572200000002100240027002A002D21
:1001C000003000330001010000040107010A0100B2
:1001D000002200250028002B002E003100340002F0
:1001E000010000050108010B0105050505070508CB
:1001F000080808020202020A0A08080404040401AA
:1002000001010101010101030303030303030304CB
:100210000707070C0C0C0C0C0C0C0C02020202065B
:10022000060606060606060B0B0B0B0B0B0B0B014B
:1002300002102020080810204010204080020102F7
:1002400001080402010102040810204080804020BF
:1002500010080402018004020180402010080402FA
:100260000108040201010204081020408001020478
:10027000081020408000000A0B02090C0D0E080730
:100280000304010000000000000000000000000066
:10029000000000000000000000000000000000005E
:1002A000001211100000000000000000000000001B
:1002B0000000000000000000000000005F108B1133
:1002C00011241FBECFEFD1E2DEBFCDBF00E00CBFD7
:1002D00024E0A8E8B2E001C01D92AA31B207E1F71C
:1002E00012E0A0E0B2E0E2E0F8E200E00BBF02C002
:1002F00007900D92A838B107D9F711E0CFE5D1E00A
:1003000000E006C021970109802FFE010E94BA116A
:10031000CE35D10780E00807A9F70E94D10C0C94D4
:10032000F0136ECE0895CF92DF92EF92FF920F936B
:100330001F93CF93DF936C017A018B01C0E0D0E073
:10034000CE15DF0589F0D8016D918D01D601ED91B3
:10035000FC910190F081E02DC6011995892B11F4D3
:100360007E0102C02196ECCFC701DF91CF911F9192
:100370000F91FF90EF90DF90CF900895FC01A0893E
:10038000B1898C91A689B78982FD0FC09C91818D1E
:100390008F5F8F73228D821749F0218DDF01A20FAD
:1003A000B11D5D969C93818F08958C910895FC01F9
:1003B000538D448D252F30E0842F90E0821B930BCA
:1003C000541710F0CF96089501970895FC01918D70
:1003D000828D981761F0828DDF01A80FB11D5D96A7
:1003E0008C91928D9F5F9F73928F90E008958FEF15
:1003F0009FEF089588E992E0B0D621E0892B09F4B7
:1004000020E0822F089585E393E0A7D621E0892B91
:1004100009F420E0822F08950E94DC13EF92FF92EE
:100420000F931F93CF93DF93EC0181E0888F9B8D17
:100430008C8D981305C0E889F989808185FD23C0DA
:10044000F62E0B8D10E00F5F1F4F0F731127E02E5C
:100450008C8DE8120BC00FB607FCFACFE889F9893A
:10046000808185FFF5CFCE01E2D6F2CF8B8DFE01E4
:10047000E80FF11DE35AFF4FF0820B8FEA89FB89E9
:100480008081806207C0EE89FF896083E889F989ED
:1004900080818064808381E090E0DF91CF911F9123
:1004A0000F91FF90EF900895CF93DF93EC01888D2B
:1004B0008823C1F0EA89FB89808185FD05C0A88970
:1004C000B9898C9186FD0EC00FB607FCF5CF8081EF
:1004D00085FFF2CFA889B9898C9185FFEDCFCE0138
:1004E000A6D6E8CFDF91CF9108953FB7F8948091D9
:1004F000940290919502A0919602B091970226B530
:10050000A89B05C02F3F19F00196A11DB11D3FBF4B
:10051000BA2FA92F982F8827820F911DA11DB11DD9
:10052000BC01CD0142E0660F771F881F991F4A95D5
:10053000D1F708951F920F920FB60F9211242F93A7
:100540003F938F939F93AF93BF938091900290912D
:100550009102A0919202B091930230918F0223E018
:10056000230F2D3720F40196A11DB11D05C026E8EB
:10057000230F0296A11DB11D20938F02809390023C
:1005800090939102A0939202B0939302809194026F
:1005900090919502A0919602B09197020196A11DAB
:1005A000B11D8093940290939502A0939602B0930C
:1005B0009702BF91AF919F918F913F912F910F9093
:1005C0000FBE0F901F9018951F920F920FB60F92AB
:1005D00011240BB60F922F933F934F935F936F931A
:1005E0007F938F939F93AF93BF93EF93FF93E0918C
:1005F0000E02F0910F021995FF91EF91BF91AF910B
:100600009F918F917F916F915F914F913F912F912A
:100610000F900BBE0F900FBE0F901F9018951F925A
:100620000F920FB60F9211240BB60F922F933F9398
:100630004F935F936F937F938F939F93AF93BF93EA
:10064000EF93FF93E0910C02F0910D021995FF9149
:10065000EF91BF91AF919F918F917F916F915F913A
:100660004F913F912F910F900BBE0F900FBE0F90A7
:100670001F9018951F920F920FB60F9211240BB670
:100680000F922F933F934F935F936F937F938F932B
:100690009F93AF93BF93EF93FF93E0910202F0918A
:1006A00003021995FF91EF91BF91AF919F918F91A7
:1006B0007F916F915F914F913F912F910F900BBE62
:1006C0000F900FBE0F901F9018951F920F920FB6AC
:1006D0000F9211240BB60F922F933F934F935F937A
:1006E0006F937F938F939F93AF93BF93EF93FF93FA
:1006F000E0910002F09101021995FF91EF91BF91F5
:10070000AF919F918F917F916F915F914F913F91A9
:100710002F910F900BBE0F900FBE0F901F9018954A
:100720001F920F920FB60F9211240BB60F922F93B8
:100730003F934F935F936F937F938F939F93AF9369
:10074000BF93EF93FF93E0910A02F0910B0219958A
:10075000FF91EF91BF91AF919F918F917F916F9199
:100760005F914F913F912F910F900BBE0F900FBE55
:100770000F901F9018951F920F920FB60F92112491
:100780000BB60F922F933F934F935F936F937F938B
:100790008F939F93AF93BF93EF93FF93E0910802E2
:1007A000F09109021995FF91EF91BF91AF919F913F
:1007B0008F917F916F915F914F913F912F910F900A
:1007C0000BBE0F900FBE0F901F9018951F920F92A7
:1007D0000FB60F9211240BB60F922F933F934F93A6
:1007E0005F936F937F938F939F93AF93BF93EF9399
:1007F000FF93E0910602F09107021995FF91EF91A6
:10080000BF91AF919F918F917F916F915F914F9128
:100810003F912F910F900BBE0F900FBE0F901F9026
:1008200018951F920F920FB60F9211240BB60F92CC
:100830002F933F934F935F936F937F938F939F93E8
:10084000AF93BF93EF93FF93E0910402F091050201
:100850001995FF91EF91BF91AF919F918F917F91EA
:100860006F915F914F913F912F910F900BBE0F9021
:100870000FBE0F901F9018956115710579F0FB015F
:1008800001900020E9F73197AF01461B570BDC01BF
:10089000ED91FC910280F381E02D199480E090E0CD
:1008A00008954F925F926F927F92EF92FF920F9313
:1008B0001F93CF93DF93CDB7DEB7A1970FB6F89410
:1008C000DEBF0FBECDBF7C01FA01CB0119A22230E1
:1008D00008F42AE08E010F5D1F4F422E512C612C2F
:1008E000712CBF01A30192010E949811F901CA0164
:1008F000015011096A3014F4605D01C0695CD801CF
:100900006C93232B242B252B61F7B801C701B4DF8F
:10091000A1960FB6F894DEBF0FBECDBFDF91CF9189
:100920001F910F91FF90EF907F906F905F904F908D
:1009300008951F920F920FB60F9211240BB60F92CB
:100940002F933F934F935F936F937F938F939F93D7
:10095000AF93BF93EF93FF9388E992E068D4FF9140
:10096000EF91BF91AF919F918F917F916F915F9127
:100970004F913F912F910F900BBE0F900FBE0F9094
:100980001F9018951F920F920FB60F9211240BB65D
:100990000F922F933F934F935F936F937F938F9318
:1009A0009F93AF93BF93EF93FF9388E992E0E6DCC8
:1009B000FF91EF91BF91AF919F918F917F916F9137
:1009C0005F914F913F912F910F900BBE0F900FBEF3
:1009D0000F901F9018951F920F920FB60F9211242F
:1009E0000BB60F922F933F934F935F936F937F9329
:1009F0008F939F93AF93BF93EF93FF9385E393E020
:100A000016D4FF91EF91BF91AF919F918F917F91FC
:100A10006F915F914F913F912F910F900BBE0F906F
:100A20000FBE0F901F9018951F920F920FB60F9246
:100A300011240BB60F922F933F934F935F936F93B5
:100A40007F938F939F93AF93BF93EF93FF9385E330
:100A500093E094DCFF91EF91BF91AF919F918F91C3
:100A60007F916F915F914F913F912F910F900BBEAE
:100A70000F900FBE0F901F901895843008F083E000
:100A800090911104891710F08FEF890FE82FF0E093
:100A9000E250FC4F648960688EEF93E066C4BC014D
:100AA0008EEF93E0E9CECF92DF92EF92FF92CF9359
:100AB000DF936C01990FEE08FF08F7FE20C0E0916C
:100AC000FE03F091FF030190F081E02D6DE28EEFC7
:100AD00093E01995EC0144275527BA014C195D099B
:100AE0006E097F092AE08EEF93E0DBDE8C0F9D1FFD
:100AF000DF91CF91FF90EF90DF90CF9008952AE0A3
:100B0000B701A6018EEF93E0DF91CF91FF90EF90B8
:100B1000DF90CF90C6CEFC01A089B18982E08C9392
:100B2000A485B5851C92A685B78580E18C93108E2F
:100B3000A489B58986E08C93A289B3898C91806160
:100B40008C93A289B3898C9188608C93A289B38994
:100B50008C9180688C930288F389E02D80818F7D51
:100B6000808308950F931F93CF93DF938C01C0E090
:100B7000D0E0F801EC0FFD1F6491662371F0E09165
:100B80003503F09136030190F081E02D85E393E089
:100B90001995892B11F02196ECCFCE01DF91CF91E1
:100BA0001F910F910895CF93DF93DCDFEC0167E78E
:100BB00072E085E393E060DE8C0F9D1FDF91CF91A3
:100BC000089590E0FC013197E231F10508F04EC044
:100BD0008827EE58FF4F8F4F0C94BA1180918000F8
:100BE0008F7703C0809180008F7D8093800008956F
:100BF00080918000877FF9CF84B58F7702C084B55C
:100C00008F7D84BD08958091B0008F7703C080915F
:100C1000B0008F7D8093B0000895809190008F7711
:100C200007C0809190008F7D03C080919000877FE6
:100C30008093900008958091A0008F7707C08091E5
:100C4000A0008F7D03C08091A000877F8093A000CB
:100C50000895809120018F7707C0809120018F7DBA
:100C600003C080912001877F8093200108951F9306
:100C7000CF93DF93282F30E0F901EB58FD4F84919B
:100C8000F901E15DFD4FD491F901E751FE4FC491A7
:100C9000CC23C1F0162F811194DFEC2FF0E0EE0F82
:100CA000FF1FE153FE4FA591B4918FB7F894111136
:100CB00005C09C91ED2FE095E92302C0EC91ED2B4E
:100CC000EC938FBFDF91CF911F910895CF92DF9268
:100CD000EF92FF920F931F93CF93DF931F921F9278
:100CE000CDB7DEB78C01F62E83E590E049835A83B9
:100CF00046D360E0F8018685BADF82E139D34981C5
:100D0000E42EC42E5A81D52E8C2D8E198F1528F4E1
:100D1000F60181916F012CD3F7CF61E0F801868550
:100D2000A6DF0F900F90DF91CF911F910F91FF9051
:100D3000EF90DF90CF901BC34F925F926F927F92A4
:100D40008F929F92AF92BF92CF92DF92EF92FF92DB
:100D50000F931F93CF93DF931F921F92CDB7DEB7F0
:100D60004C012B01D42E3901E114F10419F0F701E3
:100D7000408101C040E0B42EF0E1CF9EB00C1124C0
:100D800040E062E0C40117D34FE768E0C40113D329
:100D900040E864E1C4010FD3A2016D2DC40196DFC8
:100DA0004B2D6AE1C40107D34CE062E0C40103D3D8
:100DB0006AE1C401E7D2482F40686AE1C401FBD26E
:100DC00080ED482E87E0582E68E0C401DBD2982FD2
:100DD000907341F480FD04C081E0481A5108A1F7E6
:100DE00083E094C06CE0C401CDD2D82E837109F0A9
:100DF0008CC06114710409F44FC00115110509F488
:100E00004BC064E1C401BED2B82EF80180818B15BD
:100E100008F475C0B082BB20A9F183E590E0AFD2A1
:100E200060E0F401868523DF82E9A2D2CC2099F02C
:100E30008FEF90E02C0101C0440CCA94EAF782E9DC
:100E400097D284214094F3019081492284298083A0
:100E5000CC24C39401C0C12CBA944C2C512C460C08
:100E6000571CCB1430F482E983D2F2018083C394FF
:100E7000F4CF80E07DD2F201808361E0F4018685C9
:100E8000F6DE75D268E1C4017DD28770E114F10409
:100E900021F0F701808301C080E0D3FC32C06114EF
:100EA000710489F10115110571F1AA2061F1F801B0
:100EB0004081413019F4843019F41FC0423010F4DD
:100EC00087E024C08111FCCF42509E012F5F3F4F2D
:100ED000B301C401F3D2811119C0F8018081680EF9
:100EE000711CF3013297908189819813E9CF319673
:100EF00090818A819813E4CF06C08FEF07C084E009
:100F000005C082E003C080E001C081E00F900F9037
:100F1000DF91CF911F910F91FF90EF90DF90CF90D5
:100F2000BF90AF909F908F907F906F905F904F9009
:100F30000895CF93DF9390E0FC01E15DFD4F249194
:100F4000FC01E751FE4F8491882361F190E0880F06
:100F5000991FFC01EB54FE4FC591D491FC01E15364
:100F6000FE4FA591B491611109C09FB7F894888193
:100F7000209582238883EC912E230BC0623061F48C
:100F80009FB7F8943881822F809583238883EC91D2
:100F90002E2B2C939FBF06C08FB7F894E8812E2B81
:100FA00028838FBFDF91CF910895EF92FF920F9327
:100FB0001F93CF93DF93EC01423018F08F85886048
:100FC0008F874B8B1C8A80E48D8B6E8B70E0605C0E
:100FD0007F4F6F8B61E08C81ACDF8D818F3F11F093
:100FE00061E0A7DF61E08E81A4DF7E0187E0E80E8B
:100FF000F11C00E010E08F8584FD03C084E090E0E8
:1010000002C088E090E00817190744F461E0F70196
:1010100081917F018EDF0F5F1F4FEDCF8BE39DE04E
:101020000197F1F760E08C8122DE60E08E811FDEA7
:101030008D818F3F11F060E01ADE6F8564FD19C06D
:1010400063E0CE0115D10BE416E4C8010197F1F776
:1010500063E0CE010DD1C8010197F1F763E0CE0145
:1010600007D183E592E00197F1F762E0CE0100D16C
:1010700013C06062CE0179D18BE496E40197F1F759
:101080006F856062CE0171D183E592E00197F1F73F
:101090006F856062CE0169D16F856062CE0165D1D6
:1010A00084E0888B6CE0CE0160D161E0CE015DD13F
:1010B0008BE39FE10197F1F782E0898B66E0CE0137
:1010C000DF91CF911F910F91FF90EF904EC18F92C2
:1010D0009F92AF92BF92CF92DF92EF92FF926B01FD
:1010E0007C0103DA4B015C01C114D104E104F10479
:1010F000E9F0FBD9DC01CB0188199909AA09BB09E0
:10110000883E9340A105B10578F321E0C21AD108C9
:10111000E108F10888EE880E83E0981EA11CB11C3E
:10112000C114D104E104F10421F7DECFFF90EF9068
:10113000DF90CF90BF90AF909F908F900895FC016B
:10114000918D828D981731F0828DE80FF11D858D7C
:1011500090E008958FEF9FEF0895FC01918D228D0F
:10116000892F90E0805C9F4F821B91098F73992794
:10117000089580E090E0892B19F045D9811120C0B5
:1011800080E090E0892B19F035D981111CC080E0F6
:1011900090E0892B41F080E090E0892B21F00E94C3
:1011A0000000811113C080E090E0892BA1F080E065
:1011B00090E0892B81F00E94000081110AC00895FF
:1011C0000E940000DDCF0E940000E1CF0E940000DD
:1011D000EACF0C9400000895089580E090E008950F
:1011E000DC01ED91FD91BD010190F081E02D40E029
:1011F000199591E0811190E0892F089581E0809305
:101200001202089508950895CF93DF93EC0160E0F2
:101210008E812DDD61E08E812ADD60E08E8127DD0B
:101220008BE891E00197F1F7DF91CF910895FC01F0
:10123000848DDF01A80FB11DA35ABF4F2C91848D5F
:1012400090E001968F739927848FA689B7892C9394
:10125000A089B1898C9180648C93938D848D98132F
:1012600006C00288F389E02D80818F7D80830895F8
:10127000CF92DF92EF92FF920F931F93CF93DF9362
:101280007C016C0187E0C80ED11CC0E0D0E0062FC5
:1012900010E0B8010C2E02C0759567950A94E2F72C
:1012A0006170F60181916F01E2DC2196C430D105B5
:1012B00081F7C701DF91CF911F910F91FF90EF90C0
:1012C000DF90CF90A1CFCF92DF92EF92FF920F935A
:1012D0001F93CF93DF93EC01F62E642F8C81C7DC34
:1012E0008D818F3F11F060E0C2DC8F850F2D10E003
:1012F00084FF23C06E0187E0C80ED11CE12CF12CC5
:10130000B8010E2C02C0759567950A94E2F76170DA
:10131000F60181916F01ABDCFFEFEF1AFF0A88E065
:10132000E816F10469F7CE01DF91CF911F910F917B
:10133000FF90EF90DF90CF9067CFB80184E0759574
:1013400067958A95E1F7CE0193DF6F2DCE01DF918E
:10135000CF911F910F91FF90EF90DF90CF9088CFAA
:1013600041E0B1DF81E090E0089540E0ACCF089526
:101370008EBD00000DB407FEFDCF8EB508958CBD67
:101380009DBD08951F93CF93DF93EC01162F83E546
:1013900090E0F5DF60E08E856ADC812F8068E8DF11
:1013A00080E0E6DF182F61E08E8561DC812FDF9120
:1013B000CF911F910895EF92FF921F93CF93DF93E8
:1013C0001F92CDB7DEB77C01162F83E590E04983ED
:1013D000D6DF60E0F70186854ADC812FC9DF4981CD
:1013E000842FC6DF61E0F70186850F90DF91CF91F2
:1013F0001F91FF90EF903BCC8F929F92AF92CF9234
:10140000EF92FF920F931F93CF93DF9300D01F9221
:101410001F92CDB7DEB74C0182E08D8340E064E2DD
:10142000C401C9DF40E066E2C401C5DF46E268E40A
:10143000C401C1DF86E28C838D81823028F16CE1AA
:10144000C401A0DF482F4F776CE1C401B4DF87E00F
:101450008B83A12CC12CCE0103967C018E010B5FE6
:101460001F4F9E012F5F3F4F41E0BE016C5F7F4FDA
:10147000C40162DC81110BC08D81823039F481E0BE
:101480009B81911104C008C084E001C081E091E01B
:10149000823019F090E001C091E0892F0F900F90F9
:1014A0000F900F900F90DF91CF911F910F91FF90B0
:1014B000EF90CF90AF909F908F900895CF92DF9252
:1014C000EF92FF920F931F93CF93DF93EC016B0189
:1014D000142F790140E062E06EDF44E06AE0CE0163
:1014E0006ADF40E864E1CE0166DFA601612FCE012C
:1014F000EDDB43E062E0CE015EDF08E813E16AE085
:10150000CE0140DF82FF10C040E062E0CE0153DF39
:1015100064E4CE0137DFF701808362E4CE0132DF7D
:10152000F701818380E004C00150110941F783E095
:10153000DF91CF911F910F91FF90EF90DF90CF90AF
:1015400008952F923F924F925F926F927F928F9267
:101550009F92AF92BF92CF92DF92EF92FF920F9342
:101560001F93CF93DF93CDB7DEB72D970FB6F894C7
:10157000DEBF0FBECDBF413508F00AC1342E3B019E
:101580004C016CE1FFDE482F4F776CE1C40113DFA3
:10159000BB24B39422E0B21691F033E0B316E1F02D
:1015A00041E0B412F9C083E989833320D1F081E0AE
:1015B000F3019081953008F480E0D12C17C085E9C3
:1015C0008983332081F081E0F3019081983008F421
:1015D00080E053E0D52E0AC087E9898346E0D42E07
:1015E00004C0D12C02C033E0D32E80E0532DF8EF9D
:1015F000DF9E500D112457FD50E0882321F098E81C
:101600009B8343E001C042E021E0952F977009F4ED
:1016100020E0952F959595959595290F21F4882390
:1016200011F1585F20C0811102C094E001C093E025
:10163000291708F4922F20E030E06D2D70E0E42FA0
:10164000E20FA1E0B0E0AC0FBD1FAE0FB11DF9017C
:10165000E60FF71FE60DF71DE181EC932F5F3F4F7B
:10166000291768F3DCCF23E0222E5032F4F020E774
:101670002A839C818B8189279D8189279E81892747
:101680008F839E01285F3F4F47E0BE016F5F7F4F12
:10169000C4015D8713DF5D858111C9C01B862A8661
:1016A000CE0107962C0179E01EC0952F97709B877D
:1016B000252F25952595259582E0820F392FE0E18C
:1016C0008E9F300D11243A8371E0911101C070E0BA
:1016D000780F44244394512C4C0E5D1E480E511C2F
:1016E00087E0821B8A87CB844C2D4295407F4C0D2E
:1016F0006AE1C4015D877C875EDEA12C9E01255FC7
:101700003F4F79018E01065F1F4F92017C85472F65
:10171000BE016F5F7F4FC4010FDB5D85823091F5A5
:101720006CE1C4012FDE5D8585FD34C08F7109F445
:1017300080E2282F30E0452F550F550B42175307F5
:101740005CF5582FC9010197877099272595259534
:10175000259531E0320F21E0009709F420E0230FB6
:10176000E1E0F0E0EC0FFD1FE20FF11D21E030E0C1
:1017700002C0220F331F8A95E2F7C9019081892B9D
:10178000808373CF811153C0503244F450E26FCF45
:1017900086E04DC082E04BC085E049C08B8188382F
:1017A00009F042C033E023E080E090E06D2D70E06E
:1017B000FC01E60FF71FE60DF71D432F480FA1E0D0
:1017C000B0E0AC0FBD1FA40FB11D4C914183019639
:1017D000821770F38A85833019F58B85811120C0BB
:1017E0009E012D5F3F4F41E0B201C40167DE8111D0
:1017F0001EC09B81F2018181981314C09C8182815B
:10180000981310C0808182FF02C0B394C3CEF3014D
:1018100083878B2D880FB80EB394B08280E007C009
:1018200081E005C087E003C032E024E0BDCF2D9603
:101830000FB6F894DEBF0FBECDBFDF91CF911F91E1
:101840000F91FF90EF90DF90CF90BF90AF909F905F
:101850008F907F906F905F904F903F902F90089562
:10186000CF93DF93CDB7DEB760970FB6F894DEBFA6
:101870000FBECDBF81E0809311028FE292E09A8388
:1018800089838CE0E0EFF3E0DE01139601900D9286
:101890008A95E1F7EEEEF3E086858F878785888B62
:1018A00046E262E1CE01019686DD4CE062E0CE01C7
:1018B000019681DD47E86AE1CE0101967CDD609604
:1018C0000FB6F894DEBF0FBECDBFDF91CF91089564
:1018D000AF92CF92EF92FF920F931F93CF93DF932C
:1018E000CDB7DEB760970FB6F894DEBF0FBECDBFA1
:1018F00080911102882329F081E080938802109260
:1019000011028FE292E09A8389838CE0E0EFF3E0AA
:10191000DE01139601900D928A95E1F78091FC0308
:101920008F878091FD03888B4FE768E0CE01019699
:1019300042DD80E589831A829E012D5F3F4F42E0A0
:10194000BE016F5F7F4F8EEE93E0B8DD81110FC057
:10195000A12CC12CE12CF12C00E010E020E030E0C3
:1019600044E0BE016F5F7F4F8EEE93E0E5D9609655
:101970000FB6F894DEBF0FBECDBFDF91CF911F91A0
:101980000F91FF90EF90CF90AF90089561E086E3C4
:101990006ED962E370E080E090E099DB60E086E37E
:1019A00066C9CF93DF93CDB7DEB760970FB6F894D3
:1019B000DEBF0FBECDBF789484B5826084BD84B590
:1019C000816084BD85B5826085BD85B5816085BD3A
:1019D00080916E00816080936E00109281008091F2
:1019E000810082608093810080918100816080937A
:1019F0008100809180008160809380008091B1009F
:101A000084608093B1008091B00081608093B000C9
:101A1000809191008260809391008091910081601B
:101A200080939100809190008160809390008091DC
:101A3000A10082608093A1008091A10081608093C9
:101A4000A1008091A00081608093A000809121017D
:101A50008260809321018091210181608093210126
:101A60008091200181608093200180917A008460C0
:101A700080937A0080917A00826080937A008091CE
:101A80007A00816080937A0080917A0080688093E8
:101A90007A001092C10085E393E03DD81FB7F89417
:101AA00080918902811123C0EEE1F2E08491E4E6A5
:101AB000F2E09491E82FF0E0EE0FFF1FEB54FE4FA1
:101AC000A591B491EC91E92319F461E085E3CFD8B5
:101AD00061E085E32EDA8CB580618CBD8CB58064C5
:101AE0008CBD61E084E325DA61E083E322DA809152
:101AF00089028F5F809389021FBF61E08091FC03A0
:101B000018DA61E08091FC03B2D88091FD038F3F29
:101B100059F44FE062E08EEE93E04DDC62E370E05A
:101B200080E090E0D4DA23C061E003DA2091FD0385
:101B300030E0F901EB58FD4F8491F901E15DFD4F73
:101B40000491F901E751FE4F1491112309F4ACC23D
:101B5000811137D8E12FF0E0EE0FFF1FE85FFE4F55
:101B6000A591B491EC91E02309F49EC2D2CF62E03A
:101B70008EEE93E007DC84FDFACF40E064E28EEE67
:101B800093E019DC40E066E28EEE93E014DC46E27E
:101B900068E48EEE93E00FDC40E864E58EEE93E0BF
:101BA0000ADC49EA66E58EEE93E005DC43E068E591
:101BB0008EEE93E000DC48EE6AE58EEE93E0FBDB10
:101BC00040E46AE28EEE93E0F6DB4DE362E28EEEF5
:101BD00093E0F1DB68E28EEE93E0D4DB982F937014
:101BE000933031F0482F436068E28EEE93E0E3DB00
:101BF0008DEA91E00E94B2058AEA91E00E94B20566
:101C00006EE68EEE93E0BEDB182F85E991E00E9430
:101C1000B205412F50E060E070E020E185E393E001
:101C20000E945104103969F028F4183881F48AE8C8
:101C300091E00FC0113941F0123949F482E791E087
:101C400008C082E891E005C08AE791E002C085E61D
:101C500091E00E94D30511501E3F20F082E291E0F6
:101C60000E94D30561E086E364D961E086E161D931
:101C700061E088E15ED961E087E15BD987DE80E3DE
:101C80009CE09093D9038093D80380ED97E0A0E087
:101C9000B0E08093DA039093DB03A093DC03B0936E
:101CA000DD032FB7F8948091900290919102A0915A
:101CB0009202B09193022FBF8093DE039093DF03D3
:101CC000A093E003B093E1038EEF98E09093E303D9
:101CD0008093E20382E390E0A0E0B0E08093E4032D
:101CE0009093E503A093E603B093E7032FB7F8942E
:101CF0008091900290919102A0919202B0919302F2
:101D00002FBF8093E8039093E903A093EA03B09375
:101D1000EB0344E064E18EEF93E047D961E086E1B4
:101D20000E94370661E088E10E94370661E087E1A2
:101D30000E94370662E082E0FCD861E08EEF93E01B
:101D400014DB8BE39FE10197F1F780E00E943D05F2
:101D500081E492E00E944F0581E00E943D058EE4FF
:101D600092E00E944F0582E00E943D058BE592E0E3
:101D70000E944F0580E692E00E944F0583E692E0C4
:101D80000E944F0580E692E00E944F0588E692E0AF
:101D90000E944F0580E692E00E944F0588E992E09C
:101DA0000E948B0564EF71E080E090E090D96DE6D1
:101DB00072E088E992E00E943C0467E772E088E9FB
:101DC00092E00E943C0480EA8093100240EA64E0C2
:101DD0008EEE93E0F0DA1092880288E69CE0909311
:101DE00001028093000280916A008C7F8260809360
:101DF0006A00EC9A109288028FB7F89420909002B3
:101E00003090910240909202509093028FBF48ED23
:101E1000842E43E0942E712CD40116964D915D9141
:101E20006D917C91199712960D911D912D913C9178
:101E300015970B831C832D833E83012B022B032BD1
:101E4000C1F192018101041B150B260B370B5801C0
:101E500069014B815C816D817E819A01AB0160E0FB
:101E600070E0CB012B833C834D835E836F83788747
:101E700089879A879501A60160E070E080E090E094
:101E8000AB80BC80CD80DE80E12CF12C00E010E046
:101E900079D27CF0E091EC03F091ED03872D199558
:101EA000D401ED91FC911995F40126823782408688
:101EB0005186FAE08F0E911C01E0701619F077241C
:101EC0007394AACF80918802882309F4CFC08EEE44
:101ED00093E086D95BDD109211029091F00320917E
:101EE000F10380908B023091F20370918C02E091AB
:101EF000F30390908D02F091F40360918E0280E0E4
:101F0000891781F0813039F050F0823031F0833020
:101F100039F46F2F05C0732F03C09E2E01C0822E8F
:101F20008F5FEECF60938E0270938C0280928B0253
:101F300090928D0280E090E06F87788BF1D1898359
:101F400081E090E0EDD18A83A980BA806F8578899D
:101F50001FEFA116B10609F480C0CDB6DEB6C501EB
:101F6000880F991F880F991F2DB73EB7281B390B73
:101F70000FB6F8943EBF0FBE2DBF2DB63EB634E06F
:101F8000230E311C7101612C712C32E0432E512C37
:101F90006A147B04E4F500E010E0A7014150510908
:101FA0005C834B839701225031093C872B87425039
:101FB00051095E874D87C801840D951D6F87788B09
:101FC000AFD16F8578890230110561F003301105BA
:101FD00069F00130110519F0AD85BE8505C0EB85AE
:101FE000FC8505C0AB81BC818C9302C0F701808366
:101FF0000F5F1F4F04301105F1F6F4E04F0E511C36
:102000000FEF601A700A14E0E10EF11CC1CF80E0FE
:1020100090E0E0E0F0E08A159B05CCF4D101139745
:10202000AC910196A8110FC0D1011297AC91A713E2
:102030000AC0D1011197AC91A91105C0D1012C9111
:10204000261301C0FC01B4E02B0E311CE4CF0FB607
:10205000F894DEBE0FBECDBE02C0E0E0F0E0EF2B94
:1020600019F0E1E0E0938A021092880288E992E098
:1020700074D8892B49F088E992E00E94E601682F24
:1020800085E393E00E940E0285E393E066D8892BF6
:1020900049F085E393E00E94E601682F88E992E029
:1020A0000E940E0266D8A8CE61E08091FD030E94D6
:1020B000370662E370E080E090E009D85ECD1092D0
:1020C0009B0210929A0248EE53E060E070E0409369
:1020D0009C0250939D0260939E0270939F028DE13B
:1020E00092E090939902809398022DEC30E0309327
:1020F000A5022093A4022CEC30E03093A702209399
:10210000A60228EC30E03093A9022093A80229EC23
:1021100030E03093AB022093AA022AEC30E03093F7
:10212000AD022093AC022EEC30E03093AF0220934E
:10213000AE021092B1021092B2021092B30210924B
:10214000B40210923803109237034093390350932E
:102150003A0360933B0370933C0390933603809360
:10216000350385EC90E0909342038093410384EC27
:1021700090E0909344038093430380EC90E090932D
:1021800046038093450381EC90E09093480380934D
:10219000470382EC90E090934A038093490386ECD6
:1021A00090E090934C0380934B0310924E03109257
:1021B0004F03109250031092510310920104109299
:1021C000000489E392E09093FF038093FE0388E08C
:1021D000809302048FEF8093030489E080930404CA
:1021E0008AE0809305048BE0809306048CE0809362
:1021F00007048DE0809308041092090410920A04E9
:1022000010920B0410920C0410920D0441E060E156
:102210008EEF93E00E94D5078FE292E09093EF0358
:102220008093EE0385E38093FC0385E08093FD03B8
:1022300083E099E09093D9038093D8031092DA0356
:102240001092DB031092DC031092DD031092DE0388
:102250001092DF031092E0031092E1039093E303E6
:102260008093E2031092E4031092E5031092E603D8
:102270001092E7031092E8031092E9031092EA0328
:102280001092EB0382E099E09093ED038093EC03CE
:102290001092D3031092D2031092D5031092D4035C
:1022A0001092D7031092D6036EE070E080E090E0C9
:1022B0009FD1009799F09093D3038093D2032DE0A0
:1022C00030E03093D5032093D4032091D60330918E
:1022D000D703232BB9F4FC01108214C08091D203E0
:1022E0009091D303009709F0EBD01092D303109292
:1022F000D2031092D7031092D6031092D5031092F6
:10230000D40308952DE030E03093D7032093D60313
:102310006AE772E05EC28091D2039091D303D0C08D
:10232000F999FECF92BD81BDF89A992780B508959D
:10233000A1E21A2EAA1BBB1BFD010DC0AA1FBB1FC9
:10234000EE1FFF1FA217B307E407F50720F0A21B3B
:10235000B30BE40BF50B661F771F881F991F1A94A8
:1023600069F760957095809590959B01AC01BD01D2
:10237000CF010895EE0FFF1F881F8BBF0790F691C6
:10238000E02D19942A153B054C055D056E057F056A
:10239000800791070895CF93DF938230910510F461
:1023A00082E090E0E0911804F091190420E030E020
:1023B000C0E0D0E0309711F14081518148175907B2
:1023C000C0F04817590761F482819381209719F072
:1023D0009B838A832BC0909319048093180426C092
:1023E0002115310519F04217530718F49A01BE015F
:1023F000DF01EF010280F381E02DDCCF21153105F3
:1024000009F1281B390B2430310590F412968D9177
:102410009C9113976115710521F0FB0193838283D1
:1024200004C09093190480931804FD01329644C0AF
:10243000FD01E20FF31F81939193225031092D93F7
:102440003C933AC02091160430911704232B41F499
:102450002091150230911602309317042093160430
:1024600020911302309114022115310541F42DB74A
:102470003EB74091170250911802241B350BE09192
:102480001604F0911704E217F307A0F42E1B3F0B7C
:102490002817390778F0AC014E5F5F4F24173507D6
:1024A00048F04E0F5F1F509317044093160481931A
:1024B000919302C0E0E0F0E0CF01DF91CF91089569
:1024C0000F931F93CF93DF93009709F48CC0FC0107
:1024D0003297138212820091180410911904011589
:1024E000110581F420813181820F931F2091160400
:1024F000309117042817390779F5F0931704E09302
:10250000160471C0D80140E050E0AE17BF0750F488
:1025100012962D913C911397AD012115310509F1CA
:10252000D901F3CF9D01DA01338322836081718168
:10253000860F971F8217930769F4EC012881398170
:10254000260F371F2E5F3F4F318320838A819B8167
:1025500093838283452B29F4F0931904E0931804A4
:1025600042C01396FC93EE931297ED014991599155
:102570009E01240F351FE217F30771F480819181CA
:10258000840F951F029611969C938E93828193815E
:1025900013969C938E931297E0E0F0E0D801129688
:1025A0008D919C911397009719F0F8018C01F6CF4B
:1025B0008D919C9198012E5F3F4F820F931F209128
:1025C0001604309117042817390769F4309729F455
:1025D000109219041092180402C0138212821093F0
:1025E000170400931604DF91CF911F910F91089566
:1025F0006F927F928F929F92AF92BF92CF92DF9213
:10260000EF92FF920F931F93CF93DF93EC0100970C
:1026100081F4CB01DF91CF911F910F91FF90EF904B
:10262000DF90CF90BF90AF909F908F907F906F90F2
:10263000B2CEFC01E60FF71F9C0122503109E217D0
:10264000F30708F4A8C0D9010D911C911197061742
:102650001707A8F00530110508F49BC0C8010497BE
:102660008617970708F495C002501109061B170B2F
:10267000019311936D937C93CF0122DF8AC05B019C
:10268000A01AB10A4C01800E911EA0911804B091BD
:10269000190440E050E0E12CF12C109709F44AC0F5
:1026A000A815B905D1F56D907C901197630182E072
:1026B000C80ED11CCA14DB0480F1A3014A195B09BE
:1026C0006A0182E0C80ED11C1296BC901297139634
:1026D000AC91B5E0CB16D10440F0B282A383518314
:1026E0004083D9016D937C930AC00E5F1F4FC301D5
:1026F000800F911FF90191838083EB2DFA2FE11454
:10270000F10431F0D7011396FC93EE93129741C078
:10271000F0931904E09318043CC08D919C9111979B
:102720004817590708F4AC017D0112960D90BC9131
:10273000A02DB3CF809116049091170488159905A8
:10274000E1F446175707C8F48091130290911402E0
:10275000009741F48DB79EB740911702509118022F
:10276000841B950BE817F907B0F4F0931704E09376
:102770001604F901718360830CC0CB010CDE7C016F
:10278000009749F0A801BE011BD0CE0199DEC70118
:1027900004C0CE0102C080E090E0DF91CF911F9194
:1027A0000F91FF90EF90DF90CF90BF90AF909F90F0
:1027B0008F907F906F90089581E090E0F89410C022
:1027C000FB01DC0102C001900D9241505040D8F74E
:1027D0000895FB01DC0101900D920020E1F70895BE
:1027E00011E0CFE5D1E000E005C0802FFE01C2DDA1
:1027F0002196011DC036D10780E00807B1F7F89493
:02280000FFCF08
:10280200920192019201920192019201920192012E
:102812007F010100001A048000000000000E0293F4
:1028220001D7015402AD08E6019F0800000000A193
:102832000AFC09F00800000000B0099301ED08EC61
:10284200085374616E20616C61726D753A004E6955
:102852006520776C61637A6F6E79004F4B313A0075
:102862005A20004F4B323A004F4B333A0041542B1F
:10287200434D47463D31000D0A0057796B7279741A
:082882006F206B6172746500A8
:00000001FF
