:100000006FC100000C94BA0C0C948F0C0C94640C0F
:100010000C94390C0C940E0C0C94E30B0C94B80B50
:100020000C948D0B8EC100008CC100008AC10000B1
:1000300088C1000086C1000084C1000082C10000A8
:1000400080C100007EC100007CC100007AC10000B8
:1000500078C1000076C1000074C100000C94430B0D
:1000600070C100000C94BF0D0C94950D6AC1000086
:1000700068C1000066C1000064C1000062C10000E8
:1000800060C100005EC100005CC100005AC10000F8
:100090000C946B0D0C94410D54C1000052C1000032
:1000A00050C100004EC100004CC100004AC1000018
:1000B00048C1000046C1000044C1000042C1000028
:1000C00040C100003EC100003CC100003AC1000038
:1000D00038C1000036C1000034C1000032C1000048
:1000E00030C10000A806B006B906C106C906D1068F
:1000F000D90661076407530757075D079B07680721
:100100006C07720776077A078007840788079B07C2
:100110008E0792079607F0121D133F13871387135C
:1001200087138713871387130000210024002700FB
:100130002A002D00300033000101000004010701F6
:100140000A0100002200250028002B002E003100AB
:10015000340002010000050108010B01000020002D
:100160002300260029002C002F003200000100008F
:10017000030106010901050505050705080808082A
:10018000020202020A0A080804040404010101012F
:10019000010101010303030303030303040707072A
:1001A0000C0C0C0C0C0C0C0C0202020206060606CF
:1001B000060606060B0B0B0B0B0B0B0B010210209C
:1001C000200808102040102040800201020108048D
:1001D0000201010204081020408080402010080421
:1001E000020180040201804020100804020108047A
:1001F00002010102040810204080010204081020BE
:10020000408000000A0B02090C0D0E0807030401D0
:1002100000000000000000000000000000000000DE
:1002200000000000000000000000000000001211AB
:1002300010000000000000000000000000000000AE
:1002400000000000000000005741524E494E473A5E
:1002500020436F6D6D756E69636174696F6E2066A2
:1002600061696C7572652C20697320746865204D16
:100270004652433532322070726F7065726C79204D
:10028000636F6E6E65637465643F00203D20287562
:100290006E6B6E6F776E2900203D2076322E300017
:1002A000203D2076312E3000203D2076302E30004B
:1002B000203D2028636C6F6E6529004669726D775A
:1002C0006172652056657273696F6E3A20307800EE
:1002D0003A2000526561646572200000EE0DE90D60
:1002E00011241FBECFEFD1E2DEBFCDBF00E00CBFB7
:1002F00024E0AAE0B3E001C01D92A83AB207E1F7FA
:1003000013E0A0E0B2E0EAEFFBE200E00BBF02C0C6
:1003100007900D92AA30B107D9F711E0CFE6D1E0EE
:1003200000E006C021970109802FFE010E94B6134C
:10033000CE36D10780E00807A9F70E942D0F0C9454
:10034000EC155ECEFC01538D448D252F30E0842FBB
:1003500090E0821B930B541710F0CF9608950197ED
:100360000895FC01918D828D981761F0828DDF01D7
:10037000A80FB11D5D968C91928D9F5F9F73928F98
:1003800090E008958FEF9FEF0895FC01918D828D8D
:10039000981731F0828DE80FF11D858D90E008955A
:1003A0008FEF9FEF0895FC01918D228D892F90E0B2
:1003B000805C9F4F821B91098F739927089580E07D
:1003C00090E0892B21F00E94390B811121C080E03F
:1003D00090E0892B21F00E942F0B81111CC080E03E
:1003E00090E0892B41F080E090E0892B21F00E9481
:1003F0000000811113C080E090E0892BA1F080E023
:1004000090E0892B81F00E94000081110AC00895BC
:100410000E940000DCCF0E940000E1CF0E9400009B
:10042000EACF0C9400000895089580E090E00895CC
:10043000DC01ED91FD91BD010190F081E02D40E0E6
:10044000199591E0811190E0892F089581E08093C2
:100450001302089580911802909119021816190636
:100460004CF40197909319028093180281E08093D5
:1004700017020895109268041092690410926A0499
:1004800010926B04089508950895CF93DF93EC01C3
:1004900060E08E8142D661E08E813FD660E08E8141
:1004A0003CD68BE891E00197F1F7DF91CF91089569
:1004B000FC01A089B1898C91A689B78982FD0FC002
:1004C0009C91818D8F5F8F73228D821749F0218DD2
:1004D000DF01A20FB11D5D969C93818F08958C91D1
:1004E0000895FC01848DDF01A80FB11DA35ABF4FF1
:1004F0002C91848D90E001968F739927848FA68923
:10050000B7892C93A089B1898C9180648C93938D49
:10051000848D981306C00288F389E02D80818F7D39
:1005200080830895EF92FF920F931F93CF93DF93F1
:10053000EC0181E0888F9B8D8C8D981305C0E88934
:10054000F989808185FD23C0F62E0B8D10E00F5FA9
:100550001F4F0F731127E02E8C8DE8120BC00FB6C2
:1005600007FCFACFE889F989808185FFF5CFCE01B4
:10057000B8DFF2CF8B8DFE01E80FF11DE35AFF4F7C
:10058000F0820B8FEA89FB898081806207C0EE8947
:10059000FF896083E889F98980818064808381E0B4
:1005A00090E0DF91CF911F910F91FF90EF90089510
:1005B000CF93DF93EC01888D8823C1F0EA89FB8912
:1005C000808185FD05C0A889B9898C9186FD0EC002
:1005D0000FB607FCF5CF808185FFF2CFA889B989D6
:1005E0008C9185FFEDCFCE017CDFE8CFDF91CF91FD
:1005F0000895CF92DF92EF92FF920F931F93CF93C4
:10060000DF937C016C0187E0C80ED11CC0E0D0E014
:10061000062F10E0B8010C2E02C0759567950A945C
:10062000E2F76170F60181916F0177D52196C430B0
:10063000D10581F7C701DF91CF911F910F91FF90F5
:10064000EF90DF90CF9021CFCF92DF92EF92FF9289
:100650000F931F93CF93DF93EC01F62E642F8C81C1
:100660005CD58D818F3F11F060E057D58F850F2DC0
:1006700010E084FF23C06E0187E0C80ED11CE12C7E
:10068000F12CB8010E2C02C0759567950A94E2F71B
:100690006170F60181916F0140D5FFEFEF1AFF0AFB
:1006A00088E0E816F10469F7CE01DF91CF911F9140
:1006B0000F91FF90EF90DF90CF90E7CEB80184E0EC
:1006C000759567958A95E1F7CE0193DF6F2DCE0181
:1006D000DF91CF911F910F91FF90EF90DF90CF901E
:1006E00088CF41E0B1DF81E090E0089540E0ACCFF9
:1006F00008958EBD00000DB407FEFDCF8EB50895A0
:100700008CBD9DBD08951F93CF93DF93EC01162FF1
:1007100083E590E0F5DF60E08E85FFD4812F80686F
:10072000E8DF80E0E6DF182F61E08E85F6D4812FC8
:10073000DF91CF911F910895EF92FF921F93CF9376
:10074000DF931F92CDB7DEB77C01162F83E590E0D3
:100750004983D6DF60E0F7018685DFD4812FC9DFCA
:100760004981842FC6DF61E0F70186850F90DF9114
:10077000CF911F91FF90EF90D0C48F929F92AF9234
:10078000CF92EF92FF920F931F93CF93DF9300D0FE
:100790001F921F92CDB7DEB74C0182E08D8340E0FF
:1007A00064E2C401C9DF40E066E2C401C5DF46E29D
:1007B00068E4C401C1DF86E28C838D81823028F138
:1007C0006CE1C401A0DF482F4F776CE1C401B4DFB6
:1007D00087E08B83A12CC12CCE0103967C018E0176
:1007E0000B5F1F4F9E012F5F3F4F41E0BE016C5FCB
:1007F0007F4FC401F7D481110BC08D81823039F451
:1008000081E09B81911104C008C084E001C081E0B7
:1008100091E0823019F090E001C091E0892F0F90B3
:100820000F900F900F900F90DF91CF911F910F912C
:10083000FF90EF90CF90AF909F908F900895CF92C0
:10084000DF92EF92FF920F931F93CF93DF93EC0110
:100850006B01142F790140E062E06EDF44E06AE052
:10086000CE016ADF40E864E1CE0166DFA601612FB8
:10087000CE0182D443E062E0CE015EDF08E813E1FE
:100880006AE0CE0140DF82FF10C040E062E0CE01AE
:1008900053DF64E4CE0137DFF701808362E4CE01E9
:1008A00032DFF701818380E004C00150110941F774
:1008B00083E0DF91CF911F910F91FF90EF90DF9038
:1008C000CF9008952F923F924F925F926F927F92B6
:1008D0008F929F92AF92BF92CF92DF92EF92FF9250
:1008E0000F931F93CF93DF93CDB7DEB72D970FB63E
:1008F000F894DEBF0FBECDBF413508F00AC1342EDB
:100900003B014C016CE1FFDE482F4F776CE1C401E5
:1009100013DFBB24B39422E0B21691F033E0B31698
:10092000E1F041E0B412F9C083E989833320D1F0CA
:1009300081E0F3019081953008F480E0D12C17C05C
:1009400085E98983332081F081E0F301908198303B
:1009500008F480E053E0D52E0AC087E9898346E099
:10096000D42E04C0D12C02C033E0D32E80E0532D0E
:10097000F8EFDF9E500D112457FD50E0882321F041
:1009800098E89B8343E001C042E021E0952F9770F7
:1009900009F420E0952F959595959595290F21F4CB
:1009A000882311F1585F20C0811102C094E001C07A
:1009B00093E0291708F4922F20E030E06D2D70E0CD
:1009C000E42FE20FA1E0B0E0AC0FBD1FAE0FB11DF0
:1009D000F901E60FF71FE60DF71DE181EC932F5F9C
:1009E0003F4F291768F3DCCF23E0222E5032F4F07A
:1009F00020E72A839C818B8189279D8189279E817D
:100A000089278F839E01285F3F4F47E0BE016F5FBC
:100A10007F4FC4015D8713DF5D858111C9C01B86CF
:100A20002A86CE0107962C0179E01EC0952F97707B
:100A30009B87252F25952595259582E0820F392FB7
:100A4000E0E18E9F300D11243A8371E0911101C0D5
:100A500070E0780F44244394512C4C0E5D1E480ED8
:100A6000511C87E0821B8A87CB844C2D4295407FA6
:100A70004C0D6AE1C4015D877C875EDEA12C9E017E
:100A8000255F3F4F79018E01065F1F4F92017C85E4
:100A9000472FBE016F5F7F4FC401A4D35D858230B5
:100AA00091F56CE1C4012FDE5D8585FD34C08F7149
:100AB00009F480E2282F30E0452F550F550B4217DF
:100AC00053075CF5582FC901019787709927259521
:100AD0002595259531E0320F21E0009709F420E0BB
:100AE000230FE1E0F0E0EC0FFD1FE20FF11D21E02C
:100AF00030E002C0220F331F8A95E2F7C9019081CE
:100B0000892B808373CF811153C0503244F450E25B
:100B10006FCF86E04DC082E04BC085E049C08B813D
:100B2000883809F042C033E023E080E090E06D2D8A
:100B300070E0FC01E60FF71FE60DF71D432F480F8D
:100B4000A1E0B0E0AC0FBD1FA40FB11D4C914183DB
:100B50000196821770F38A85833019F58B85811190
:100B600020C09E012D5F3F4F41E0B201C40167DE0E
:100B700081111EC09B81F2018181981314C09C8158
:100B80008281981310C0808182FF02C0B394C3CECB
:100B9000F30183878B2D880FB80EB394B08280E069
:100BA00007C081E005C087E003C032E024E0BDCF8C
:100BB0002D960FB6F894DEBF0FBECDBFDF91CF915B
:100BC0001F910F91FF90EF90DF90CF90BF90AF906B
:100BD0009F908F907F906F905F904F903F902F905D
:100BE0000895CF93DF93CDB7DEB760970FB6F89433
:100BF000DEBF0FBECDBF81E08093110288E392E09B
:100C00009A8389838CE0E4E7F4E0DE011396019097
:100C10000D928A95E1F7E2E7F4E086858F87878574
:100C2000888B46E262E1CE01019686DD4CE062E00F
:100C3000CE01019681DD47E86AE1CE0101967CDDB7
:100C400060960FB6F894DEBF0FBECDBFDF91CF9197
:100C50000895AF92CF92EF92FF920F931F93CF938D
:100C6000DF93CDB7DEB760970FB6F894DEBF0FBE47
:100C7000CDBF80911102882341F081E080939A04D6
:100C80001092110282E794E0D3DB88E392E09A832A
:100C900089838CE0E4E7F4E0DE01139601900D9285
:100CA0008A95E1F7809180048F8780918104888BF9
:100CB0004FE768E0CE0101963FDD80E589831A8227
:100CC0009E012D5F3F4F42E0BE016F5F7F4F82E785
:100CD00094E0B5DD81110FC0A12CC12CE12CF12CC9
:100CE00000E010E020E030E044E0BE016F5F7F4FA5
:100CF00082E794E077D260960FB6F894DEBF0FBE1D
:100D0000CDBFDF91CF911F910F91FF90EF90CF90CA
:100D1000AF90089580911702882309F4A9C061E07B
:100D200082E894E0E3DC8BE39FE10197F1F780E058
:100D300053D1E0911A02F0911B023197E730F1058F
:100D400008F044C08827EE58FF4F8F4F0C94B6131D
:100D50008AE492E03DD181E03FD187E592E007C08F
:100D60008AE492E035D181E037D184E692E030D157
:100D70002DC08AE492E02CD181E02ED187E792E069
:100D80001FC08AE492E024D181E026D189E892E074
:100D9000EECF8AE492E01CD181E01ED187E992E097
:100DA000E6CF8AE492E014D181E016D189EA92E09C
:100DB000DECF8AE492E00CD181E00ED182EB92E0AA
:100DC00007D1809118029091190218D182E004D1C4
:100DD00085EC92E0FDD080911602882319F08AEC10
:100DE00092E002C08DEC92E0F3D080ED92E0F0D082
:100DF00080911502882319F08AEC92E002C08DECF4
:100E000092E0E6D085ED92E0E3D080911402882351
:100E100019F08AEC92E002C08DEC92E0D9D083E028
:100E2000DBD08AED92E0D4D080919C04882319F025
:100E30008FED92E002C082EE92E0CAD085EE92E0A1
:100E4000C7D080919B04882319F08FED92E002C0F7
:100E500082EE92E0BDD08AEE92E0BAD0809112028A
:100E6000882319F08AEC92E002C08DEC92E0B0D0B9
:100E700010921702089561E086E34FD162E370E0BB
:100E800080E090E07AD360E086E347C190E0FC0127
:100E90003197E231F10508F04EC08827E758FF4F3F
:100EA0008F4F0C94B613809180008F7703C0809190
:100EB00080008F7D80938000089580918000877FDF
:100EC000F9CF84B58F7702C084B58F7D84BD089536
:100ED0008091B0008F7703C08091B0008F7D8093A8
:100EE000B0000895809190008F7707C080919000A6
:100EF0008F7D03C080919000877F8093900008953C
:100F00008091A0008F7707C08091A0008F7D03C0E3
:100F10008091A000877F8093A00008958091200198
:100F20008F7707C0809120018F7D03C080912001C1
:100F3000877F8093200108953FB7F89480910E0336
:100F400090910F03A0911003B091110326B5A89BB7
:100F500005C02F3F19F00196A11DB11D3FBFBA2F4B
:100F6000A92F982F8827820F911DA11DB11DBC01AB
:100F7000CD0142E0660F771F881F991F4A95D1F770
:100F80000895FC01A089B18982E08C93A485B58580
:100F90001C92A685B78580E18C93108EA489B589B3
:100FA00086E08C93A289B3898C9180618C93A2890D
:100FB000B3898C9188608C93A289B3898C91806865
:100FC0008C930288F389E02D80818F7D8083089542
:100FD000BC0182E894E0F9C4843008F083E0909189
:100FE0009504891710F08FEF890FE82FF0E0EE5786
:100FF000FB4F6489606882E894E078CBCF92DF92FF
:10100000EF92FF92CF93DF936C01990FEE08FF08E8
:10101000F7FE20C0E0918204F09183040190F081FA
:10102000E02D6DE282E894E01995EC014427552704
:10103000BA014C195D096E097F092AE082E894E043
:10104000D9D48C0F9D1FDF91CF91FF90EF90DF904F
:10105000CF9008952AE0B701A60182E894E0DF91DD
:10106000CF91FF90EF90DF90CF90C4C40F931F9368
:10107000CF93DF938C01C0E0D0E0F801EC0FFD1FAF
:101080006491662371F0E091AF03F091B003019099
:10109000F081E02D8FEA93E01995892B11F02196CC
:1010A000ECCFCE01DF91CF911F910F910895CF9397
:1010B000DF93DCDFEC016CEF72E08FEA93E085D424
:1010C0008C0F9D1FDF91CF910895CF93DF93282F31
:1010D00030E0F901EE5FFD4F8491F901E454FE4FD9
:1010E000D491F901EA58FE4FC491CC2389F08111C3
:1010F000CDDEEC2FF0E0EE0FFF1FE45AFE4FA5917E
:10110000B491EC91ED2381E090E021F480E002C005
:1011100080E090E0DF91CF9108951F93CF93DF930C
:10112000282F30E0F901EE5FFD4F8491F901E4547E
:10113000FE4FD491F901EA58FE4FC491CC23C1F07F
:10114000162F8111A3DEEC2FF0E0EE0FFF1FEE5BF8
:10115000FE4FA591B4918FB7F894111105C09C91E1
:10116000ED2FE095E92302C0EC91ED2BEC938FBFBE
:10117000DF91CF911F910895CF92DF92EF92FF926E
:101180000F931F93CF93DF931F921F92CDB7DEB7BC
:101190008C01F62E83E590E049835A83B1DA60E052
:1011A000F8018685BADF82E1A4DA4981E42EC42EF3
:1011B0005A81D52E8C2D8E198F1528F4F601819128
:1011C0006F0197DAF7CF61E0F8018685A6DF0F900F
:1011D0000F90DF91CF911F910F91FF90EF90DF90D3
:1011E000CF9086CA4F925F926F927F928F929F921A
:1011F000AF92BF92CF92DF92EF92FF920F931F9325
:10120000CF93DF931F921F92CDB7DEB74C012B0116
:10121000D42E3901E114F10419F0F701408101C025
:1012200040E0B42EF0E1CF9EB00C112440E062E02B
:10123000C40182DA4FE768E0C4017EDA40E864E185
:10124000C4017ADAA2016D2DC40196DF4B2D6AE14B
:10125000C40172DA4CE062E0C4016EDA6AE1C401F2
:1012600052DA482F40686AE1C40166DA80ED482E00
:1012700087E0582E68E0C40146DA982F907341F455
:1012800080FD04C081E0481A5108A1F783E094C0B2
:101290006CE0C40138DAD82E837109F08CC0611477
:1012A000710409F44FC00115110509F44BC064E144
:1012B000C40129DAB82EF80180818B1508F475C0B5
:1012C000B082BB20A9F183E590E01ADA60E0F40176
:1012D000868523DF82E90DDACC2099F08FEF90E04C
:1012E0002C0101C0440CCA94EAF782E902DA842195
:1012F0004094F3019081492284298083CC24C394B3
:1013000001C0C12CBA944C2C512C460C571CCB1448
:1013100030F482E9EED9F2018083C394F4CF80E007
:10132000E8D9F201808361E0F4018685F6DEE0D938
:1013300068E1C401E8D98770E114F10421F0F701F4
:10134000808301C080E0D3FC32C06114710489F154
:101350000115110571F1AA2061F1F80140814130B8
:1013600019F4843019F41FC0423010F487E024C00F
:101370008111FCCF42509E012F5F3F4FB301C4014A
:101380005EDA811119C0F8018081680E711CF301C9
:101390003297908189819813E9CF319690818A8123
:1013A0009813E4CF06C08FEF07C084E005C082E049
:1013B00003C080E001C081E00F900F90DF91CF91DA
:1013C0001F910F91FF90EF90DF90CF90BF90AF9063
:1013D0009F908F907F906F905F904F900895CF93E4
:1013E000DF9390E0FC01E454FE4F2491FC01EA58A5
:1013F000FE4F8491882361F190E0880F991FFC01D2
:10140000E85DFE4FC591D491FC01EE5BFE4FA591C6
:10141000B491611109C09FB7F89488812095822307
:101420008883EC912E230BC0623061F49FB7F8944F
:101430003881822F809583238883EC912E2B2C93E7
:101440009FBF06C08FB7F894E8812E2B28838FBFEB
:10145000DF91CF910895EF92FF920F931F93CF9357
:10146000DF93EC01423018F08F8588608F874B8BBB
:101470001C8A80E48D8B6E8B70E0605C7F4F6F8B7D
:1014800061E08C81ACDF8D818F3F11F061E0A7DFDF
:1014900061E08E81A4DF7E0187E0E80EF11C00E0B0
:1014A00010E08F8584FD03C084E090E002C088E0F6
:1014B00090E00817190744F461E0F70181917F017A
:1014C0008EDF0F5F1F4FEDCF8BE39DE00197F1F7AC
:1014D00060E08C8122DE60E08E811FDE8D818F3F97
:1014E00011F060E01ADE6F8564FD19C063E0CE0183
:1014F00080D80BE416E4C8010197F1F763E0CE0150
:1015000078D8C8010197F1F763E0CE0172D883E57E
:1015100092E00197F1F762E0CE016BD813C06062F0
:10152000CE01E4D88BE496E40197F1F76F85606211
:10153000CE01DCD883E592E00197F1F76F85606218
:10154000CE01D4D86F856062CE01D0D884E0888B7C
:101550006CE0CE01CBD861E0CE01C8D88BE39FE12F
:101560000197F1F782E0898B66E0CE01DF91CF91A0
:101570001F910F91FF90EF90B9C88F929F92AF92F9
:10158000BF92CF92DF92EF92FF926B017C01D4DC8D
:101590004B015C01C114D104E104F104E9F0CCDC9D
:1015A000DC01CB0188199909AA09BB09883E93403F
:1015B000A105B10578F321E0C21AD108E108F108CC
:1015C00088EE880E83E0981EA11CB11CC114D104C2
:1015D000E104F10421F7DECFFF90EF90DF90CF9090
:1015E000BF90AF909F908F9008952FB7F89460911F
:1015F0000A0370910B0380910C0390910D032FBF90
:1016000008950895CF92DF92EF92FF920F931F9368
:10161000CF93DF936C017A018B01C0E0D0E0CE154F
:10162000DF0589F0D8016D918D01D601ED91FC9116
:101630000190F081E02DC6011995892B11F47E01EE
:1016400002C02196ECCFC701DF91CF911F910F917E
:10165000FF90EF90DF90CF9008950E94D81582E11F
:1016600093E00E94D30121E0892B09F420E0822F2E
:1016700008958FEA93E00E94D30121E0892B09F4B9
:1016800020E0822F08951F920F920FB60F9211241F
:101690002F933F938F939F93AF93BF9380910A03B0
:1016A00090910B03A0910C03B0910D033091A30412
:1016B00023E0230F2D3720F40196A11DB11D05C095
:1016C00026E8230F0296A11DB11D2093A304809349
:1016D0000A0390930B03A0930C03B0930D03809126
:1016E0000E0390910F03A0911003B0911103019686
:1016F000A11DB11D80930E0390930F03A0931003BF
:10170000B0931103BF91AF919F918F913F912F9112
:101710000F900FBE0F901F9018951F920F920FB64B
:101720000F9211240BB60F922F933F934F935F9319
:101730006F937F938F939F93AF93BF93EF93FF9399
:10174000E0910E02F0910F021995FF91EF91BF9178
:10175000AF919F918F917F916F915F914F913F9149
:101760002F910F900BBE0F900FBE0F901F901895EA
:101770001F920F920FB60F9211240BB60F922F9358
:101780003F934F935F936F937F938F939F93AF9309
:10179000BF93EF93FF93E0910C02F0910D02199526
:1017A000FF91EF91BF91AF919F918F917F916F9139
:1017B0005F914F913F912F910F900BBE0F900FBEF5
:1017C0000F901F9018951F920F920FB60F92112431
:1017D0000BB60F922F933F934F935F936F937F932B
:1017E0008F939F93AF93BF93EF93FF93E091020288
:1017F000F09103021995FF91EF91BF91AF919F91E5
:101800008F917F916F915F914F913F912F910F90A9
:101810000BBE0F900FBE0F901F9018951F920F9246
:101820000FB60F9211240BB60F922F933F934F9345
:101830005F936F937F938F939F93AF93BF93EF9338
:10184000FF93E0910002F09101021995FF91EF9151
:10185000BF91AF919F918F917F916F915F914F91C8
:101860003F912F910F900BBE0F900FBE0F901F90C6
:1018700018951F920F920FB60F9211240BB60F926C
:101880002F933F934F935F936F937F938F939F9388
:10189000AF93BF93EF93FF93E0910A02F0910B0295
:1018A0001995FF91EF91BF91AF919F918F917F918A
:1018B0006F915F914F913F912F910F900BBE0F90C1
:1018C0000FBE0F901F9018951F920F920FB60F9298
:1018D00011240BB60F922F933F934F935F936F9307
:1018E0007F938F939F93AF93BF93EF93FF93E09179
:1018F0000802F09109021995FF91EF91BF91AF9104
:101900009F918F917F916F915F914F913F912F9117
:101910000F900BBE0F900FBE0F901F9018951F9247
:101920000F920FB60F9211240BB60F922F933F9385
:101930004F935F936F937F938F939F93AF93BF93D7
:10194000EF93FF93E0910602F09107021995FF9142
:10195000EF91BF91AF919F918F917F916F915F9127
:101960004F913F912F910F900BBE0F900FBE0F9094
:101970001F9018951F920F920FB60F9211240BB65D
:101980000F922F933F934F935F936F937F938F9318
:101990009F93AF93BF93EF93FF93E0910402F09175
:1019A00005021995FF91EF91BF91AF919F918F9192
:1019B0007F916F915F914F913F912F910F900BBE4F
:1019C0000F900FBE0F901F9018956115710579F05B
:1019D000FB0101900020E9F73197AF01461B570B3F
:1019E000DC01ED91FC910280F381E02D199480E0FF
:1019F00090E008954F925F926F927F92EF92FF92E4
:101A00000F931F93CF93DF93CDB7DEB7A1970FB698
:101A1000F894DEBF0FBECDBF7C01FA01CB0119A245
:101A2000223008F42AE08E010F5D1F4F422E512C08
:101A3000612C712CBF01A301920176D6F901CA0174
:101A4000015011096A3014F4605D01C0695CD8016D
:101A50006C93232B242B252B69F7B801C701B5DF25
:101A6000A1960FB6F894DEBF0FBECDBFDF91CF9128
:101A70001F910F91FF90EF907F906F905F904F902C
:101A800008951F920F920FB60F9211240BB60F926A
:101A90002F933F934F935F936F937F938F939F9376
:101AA000AF93BF93EF93FF9382E193E00E947102A3
:101AB000FF91EF91BF91AF919F918F917F916F9126
:101AC0005F914F913F912F910F900BBE0F900FBEE2
:101AD0000F901F9018951F920F920FB60F9211241E
:101AE0000BB60F922F933F934F935F936F937F9318
:101AF0008F939F93AF93BF93EF93FF9382E193E014
:101B00000E945802FF91EF91BF91AF919F918F91E9
:101B10007F916F915F914F913F912F910F900BBEED
:101B20000F900FBE0F901F9018951F920F920FB637
:101B30000F9211240BB60F922F933F934F935F9305
:101B40006F937F938F939F93AF93BF93EF93FF9385
:101B50008FEA93E00E947102FF91EF91BF91AF91E4
:101B60009F918F917F916F915F914F913F912F91B5
:101B70000F900BBE0F900FBE0F901F9018951F92E5
:101B80000F920FB60F9211240BB60F922F933F9323
:101B90004F935F936F937F938F939F93AF93BF9375
:101BA000EF93FF938FEA93E00E945802FF91EF9129
:101BB000BF91AF919F918F917F916F915F914F9165
:101BC0003F912F910F900BBE0F900FBE0F901F9063
:101BD000189580914C0490914D046EC61092150397
:101BE0001092140348EE53E060E070E04093160357
:101BF00050931703609318037093190386E292E0E1
:101C000090931303809312032DEC30E030931F0365
:101C100020931E032CEC30E030932103209320030B
:101C200028EC30E0309323032093220329EC30E0AA
:101C300030932503209324032AEC30E030932703CC
:101C4000209326032EEC30E03093290320932803C1
:101C500010922B0310922C0310922D0310922E033E
:101C60001092B2031092B1034093B3035093B403A4
:101C70006093B5037093B6039093B0038093AF0362
:101C800085EC90E09093BC038093BB0384EC90E0E0
:101C90009093BE038093BD0380EC90E09093C003CB
:101CA0008093BF0381EC90E09093C2038093C103C3
:101CB00082EC90E09093C4038093C30386EC90E0A1
:101CC0009093C6038093C5031092C8031092C90372
:101CD0001092CA031092CB031092850410928404D0
:101CE00082E492E0909383048093820488E080935E
:101CF00086048FEF8093870489E0809388048AE0CC
:101D0000809389048BE080938A048CE080938B0419
:101D10008DE080938C0410928D0410928E041092AA
:101D20008F04109290041092910441E060E182E8E7
:101D300094E091DB88E392E09093730480937204C3
:101D400085E38093800485E08093810484E492E0BD
:101D500090935304809352041092540410925504AB
:101D6000109256041092570410925804109259047D
:101D700010925A0410925B0490935D0480935C046B
:101D800010925E0410925F0410926004109261043D
:101D9000109262041092630410926404109265041D
:101DA000909367048093660410926804109269040B
:101DB00010926A0410926B0410926C0410926D04DD
:101DC00010926E0410926F0483E492E09093710479
:101DD0008093700410924D0410924C0410924F04A2
:101DE00010924E0410925104109250046EE070E074
:101DF00080E090E0F9D5009799F090934D0480939E
:101E00004C042DE030E030934F0420934E04209199
:101E1000500430915104232BB9F4FC01108214C0FA
:101E200080914C0490914D04009709F045D5109293
:101E30004D0410924C0410925104109250041092D0
:101E40004F0410924E0408952DE030E03093510479
:101E5000209350046EEE72E0B8C6CF93DF93CDB7F7
:101E6000DEB769970FB6F894DEBF0FBECDBF78948A
:101E700084B5826084BD84B5816084BD85B582608F
:101E800085BD85B5816085BD80916E008160809340
:101E90006E001092810080918100826080938100A9
:101EA00080918100816080938100809180008160B9
:101EB000809380008091B10084608093B100809114
:101EC000B00081608093B000809191008260809327
:101ED00091008091910081608093910080919000A9
:101EE0008160809390008091A10082608093A10026
:101EF0008091A10081608093A1008091A000816009
:101F00008093A000809121018260809321018091C3
:101F10002101816080932101809120018160809363
:101F2000200180917A00846080937A0080917A0009
:101F3000826080937A0080917A00816080937A0039
:101F400080917A00806880937A001092C1008FEAB5
:101F500093E017D81FB7F89480919D04811123C096
:101F6000EBEAF1E08491E1EFF1E09491E82FF0E009
:101F7000EE0FFF1FE85DFE4FA591B491EC91E923B0
:101F800019F461E085E3C9D861E085E328DA8CB50E
:101F900080618CBD8CB580648CBD61E084E31FDA08
:101FA00061E083E31CDA80919D048F5F80939D0440
:101FB0001FBF61E08091800412DA61E080918004AB
:101FC000ACD8809181048F3F89F061E008DA80917C
:101FD00081047BD8892B51F461E0809181049DD8E4
:101FE00062E370E080E090E0C8DA12C04FE062E0A7
:101FF00082E794E00E949C0362E370E080E090E05E
:10200000BCDA62E082E794E00E94830384FDF9CFAA
:1020100040E064E282E794E00E949C0340E066E2D4
:1020200082E794E00E949C0346E268E482E794E041
:102030000E949C0340E864E582E794E00E949C03D0
:1020400049EA66E582E794E00E949C0343E068E584
:1020500082E794E00E949C0348EE6AE582E794E000
:102060000E949C0340E46AE282E794E00E949C03A1
:102070004DE362E282E794E00E949C0368E282E71B
:1020800094E00E948303982F9370933039F0482F87
:10209000436068E282E794E00E949C0383ED92E053
:1020A0000E94360880ED92E00E9436086EE682E7D4
:1020B00094E00E948303182F8BEB92E00E94360875
:1020C000412F50E060E070E020E18FEA93E092DC85
:1020D000103969F028F4183881F480EB92E00FC0D1
:1020E000113941F0123949F488E992E008C088EAD0
:1020F00092E005C080EA92E002C08BE892E00E9484
:10210000570811501E3F20F088E492E00E945708C3
:1021100061E086E364D961E086E161D961E088E14C
:102120005ED961E087E15BD960E080E358D960E087
:1021300081E355D962E08EE252D962E08FE24FD955
:1021400062E08CE24CD962E08DE249D90E943B0703
:1021500081EF95E0909353048093520480ED97E0D3
:10216000A0E0B0E08093540490935504A0935604EB
:10217000B09357043ADA60935804709359048093EB
:102180005A0490935B0486E292E090935D048093FE
:102190005C0482E390E0A0E0B0E080935E04909362
:1021A0005F04A0936004B09361041FDA609362043B
:1021B0007093630480936404909365048AE292E0D0
:1021C00090936704809366041092680410926904E7
:1021D00010926A0410926B0408DA60936C04709396
:1021E0006D0480936E0490936F0444E064E182E890
:1021F00094E031D961E086E10E948D0861E088E1D8
:102200000E948D0861E087E10E948D0862E082E013
:10221000E6D889E296E090930102809300028091D3
:102220006A008C7F826080936A00EC9A0E948A0622
:1022300082E193E00E94C10764EF71E080E090E0EA
:102240009CD96FEF72E082E193E0BFDB6CEF72E04C
:1022500082E193E0BADB80EA8093100240EA64E016
:1022600082E794E00E949C0310929A040E943B072C
:1022700099249394BAD91B012C0152E5652E54E0A0
:10228000752E812CD30116964D915D916D917C91A7
:10229000199712968D919D910D90BC91A02D00974C
:1022A000A105B105E1F172016101C41AD50AE60A7E
:1022B000F70A00E010E09801CA8ADB8AEC8AFD8AFE
:1022C0000E8B1F8B288F398F7C018D0120E030E031
:1022D000A9018B83FC820D831E832F833887498756
:1022E0005A8796014C895D8960E070E080E090E05B
:1022F00057016801E12CF12C00E010E03FD27CF0A6
:10230000E0917004F0917104882D1995D301ED913D
:10231000FC911995F3012682378240865186FAE0B6
:102320006F0E711C839443E0C42E8C10ABCF809150
:102330009A04882309F4CDC00E943B071092110231
:10234000909174042091750440919E04309176041C
:1023500060919F04709177048090A004E0917804CC
:102360005091A10480E0891781F0813039F050F05C
:10237000823031F0833039F45E2F05C0632F03C003
:10238000872E01C0422F8F5FEECF5093A104609340
:102390009F0440939E048092A00480E090E04F87C9
:1023A000588B698BB9D1898381E090E0B5D18A835C
:1023B000A980BA804F85588969890FEFA016B006A9
:1023C00009F47FC0CDB6DEB6C501880F991F880F0E
:1023D000991F2DB73EB7281B390B0FB6F8943EBF97
:1023E0000FBE2DBF6DB67EB634E0630E711C730157
:1023F000412C512C32E0232E312C4A145B04ECF595
:1024000000E010E09701215031093C832B832150DB
:1024100031093C872B87215031093E872D87C80120
:10242000820D931D4F87588B698B76D14F855889C4
:1024300069890230110561F00330110569F001303E
:10244000110519F0AD85BE8505C0EB85FC8505C07D
:10245000AB81BC818C9302C0F70180830F5F1F4F5B
:1024600004301105E1F6F4E02F0E311C0FEF401A95
:10247000500A14E0E10EF11CC0CF80E090E0E0E0F3
:10248000F0E08A159B05BCF4D30113977C9101966B
:1024900074130DC011967C91761309C011967C912E
:1024A000781105C0D3017C91751301C0FC01B4E023
:1024B0006B0E711CE6CF0FB6F894DEBE0FBECDBE1C
:1024C00002C0E0E0F0E0EF2B11F09092A204109235
:1024D0009A0480911302882309F474C080E30E9457
:1024E000650820919C04019739F4211102C0909253
:1024F000170290929C0405C021119092170210922D
:102500009C0481E30E94650820919B04019739F4A3
:10251000211102C09092170290929B0405C02111D4
:102520009092170210929B048EE20E9465082091FF
:102530001602892B39F4211102C090921702909251
:10254000160205C0211190921702109216028FE216
:102550000E94650820911502892B39F4211102C0CF
:10256000909217029092150205C0211190921702C5
:10257000109215028CE20E94650820911402892BAA
:1025800039F4211102C0909217029092140205C0F2
:10259000211190921702109214028DE20E94650898
:1025A00020911202892B39F4211102C09092170256
:1025B0009092120205C021119092170210921202FD
:1025C00010921302E0911A02F0911B023197E93048
:1025D000F10508F09EC08827E557FF4F8F4FC6C012
:1025E00080911602882381F080911502882361F082
:1025F00080911402882341F080919C04811104C0D1
:1026000080919B04882341F0E2E0F0E0F0931B020C
:10261000E0931A02909217028091A204882309F491
:1026200076C093E0C92ED12CD0921B02C0921A0220
:10263000909217021092A2046AC080911602882319
:1026400009F465C080911502882309F460C0809167
:102650001402882309F45BC080919C04811157C047
:1026600080919B04811153C081E090E090931B0204
:1026700080931A021092A2049092170248C080918F
:1026800018029091190285319105A1F484E1E82E98
:10269000F12CF0921902E092180208EE13E020E00B
:1026A00030E0009368041093690420936A04309327
:1026B0006B042DC0892B79F424E030E030931B02A9
:1026C00020931A029092170245E150E050931902AC
:1026D000409318021CC08091A2048823C1F081E0BD
:1026E00090E090931B0280931A029092170210922E
:1026F000A204109268041092690410926A04109265
:102700006B0465E170E070931902609318020E94F7
:102710008A060E94DF01AECDF999FECF92BD81BD40
:10272000F89A992780B50895A1E21A2EAA1BBB1B1F
:10273000FD010DC0AA1FBB1FEE1FFF1FA217B3078D
:10274000E407F50720F0A21BB30BE40BF50B661FA3
:10275000771F881F991F1A9469F760957095809567
:1027600090959B01AC01BD01CF010895EE0FFF1FB5
:10277000881F8BBF0790F691E02D19942A153B0511
:102780004C055D056E057F05800791070895CF9381
:10279000DF938230910510F482E090E0E091A6048E
:1027A000F091A70420E030E0C0E0D0E0309711F1D4
:1027B0004081518148175907C0F04817590761F403
:1027C00082819381209719F09B838A832BC09093F9
:1027D000A7048093A60426C02115310519F04217DD
:1027E000530718F49A01BE01DF01EF010280F38163
:1027F000E02DDCCF2115310509F1281B390B2430E0
:10280000310590F412968D919C9113976115710585
:1028100021F0FB019383828304C09093A7048093EB
:10282000A604FD01329644C0FD01E20FF31F81931F
:102830009193225031092D933C933AC02091A404E6
:102840003091A504232B41F420911E0230911F02E8
:102850003093A5042093A40420911C0230911D0202
:102860002115310541F42DB73EB74091200250911A
:102870002102241B350BE091A404F091A504E2177A
:10288000F307A0F42E1B3F0B2817390778F0AC0193
:102890004E5F5F4F2417350748F04E0F5F1F509370
:1028A000A5044093A4048193919302C0E0E0F0E07A
:1028B000CF01DF91CF9108950F931F93CF93DF93B3
:1028C000009709F48CC0FC013297138212820091A8
:1028D000A6041091A7040115110581F4208131810E
:1028E000820F931F2091A4043091A5042817390763
:1028F00079F5F093A504E093A40471C0D80140E0F9
:1029000050E0AE17BF0750F412962D913C911397EB
:10291000AD012115310509F1D901F3CF9D01DA018E
:102920003383228360817181860F971F82179307FB
:1029300069F4EC0128813981260F371F2E5F3F4F44
:10294000318320838A819B8193838283452B29F461
:10295000F093A704E093A60442C01396FC93EE9371
:102960001297ED01499159919E01240F351FE217ED
:10297000F30771F480819181840F951F029611965F
:102980009C938E938281938113969C938E9312973E
:10299000E0E0F0E0D80112968D919C91139700979A
:1029A00019F0F8018C01F6CF8D919C9198012E5F62
:1029B0003F4F820F931F2091A4043091A504281744
:1029C000390769F4309729F41092A7041092A604ED
:1029D00002C0138212821093A5040093A404DF9115
:1029E000CF911F910F9108956F927F928F929F9236
:1029F000AF92BF92CF92DF92EF92FF920F931F930D
:102A0000CF93DF93EC01009781F4CB01DF91CF915D
:102A10001F910F91FF90EF90DF90CF90BF90AF90FC
:102A20009F908F907F906F90B2CEFC01E60FF71FC2
:102A30009C0122503109E217F30708F4A8C0D9011C
:102A40000D911C91119706171707A8F00530110575
:102A500008F49BC0C80104978617970708F495C02F
:102A600002501109061B170B019311936D937C9370
:102A7000CF0122DF8AC05B01A01AB10A4C01800E8F
:102A8000911EA091A604B091A70440E050E0E12C73
:102A9000F12C109709F44AC0A815B905D1F56D902D
:102AA0007C901197630182E0C80ED11CCA14DB042C
:102AB00080F1A3014A195B096A0182E0C80ED11CAA
:102AC0001296BC9012971396AC91B5E0CB16D10438
:102AD00040F0B282A38351834083D9016D937C93EC
:102AE0000AC00E5F1F4FC301800F911FF901918330
:102AF0008083EB2DFA2FE114F10431F0D701139606
:102B0000FC93EE93129741C0F093A704E093A604C0
:102B10003CC08D919C9111974817590708F4AC015E
:102B20007D0112960D90BC91A02DB3CF8091A4048D
:102B30009091A50488159905E1F446175707C8F444
:102B400080911C0290911D02009741F48DB79EB7B1
:102B50004091200250912102841B950BE817F90740
:102B6000B0F4F093A504E093A404F90171836083A9
:102B70000CC0CB010CDE7C01009749F0A801BE011E
:102B80001BD0CE0199DEC70104C0CE0102C080E097
:102B900090E0DF91CF911F910F91FF90EF90DF9028
:102BA000CF90BF90AF909F908F907F906F9008953F
:102BB00081E090E0F89410C0FB01DC0102C00190BC
:102BC0000D9241505040D8F70895FB01DC0101906F
:102BD0000D920020E1F7089511E0CFE6D1E000E08A
:102BE00005C0802FFE01C2DD2196011DC037D1072F
:0A2BF00080E00807B1F7F894FFCF6A
:102BFA00010B010B010B010B010B010B010B010B6B
:102C0A007F01010101010101150002000000A80471
:102C1A008000000000009202020BA201D802D30138
:102C2A00B101C501000000006204BD0318020000E2
:102C3A0000007103020B150214025374616E2061C5
:102C4A006C61726D753A004E696520776C61637AC2
:102C5A006F6E79004E696520776C61637A6F6E7961
:102C6A002C20626C616400576C61637A616E6965DD
:102C7A002C20637A61733A20004D6F6E69746F720B
:102C8A006F77616E6965004D6F6E69746F726F77E9
:102C9A00616E69652C20425000416C61726D212180
:102CAA00210057796C61637A616E69652C20637AB9
:102CBA0061733A20004F4B313A005A20004F2000EE
:102CCA004F4B323A004F4B333A004352313A0031BC
:102CDA0020003020004352323A00445A3A005779D1
:102CEA006B7279746F206B61727465000D0A004112
:0A2CFA00542B434D47463D310000C6
:00000001FF
