:100000005FC10000F5C60000C8C600009BC6000026
:100010006EC6000041C6000014C60000E7C500001F
:10002000BAC500007EC100007CC100007AC100009A
:1000300078C1000076C1000074C1000072C10000E8
:1000400070C100006EC100006CC100006AC10000F8
:1000500068C1000066C1000064C1000052C5000014
:1000600060C10000C8C700009DC700005AC1000061
:1000700058C1000056C1000054C1000052C1000028
:1000800050C100004EC100004CC100004AC1000038
:1000900060C7000035C7000044C1000042C1000035
:1000A00040C100003EC100003CC100003AC1000058
:1000B00038C1000036C1000034C1000032C1000068
:1000C00030C100002EC100002CC100002AC1000078
:1000D00028C1000026C1000024C1000022C1000088
:1000E00020C10000AD01B0019F01A301A901E701FA
:1000F000B401B801BE01C201C601CC01D001D401D6
:10010000E701DA01DE01E2010000210024002700FE
:100110002A002D0030003300010100000401070116
:100120000A0100002200250028002B002E003100CB
:10013000340002010000050108010B01000020004D
:100140002300260029002C002F00320000010000AF
:10015000030106010901050505050705080808084A
:10016000020202020A0A080804040404010101014F
:10017000010101010303030303030303040707074A
:100180000C0C0C0C0C0C0C0C0202020206060606EF
:10019000060606060B0B0B0B0B0B0B0B01021020BC
:1001A00020080810204010204080020102010804AD
:1001B0000201010204081020408080402010080441
:1001C000020180040201804020100804020108049A
:1001D00002010102040810204080010204081020DE
:1001E000408000000A0B02090C0D0E0807030401F1
:1001F00000000000000000000000000000000000FF
:1002000000000000000000000000000000001211CB
:1002100010000000000000000000000000000000CE
:1002200000000000000000005741524E494E473A7E
:1002300020436F6D6D756E69636174696F6E2066C2
:1002400061696C7572652C20697320746865204D36
:100250004652433532322070726F7065726C79206D
:10026000636F6E6E65637465643F00203D20287582
:100270006E6B6E6F776E2900203D2076322E300037
:10028000203D2076312E3000203D2076302E30006B
:10029000203D2028636C6F6E6529004669726D777A
:1002A0006172652056657273696F6E3A203078000E
:1002B0003A2000526561646572200000FE0CC61190
:1002C00011241FBECFEFD1E2DEBFCDBF00E00CBFD7
:1002D00024E0A8E8B2E001C01D92AA31B207E1F71C
:1002E00012E0A0E0B2E0E8E7F8E200E00BBF02C0F5
:1002F00007900D92A838B107D9F711E0CFE5D1E00A
:1003000000E006C021970109802FFE010E94F5112F
:10031000CE35D10780E00807A9F70E942A0E0C9479
:100320002B146ECE90E0FC013197E231F10508F01C
:100330004EC08827EE58FF4F8F4F0C94F5118091D7
:1003400080008F7703C0809180008F7D8093800034
:10035000089580918000877FF9CF84B58F7702C0A0
:1003600084B58F7D84BD08958091B0008F7703C0E0
:100370008091B0008F7D8093B000089580919000AF
:100380008F7707C0809190008F7D03C0809190008F
:10039000877F8093900008958091A0008F7707C099
:1003A0008091A0008F7D03C08091A000877F809303
:1003B000A0000895809120018F7707C080912001CF
:1003C0008F7D03C080912001877F80932001089555
:1003D000843008F083E090910104891710F08FEFCA
:1003E000890FE82FF0E0E251FC4F648960688EEEDF
:1003F00093E0E3C7BC018EEE93E025C5CF92DF9278
:10040000EF92FF92CF93DF936C01990FEE08FF08F4
:10041000F7FE20C0E091EE03F091EF030190F08130
:10042000E02D6DE28EEE93E01995EC0144275527FF
:10043000BA014C195D096E097F092AE08EEE93E03E
:1004400017D58C0F9D1FDF91CF91FF90EF90DF901C
:10045000CF9008952AE0B701A6018EEE93E0DF91D8
:10046000CF91FF90EF90DF90CF9002C5FC01A08963
:10047000B18982E08C93A485B5851C92A685B78549
:1004800080E18C93108EA489B58986E08C93A28933
:10049000B3898C9180618C93A289B3898C91886097
:1004A0008C93A289B3898C9180688C930288F3899C
:1004B000E02D80818F7D808308950F931F93CF93CC
:1004C000DF938C01C0E0D0E0F801EC0FFD1F6491D8
:1004D000662371F0E0912503F09126030190F081ED
:1004E000E02D85E293E01995892B11F02196ECCF50
:1004F000CE01DF91CF911F910F910895CF93DF939C
:10050000DCDFEC016FE472E085E293E09CD48C0FB9
:100510009D1FDF91CF910895CF93DF93282F30E077
:10052000F901EE51FE4F8491F901E456FE4FD4914A
:10053000F901EA5AFE4FC491CC2389F08111F2DE11
:10054000EC2FF0E0EE0FFF1FE45CFE4FA591B4919D
:10055000EC91ED2381E090E021F480E002C080E0A6
:1005600090E0DF91CF9108951F93CF93DF93282FD1
:1005700030E0F901EE51FE4F8491F901E456FE4F4F
:10058000D491F901EA5AFE4FC491CC23C1F0162F41
:100590008111C8DEEC2FF0E0EE0FFF1FEE5DFE4F85
:1005A000A591B4918FB7F894111105C09C91ED2FCE
:1005B000E095E92302C0EC91ED2BEC938FBFDF9126
:1005C000CF911F910895CF92DF92EF92FF920F93F8
:1005D0001F93CF93DF931F921F92CDB7DEB78C018D
:1005E000F62E83E590E049835A83F1D660E0F80166
:1005F0008685BADF82E1E4D64981E42EC42E5A8191
:10060000D52E8C2D8E198F1528F4F60181916F014E
:10061000D7D6F7CF61E0F8018685A6DF0F900F905F
:10062000DF91CF911F910F91FF90EF90DF90CF90CE
:10063000C6C64F925F926F927F928F929F92AF92B7
:10064000BF92CF92DF92EF92FF920F931F93CF93BF
:10065000DF931F921F92CDB7DEB74C012B01D42E32
:100660003901E114F10419F0F701408101C040E0C3
:10067000B42EF0E1CF9EB00C112440E062E0C40142
:10068000C2D64FE768E0C401BED640E864E1C401C9
:10069000BAD6A2016D2DC40196DF4B2D6AE1C401CB
:1006A000B2D64CE062E0C401AED66AE1C40192D693
:1006B000482F40686AE1C401A6D680ED482E87E045
:1006C000582E68E0C40186D6982F907341F480FDBF
:1006D00004C081E0481A5108A1F783E094C06CE09F
:1006E000C40178D6D82E837109F08CC061147104CE
:1006F00009F44FC00115110509F44BC064E1C401B0
:1007000069D6B82EF80180818B1508F475C0B082C7
:10071000BB20A9F183E590E05AD660E0F40186851C
:1007200023DF82E94DD6CC2099F08FEF90E02C01A9
:1007300001C0440CCA94EAF782E942D6842140946D
:10074000F3019081492284298083CC24C39401C081
:10075000C12CBA944C2C512C460C571CCB1430F4A1
:1007600082E92ED6F2018083C394F4CF80E028D6AC
:10077000F201808361E0F4018685F6DE20D668E12F
:10078000C40128D68770E114F10421F0F7018083B9
:1007900001C080E0D3FC32C06114710489F10115FD
:1007A000110571F1AA2061F1F8014081413019F47D
:1007B000843019F41FC0423010F487E024C0811146
:1007C000FCCF42509E012F5F3F4FB301C4019ED624
:1007D000811119C0F8018081680E711CF3013297F4
:1007E000908189819813E9CF319690818A819813FD
:1007F000E4CF06C08FEF07C084E005C082E003C0ED
:1008000080E001C081E00F900F90DF91CF911F91A8
:100810000F91FF90EF90DF90CF90BF90AF909F909F
:100820008F907F906F905F904F900895CF93DF935C
:1008300090E0FC01E456FE4F2491FC01EA5AFE4F81
:100840008491882361F190E0880F991FFC01E85F93
:10085000FE4FC591D491FC01EE5DFE4FA591B49180
:10086000611109C09FB7F8948881209582238883FD
:10087000EC912E230BC0623061F49FB7F89438815D
:10088000822F809583238883EC912E2B2C939FBFFE
:1008900006C08FB7F894E8812E2B28838FBFDF9195
:1008A000CF910895EF92FF920F931F93CF93DF9311
:1008B000EC01423018F08F8588608F874B8B1C8A43
:1008C00080E48D8B6E8B70E0605C7F4F6F8B61E09E
:1008D0008C81ACDF8D818F3F11F061E0A7DF61E09B
:1008E0008E81A4DF7E0187E0E80EF11C00E010E0BD
:1008F0008F8584FD03C084E090E002C088E090E032
:100900000817190744F461E0F70181917F018EDF38
:100910000F5F1F4FEDCF8BE39DE00197F1F760E094
:100920008C8122DE60E08E811FDE8D818F3F11F091
:1009300060E01ADE6F8564FD19C063E0CE01C0D4AB
:100940000BE416E4C8010197F1F763E0CE01B8D4D7
:10095000C8010197F1F763E0CE01B2D483E592E0DC
:100960000197F1F762E0CE01ABD413C06062CE0113
:1009700024D58BE496E40197F1F76F856062CE0190
:100980001CD583E592E00197F1F76F856062CE0197
:1009900014D56F856062CE0110D584E0888B6CE041
:1009A000CE010BD561E0CE0108D58BE39FE1019725
:1009B000F1F782E0898B66E0CE01DF91CF911F9144
:1009C0000F91FF90EF90F9C48F929F92AF92BF92D8
:1009D000CF92DF92EF92FF926B017C016DD04B01C1
:1009E0005C01C114D104E104F104E9F065D0DC013B
:1009F000CB0188199909AA09BB09883E9340A10532
:100A0000B10578F321E0C21AD108E108F10888EEB7
:100A1000880E83E0981EA11CB11CC114D104E1040E
:100A2000F10421F7DECFFF90EF90DF90CF90BF90E1
:100A3000AF909F908F9008950895CF92DF92EF929C
:100A4000FF920F931F93CF93DF936C017A018B0179
:100A5000C0E0D0E0CE15DF0589F0D8016D918D01A1
:100A6000D601ED91FC910190F081E02DC601199520
:100A7000892B11F47E0102C02196ECCFC701DF91D2
:100A8000CF911F910F91FF90EF90DF90CF9008953D
:100A900088E892E00AD321E0892B09F420E0822F34
:100AA000089585E293E001D321E0892B09F420E049
:100AB000822F08950E9417143FB7F8948091120472
:100AC00090911304A0911404B091150426B5A89B2D
:100AD00005C02F3F19F00196A11DB11D3FBFBA2FD0
:100AE000A92F982F8827820F911DA11DB11DBC0130
:100AF000CD0142E0660F771F881F991F4A95D1F7F5
:100B000008951F920F920FB60F9211242F933F93C7
:100B10008F939F93AF93BF9380910E0490910F0496
:100B2000A0911004B091110430910D0423E0230F23
:100B30002D3720F40196A11DB11D05C026E8230F15
:100B40000296A11DB11D20930D0480930E04909375
:100B50000F04A0931004B09311048091120490919B
:100B60001304A0911404B09115040196A11DB11DA8
:100B70008093120490931304A0931404B09315046B
:100B8000BF91AF919F918F913F912F910F900FBE89
:100B90000F901F9018951F920F920FB60F9211246D
:100BA0000BB60F922F933F934F935F936F937F9367
:100BB0008F939F93AF93BF93EF93FF93E0910E02B8
:100BC000F0910F021995FF91EF91BF91AF919F9115
:100BD0008F917F916F915F914F913F912F910F90E6
:100BE0000BBE0F900FBE0F901F9018951F920F9283
:100BF0000FB60F9211240BB60F922F933F934F9382
:100C00005F936F937F938F939F93AF93BF93EF9374
:100C1000FF93E0910C02F0910D021995FF91EF9175
:100C2000BF91AF919F918F917F916F915F914F9104
:100C30003F912F910F900BBE0F900FBE0F901F9002
:100C400018951F920F920FB60F9211240BB60F92A8
:100C50002F933F934F935F936F937F938F939F93C4
:100C6000AF93BF93EF93FF93E0910202F0910302E1
:100C70001995FF91EF91BF91AF919F918F917F91C6
:100C80006F915F914F913F912F910F900BBE0F90FD
:100C90000FBE0F901F9018951F920F920FB60F92D4
:100CA00011240BB60F922F933F934F935F936F9343
:100CB0007F938F939F93AF93BF93EF93FF93E091B5
:100CC0000002F09101021995FF91EF91BF91AF9150
:100CD0009F918F917F916F915F914F913F912F9154
:100CE0000F900BBE0F900FBE0F901F9018951F9284
:100CF0000F920FB60F9211240BB60F922F933F93C2
:100D00004F935F936F937F938F939F93AF93BF9313
:100D1000EF93FF93E0910A02F0910B021995FF9176
:100D2000EF91BF91AF919F918F917F916F915F9163
:100D30004F913F912F910F900BBE0F900FBE0F90D0
:100D40001F9018951F920F920FB60F9211240BB699
:100D50000F922F933F934F935F936F937F938F9354
:100D60009F93AF93BF93EF93FF93E0910802F091AD
:100D700009021995FF91EF91BF91AF919F918F91CA
:100D80007F916F915F914F913F912F910F900BBE8B
:100D90000F900FBE0F901F9018951F920F920FB6D5
:100DA0000F9211240BB60F922F933F934F935F93A3
:100DB0006F937F938F939F93AF93BF93EF93FF9323
:100DC000E0910602F09107021995FF91EF91BF9112
:100DD000AF919F918F917F916F915F914F913F91D3
:100DE0002F910F900BBE0F900FBE0F901F90189574
:100DF0001F920F920FB60F9211240BB60F922F93E2
:100E00003F934F935F936F937F938F939F93AF9392
:100E1000BF93EF93FF93E0910402F09105021995BF
:100E2000FF91EF91BF91AF919F918F917F916F91C2
:100E30005F914F913F912F910F900BBE0F900FBE7E
:100E40000F901F9018956115710579F0FB010190C5
:100E50000020E9F73197AF01461B570BDC01ED91FC
:100E6000FC910280F381E02D199480E090E00895D8
:100E70004F925F926F927F92EF92FF920F931F9328
:100E8000CF93DF93CDB7DEB7A1970FB6F894DEBF4F
:100E90000FBECDBF7C01FA01CB0119A2223008F4AC
:100EA0002AE08E010F5D1F4F422E512C612C712CB8
:100EB000BF01A30192010E94D311F901CA0101509F
:100EC00011096A3014F4605D01C0695CD8016C934B
:100ED000232B242B252B61F7B801C701B4DFA19682
:100EE0000FB6F894DEBF0FBECDBFDF91CF911F913B
:100EF0000F91FF90EF907F906F905F904F900895CB
:100F00001F920F920FB60F9211240BB60F922F93D0
:100F10003F934F935F936F937F938F939F93AF9381
:100F2000BF93EF93FF9388E892E042D1FF91EF9156
:100F3000BF91AF919F918F917F916F915F914F91F1
:100F40003F912F910F900BBE0F900FBE0F901F90EF
:100F500018951F920F920FB60F9211240BB60F9295
:100F60002F933F934F935F936F937F938F939F93B1
:100F7000AF93BF93EF93FF9388E892E000D1FF9186
:100F8000EF91BF91AF919F918F917F916F915F9101
:100F90004F913F912F910F900BBE0F900FBE0F906E
:100FA0001F9018951F920F920FB60F9211240BB637
:100FB0000F922F933F934F935F936F937F938F93F2
:100FC0009F93AF93BF93EF93FF9385E293E0F0D0AD
:100FD000FF91EF91BF91AF919F918F917F916F9111
:100FE0005F914F913F912F910F900BBE0F900FBECD
:100FF0000F901F9018951F920F920FB60F92112409
:101000000BB60F922F933F934F935F936F937F9302
:101010008F939F93AF93BF93EF93FF9385E293E0FA
:10102000AED0FF91EF91BF91AF919F918F917F9142
:101030006F915F914F913F912F910F900BBE0F9049
:101040000FBE0F901F901895FC01538D448D252FD6
:1010500030E0842F90E0821B930B541710F0CF9652
:10106000089501970895FC01918D828D981761F084
:10107000828DDF01A80FB11D5D968C91928D9F5FCF
:101080009F73928F90E008958FEF9FEF0895FC017A
:10109000918D828D981731F0828DE80FF11D858D2D
:1010A00090E008958FEF9FEF0895FC01918D228DC0
:1010B000892F90E0805C9F4F821B91098F73992745
:1010C000089580E090E0892B19F0EBDC811120C0BD
:1010D00080E090E0892B19F0DBDC81111CC080E0FE
:1010E00090E0892B41F080E090E0892B21F00E9474
:1010F0000000811113C080E090E0892BA1F080E016
:1011000090E0892B81F00E94000081110AC00895AF
:101110000E940000DDCF0E940000E1CF0E9400008D
:10112000EACF0C9400000895089580E090E00895BF
:10113000DC01ED91FD91BD010190F081E02D40E0D9
:10114000199591E0811190E0892F089581E08093B5
:101150001202089508950895CF93DF93EC0160E0A3
:101160008E8102DA61E08E81FFD960E08E81FCD948
:101170008BE891E00197F1F7DF91CF910895FC01A1
:10118000A089B1898C91A689B78982FD0FC09C91F5
:10119000818D8F5F8F73228D821749F0218DDF0142
:1011A000A20FB11D5D969C93818F08958C91089537
:1011B000FC01848DDF01A80FB11DA35ABF4F2C91F4
:1011C000848D90E001968F739927848FA689B789C3
:1011D0002C93A089B1898C9180648C93938D848D9C
:1011E000981306C00288F389E02D80818F7D80836B
:1011F0000895EF92FF920F931F93CF93DF93EC012B
:1012000081E0888F9B8D8C8D981305C0E889F989C2
:10121000808185FD23C0F62E0B8D10E00F5F1F4FE0
:101220000F731127E02E8C8DE8120BC00FB607FC50
:10123000FACFE889F989808185FFF5CFCE01B8DF43
:10124000F2CF8B8DFE01E80FF11DE35AFF4FF082C4
:101250000B8FEA89FB898081806207C0EE89FF8954
:101260006083E889F98980818064808381E090E0EF
:10127000DF91CF911F910F91FF90EF900895CF9341
:10128000DF93EC01888D8823C1F0EA89FB89808196
:1012900085FD05C0A889B9898C9186FD0EC00FB661
:1012A00007FCF5CF808185FFF2CFA889B9898C91A1
:1012B00085FFEDCFCE017CDFE8CFDF91CF910895A0
:1012C000CF92DF92EF92FF920F931F93CF93DF9312
:1012D0007C016C0187E0C80ED11CC0E0D0E0062F75
:1012E00010E0B8010C2E02C0759567950A94E2F7DC
:1012F0006170F60181916F0137D92196C430D10513
:1013000081F7C701DF91CF911F910F91FF90EF906F
:10131000DF90CF9021CFCF92DF92EF92FF920F9389
:101320001F93CF93DF93EC01F62E642F8C811CD991
:101330008D818F3F11F060E017D98F850F2D10E060
:1013400084FF23C06E0187E0C80ED11CE12CF12C74
:10135000B8010E2C02C0759567950A94E2F761708A
:10136000F60181916F0100D9FFEFEF1AFF0A88E0C3
:10137000E816F10469F7CE01DF91CF911F910F912B
:10138000FF90EF90DF90CF90E7CEB80184E07595A5
:1013900067958A95E1F7CE0193DF6F2DCE01DF913E
:1013A000CF911F910F91FF90EF90DF90CF9088CF5A
:1013B00041E0B1DF81E090E0089540E0ACCF0895D6
:1013C0008EBD00000DB407FEFDCF8EB508958CBD17
:1013D0009DBD08951F93CF93DF93EC01162F83E5F6
:1013E00090E0F5DF60E08E85BFD8812F8068E8DF70
:1013F00080E0E6DF182F61E08E85B6D8812FDF917F
:10140000CF911F910895EF92FF921F93CF93DF9397
:101410001F92CDB7DEB77C01162F83E590E049839C
:10142000D6DF60E0F70186859FD8812FC9DF49812B
:10143000842FC6DF61E0F70186850F90DF91CF91A1
:101440001F91FF90EF9090C88F929F92AF92CF9292
:10145000EF92FF920F931F93CF93DF9300D01F92D1
:101460001F92CDB7DEB74C0182E08D8340E064E28D
:10147000C401C9DF40E066E2C401C5DF46E268E4BA
:10148000C401C1DF86E28C838D81823028F16CE15A
:10149000C401A0DF482F4F776CE1C401B4DF87E0BF
:1014A0008B83A12CC12CCE0103967C018E010B5F96
:1014B0001F4F9E012F5F3F4F41E0BE016C5F7F4F8A
:1014C000C401B7D881110BC08D81823039F481E01D
:1014D0009B81911104C008C084E001C081E091E0CB
:1014E000823019F090E001C091E0892F0F900F90A9
:1014F0000F900F900F90DF91CF911F910F91FF9060
:10150000EF90CF90AF909F908F900895CF92DF9201
:10151000EF92FF920F931F93CF93DF93EC016B0138
:10152000142F790140E062E06EDF44E06AE0CE0112
:101530006ADF40E864E1CE0166DFA601612FCE01DB
:1015400042D843E062E0CE015EDF08E813E16AE0E2
:10155000CE0140DF82FF10C040E062E0CE0153DFE9
:1015600064E4CE0137DFF701808362E4CE0132DF2D
:10157000F701818380E004C00150110941F783E045
:10158000DF91CF911F910F91FF90EF90DF90CF905F
:1015900008952F923F924F925F926F927F928F9217
:1015A0009F92AF92BF92CF92DF92EF92FF920F93F2
:1015B0001F93CF93DF93CDB7DEB72D970FB6F89477
:1015C000DEBF0FBECDBF413508F00BC1342E3B014D
:1015D0004C016CE1FFDE482F4F776CE1C40113DF53
:1015E000BB24B39422E0B21691F033E0B316E1F0DD
:1015F00041E0B412FAC083E989833320D1F081E05D
:10160000F3019081953008F480E0D12C17C085E972
:101610008983332081F081E0F3019081983008F4D0
:1016200080E053E0D52E0AC087E9898346E0D42EB6
:1016300004C0D12C02C033E0D32E80E0532DF8EF4C
:10164000DF9E500D112457FD50E0882321F098E8CB
:101650009B8343E001C042E021E0952F977009F49D
:1016600020E0952F959595959595290F21F4882340
:1016700011F1585F20C0811102C094E001C093E0D5
:10168000291708F4922F20E030E06D2D70E0E42F50
:10169000E20FA1E0B0E0AC0FBD1FAE0FB11DF9012C
:1016A000E60FF71FE60DF71DE181EC932F5F3F4F2B
:1016B000291768F3DCCF23E0222E5032F4F020E724
:1016C0002A839C818B8189279D8189279E818927F7
:1016D0008F839E01285F3F4F47E0BE016F5F7F4FC2
:1016E000C4015D8713DF5D858111CAC01B862A8610
:1016F000CE0107962C0179E01EC0952F97709B872D
:10170000252F25952595259582E0820F392FE0E13B
:101710008E9F300D11243A8371E0911101C070E069
:10172000780F44244394512C4C0E5D1E480E511CDE
:1017300087E0821B8A87CB844C2D4295407F4C0DDD
:101740006AE1C4015D877C875EDEA12C9E01255F76
:101750003F4F79018E01065F1F4F92017C85472F15
:10176000BE016F5F7F4FC4010E9419035D85823007
:1017700091F56CE1C4012EDE5D8585FD34C08F716D
:1017800009F480E2282F30E0452F550F550B421702
:1017900053075CF5582FC901019787709927259544
:1017A0002595259531E0320F21E0009709F420E0DE
:1017B000230FE1E0F0E0EC0FFD1FE20FF11D21E04F
:1017C00030E002C0220F331F8A95E2F7C9019081F1
:1017D000892B808372CF811153C0503244F450E280
:1017E0006ECF86E04DC082E04BC085E049C08B8162
:1017F000883809F042C033E023E080E090E06D2DAE
:1018000070E0FC01E60FF71FE60DF71D432F480FB0
:10181000A1E0B0E0AC0FBD1FA40FB11D4C914183FE
:101820000196821770F38A85833019F58B858111B3
:1018300020C09E012D5F3F4F41E0B201C40166DE32
:1018400081111EC09B81F2018181981314C09C817B
:101850008281981310C0808182FF02C0B394C2CEEF
:10186000F30183878B2D880FB80EB394B08280E08C
:1018700007C081E005C087E003C032E024E0BDCFAF
:101880002D960FB6F894DEBF0FBECDBFDF91CF917E
:101890001F910F91FF90EF90DF90CF90BF90AF908E
:1018A0009F908F907F906F905F904F903F902F9080
:1018B0000895CF93DF93CDB7DEB760970FB6F89456
:1018C000DEBF0FBECDBF81E0809311028FE292E0B8
:1018D0009A8389838CE0E0EEF3E0DE0113960190B9
:1018E0000D928A95E1F7EEEDF3E086858F87878587
:1018F000888B46E262E1CE01019685DD4CE062E034
:10190000CE01019680DD47E86AE1CE0101967BDDDC
:1019100060960FB6F894DEBF0FBECDBFDF91CF91BA
:101920000895AF92CF92EF92FF920F931F93CF93B0
:10193000DF93CDB7DEB760970FB6F894DEBF0FBE6A
:10194000CDBF80911102882329F081E080930604A5
:10195000109211028FE292E09A8389838CE0E0EE8C
:10196000F3E0DE01139601900D928A95E1F78091E4
:10197000EC038F878091ED03888B4FE768E0CE0101
:10198000019641DD80E589831A829E012D5F3F4FDC
:1019900042E0BE016F5F7F4F8EED93E0B7DD8111B6
:1019A00010C0A12CC12CE12CF12C00E010E020E0B3
:1019B00030E044E0BE016F5F7F4F8EED93E00E9408
:1019C000190360960FB6F894DEBF0FBECDBFDF914E
:1019D000CF911F910F91FF90EF90CF90AF9008950E
:1019E00061E086E30E94B40262E370E080E090E090
:1019F0000E94E40460E086E30C94B40210928B022F
:101A000010928A0248EE53E060E070E040938C024E
:101A100050938D0260938E0270938F028DE192E05D
:101A200090938902809388022DEC30E030939502E8
:101A3000209394022CEC30E030939702209396028E
:101A400028EC30E0309399022093980229EC30E0A2
:101A500030939B0220939A022AEC30E030939D024F
:101A600020939C022EEC30E030939F0220939E0244
:101A70001092A1021092A2021092A3021092A4024C
:101A800010922803109227034093290350932A03AE
:101A900060932B0370932C0390932603809325036C
:101AA00085EC90E0909332038093310384EC90E0D6
:101AB000909334038093330380EC90E0909336034B
:101AC0008093350381EC90E0909338038093370343
:101AD00082EC90E090933A038093390386EC90E097
:101AE00090933C0380933B0310923E0310923F037C
:101AF00010924003109241031092F1031092F003F0
:101B000089E392E09093EF038093EE0388E0809363
:101B1000F2038FEF8093F30389E08093F4038AE06C
:101B20008093F5038BE08093F6038CE08093F703BA
:101B30008DE08093F8031092F9031092FA0310924B
:101B4000FB031092FC031092FD0341E060E18EEE76
:101B500093E00E9452048FE292E09093DF0380931F
:101B6000DE0385E38093EC0385E08093ED038BEA4D
:101B700098E09093C9038093C8031092CA0310920F
:101B8000CB031092CC031092CD031092CE0310928F
:101B9000CF031092D0031092D1039093D30380937C
:101BA000D2031092D4031092D5031092D603109250
:101BB000D7031092D8031092D9031092DA0310922F
:101BC000DB038AEA98E09093DD038093DC031092B4
:101BD000C3031092C2031092C5031092C403109263
:101BE000C7031092C6036EE070E080E090E03BD542
:101BF000009799F09093C3038093C2032DE030E0E7
:101C00003093C5032093C4032091C6033091C703CA
:101C1000232BB9F4FC01108214C08091C20390916F
:101C2000C303009709F087D41092C3031092C20334
:101C30001092C7031092C6031092C5031092C403FA
:101C400008952DE030E03093C7032093C60361E48C
:101C500072E0FAC5CF93DF93CDB7DEB760970FB6CA
:101C6000F894DEBF0FBECDBF789484B5826084BD8A
:101C700084B5816084BD85B5826085BD85B5816090
:101C800085BD80916E00816080936E00109281000E
:101C900080918100826080938100809181008160C9
:101CA000809381008091800081608093800080918A
:101CB000B10084608093B1008091B0008160809316
:101CC000B00080919100826080939100809191009A
:101CD000816080939100809190008160809390005A
:101CE0008091A10082608093A1008091A100816019
:101CF0008093A1008091A00081608093A0008091DA
:101D00002101826080932101809121018160809373
:101D100021018091200181608093200180917A00CF
:101D2000846080937A0080917A00826080937A0048
:101D300080917A00816080937A0080917A00806837
:101D400080937A001092C10085E293E00E943602EF
:101D50001FB7F89480910704811127C0EBE8F1E0E8
:101D60008491E1EDF1E09491E82FF0E0EE0FFF1F98
:101D7000E85FFE4FA591B491EC91E92321F461E075
:101D800085E30E94B40261E085E30E9416048CB5ED
:101D900080618CBD8CB580648CBD61E084E30E9461
:101DA000160461E083E30E941604809107048F5FAC
:101DB000809307041FBF61E08091EC030E9416042A
:101DC00061E08091EC030E94B4028091ED038F3FAB
:101DD000A9F061E00E9416048091ED030E948C023C
:101DE000892B61F461E08091ED030E94B40262E30B
:101DF00070E080E090E00E94E40411C04FE062E0F7
:101E00008EED93E000DB62E370E080E090E00E9402
:101E1000E40462E08EED93E0DDDA84FDFACF40E089
:101E200064E28EED93E0EFDA40E066E28EED93E05F
:101E3000EADA46E268E48EED93E0E5DA40E864E54C
:101E40008EED93E0E0DA49EA66E58EED93E0DBDAC9
:101E500043E068E58EED93E0D6DA48EE6AE58EED74
:101E600093E0D1DA40E46AE28EED93E0CCDA4DE320
:101E700062E28EED93E0C7DA68E28EED93E0AADAD3
:101E8000982F9370933031F0482F436068E28EEDC5
:101E900093E0B9DA83EB92E00E945D0280EB92E07E
:101EA0000E945D026EE68EED93E094DA182F8BE9C6
:101EB00092E00E945D02412F50E060E070E020E17E
:101EC00085E293E00E943807103969F028F4183849
:101ED00081F480E992E00FC0113941F0123949F4E0
:101EE00088E792E008C088E892E005C080E892E0C8
:101EF00002C08BE692E00E947E0211501E3F20F04D
:101F000088E292E00E947E0261E086E30E9416046D
:101F100061E086E10E94160461E088E10E941604F7
:101F200061E087E10E94160460E080E30E941604ED
:101F300057DD89E59CE09093C9038093C80380ED49
:101F400097E0A0E0B0E08093CA039093CB03A09306
:101F5000CC03B093CD032FB7F89480910E049091E9
:101F60000F04A0911004B09111042FBF8093CE03F1
:101F70009093CF03A093D003B093D10386EA98E067
:101F80009093D3038093D20382E390E0A0E0B0E08B
:101F90008093D4039093D503A093D603B093D70333
:101FA0002FB7F89480910E0490910F04A091100423
:101FB000B09111042FBF8093D8039093D903A093BD
:101FC000DA03B093DB0344E064E18EEE93E00E9419
:101FD000520461E086E10E94B40261E088E10E945F
:101FE000B40261E087E10E94B40262E082E00E94F4
:101FF000160461E08EEE93E0E0D98BE39FE1019758
:10200000F1F780E00E94E80182E592E00E94FA0187
:1020100081E00E94E8018FE592E00E94FA0182E0EF
:102020000E94E8018CE692E00E94FA0181E792E0CA
:102030000E94FA0184E792E00E94FA0181E792E0AF
:102040000E94FA0189E792E00E94FA0181E792E09A
:102050000E94FA0188E892E00E94360264EF71E083
:1020600080E090E00E94E4046EE772E088E892E08D
:102070000E9423076FE472E088E892E00E94230741
:1020800080EA8093100240EA64E08EED93E0BBD9D1
:102090001092060481E99CE0909301028093000273
:1020A00080916A008C7F826080936A00EC9A109223
:1020B00006048FB7F89420900E0430900F044090DF
:1020C0001004509011048FBF48EC842E43E0942EEE
:1020D000712CD40116964D915D916D917C9119975B
:1020E00012960D911D912D913C9115970B831C8398
:1020F0002D833E83012B022B032BC1F19201810121
:10210000041B150B260B370B580169014B815C81B1
:102110006D817E819A01AB0160E070E0CB012B8381
:102120003C834D835E836F83788789879A87950187
:10213000A60160E070E080E090E0AB80BC80CD80E4
:10214000DE80E12CF12C00E010E057D17CF0E09132
:10215000DC03F091DD03872D1995D401ED91FC91FD
:102160001995F4012682378240865186FAE08F0E57
:10217000911C01E0701619F077247394AACF809116
:102180000604882309F4D0C08EED93E00E949808DD
:1021900027DC109211029091E0032091E1036091FD
:1021A00009043091E20370910A04E091E303809006
:1021B0000B04F091E40390900C0480E0891781F007
:1021C000813039F050F0823031F0833039F49F2E75
:1021D00005C0732F03C08E2E01C0622F8F5FEECF1C
:1021E00070930A046093090480920B0490920C048B
:1021F00080E090E06F87788BCED0898381E090E09B
:10220000CAD08A83A980BA806F8578891FEFA1160A
:10221000B10609F480C0CDB6DEB6C501880F991F9E
:10222000880F991F2DB73EB7281B390B0FB6F894AE
:102230003EBF0FBE2DBF2DB63EB634E0230E311C7F
:102240007101612C712C32E0432E512C6A147B04F5
:10225000E4F500E010E0A701415051095C834B8395
:102260009701225031093C872B87425051095E87E4
:102270004D87C801840D951D6F87788B8CD06F8535
:1022800078890230110561F00330110569F00130E1
:10229000110519F0AD85BE8505C0EB85FC8505C02F
:1022A000AB81BC818C9302C0F70180830F5F1F4F0D
:1022B00004301105F1F6F4E04F0E511C0FEF601AD7
:1022C000700A14E0E10EF11CC1CF80E090E0E0E084
:1022D000F0E08A159B05CCF4D1011397AC910196DF
:1022E000A6130FC0D1011297AC91A7130AC0D10158
:1022F0001197AC91A81105C0D1012C91291101C0F1
:10230000FC01B4E02B0E311CE4CF0FB6F894DEBE16
:102310000FBECDBE02C0E0E0F0E0EF2B19F0E1E02F
:10232000E09308041092060480E30E948C02019757
:1023300011F460E001C061E086E10E94B40264E64D
:1023400070E080E090E00E94E40488E892E00E945F
:102350005508892B49F088E892E00E943308682FDD
:1023600085E293E00E94F90885E293E00E94550817
:10237000892B49F085E293E00E943308682F88E8B2
:1023800092E00E94F9080E94610893CE8091C203F6
:102390009091C303D0C0F999FECF92BD81BDF89A48
:1023A000992780B50895A1E21A2EAA1BBB1BFD0137
:1023B0000DC0AA1FBB1FEE1FFF1FA217B307E40724
:1023C000F50720F0A21BB30BE40BF50B661F771F7C
:1023D000881F991F1A9469F760957095809590955C
:1023E0009B01AC01BD01CF010895EE0FFF1F881FB7
:1023F0008BBF0790F691E02D19942A153B054C05EB
:102400005D056E057F05800791070895CF93DF93E3
:102410008230910510F482E090E0E0911804F09190
:10242000190420E030E0C0E0D0E0309711F14081A5
:10243000518148175907C0F04817590761F4828144
:102440009381209719F09B838A832BC09093190462
:102450008093180426C02115310519F0421753073F
:1024600018F49A01BE01DF01EF010280F381E02D33
:10247000DCCF2115310509F1281B390B243031053A
:1024800090F412968D919C9113976115710521F02E
:10249000FB019383828304C09093190480931804F2
:1024A000FD01329644C0FD01E20FF31F8193919329
:1024B000225031092D933C933AC02091160430915B
:1024C0001704232B41F4209115023091160230930A
:1024D0001704209316042091130230911402211541
:1024E000310541F42DB73EB74091170250911802C3
:1024F000241B350BE0911604F0911704E217F30743
:10250000A0F42E1B3F0B2817390778F0AC014E5F63
:102510005F4F2417350748F04E0F5F1F5093170485
:10252000409316048193919302C0E0E0F0E0CF0164
:10253000DF91CF9108950F931F93CF93DF9300976F
:1025400009F48CC0FC0132971382128200911804A6
:10255000109119040115110581F420813181820F38
:10256000931F20911604309117042817390779F525
:10257000F0931704E093160471C0D80140E050E0D6
:10258000AE17BF0750F412962D913C911397AD01F1
:102590002115310509F1D901F3CF9D01DA0133830A
:1025A000228360817181860F971F8217930769F4D8
:1025B000EC0128813981260F371F2E5F3F4F318371
:1025C00020838A819B8193838283452B29F4F09316
:1025D0001904E093180442C01396FC93EE931297EB
:1025E000ED01499159919E01240F351FE217F30720
:1025F00071F480819181840F951F029611969C93AE
:102600008E938281938113969C938E931297E0E030
:10261000F0E0D80112968D919C911397009719F0D4
:10262000F8018C01F6CF8D919C9198012E5F3F4F60
:10263000820F931F20911604309117042817390731
:1026400069F4309729F4109219041092180402C00A
:10265000138212821093170400931604DF91CF9116
:102660001F910F9108956F927F928F929F92AF92D8
:10267000BF92CF92DF92EF92FF920F931F93CF936F
:10268000DF93EC01009781F4CB01DF91CF911F9193
:102690000F91FF90EF90DF90CF90BF90AF909F9001
:1026A0008F907F906F90B2CEFC01E60FF71F9C01D8
:1026B00022503109E217F30708F4A8C0D9010D919F
:1026C0001C91119706171707A8F00530110508F49B
:1026D0009BC0C80104978617970708F495C002505D
:1026E0001109061B170B019311936D937C93CF0176
:1026F00022DF8AC05B01A01AB10A4C01800E911E34
:10270000A0911804B091190440E050E0E12CF12CA4
:10271000109709F44AC0A815B905D1F56D907C90C1
:102720001197630182E0C80ED11CCA14DB0480F14A
:10273000A3014A195B096A0182E0C80ED11C1296F6
:10274000BC9012971396AC91B5E0CB16D10440F033
:10275000B282A38351834083D9016D937C930AC0D5
:102760000E5F1F4FC301800F911FF901918380837A
:10277000EB2DFA2FE114F10431F0D7011396FC93FD
:10278000EE93129741C0F0931904E09318043CC0F3
:102790008D919C9111974817590708F4AC017D0160
:1027A00012960D90BC91A02DB3CF809116049091FC
:1027B000170488159905E1F446175707C8F4809166
:1027C000130290911402009741F48DB79EB7409187
:1027D000170250911802841B950BE817F907B0F403
:1027E000F0931704E0931604F901718360830CC021
:1027F000CB010CDE7C01009749F0A801BE011BD083
:10280000CE0199DEC70104C0CE0102C080E090E095
:10281000DF91CF911F910F91FF90EF90DF90CF90BC
:10282000BF90AF909F908F907F906F90089581E0C0
:1028300090E0F89410C0FB01DC0102C001900D9201
:1028400041505040D8F70895FB01DC0101900D92F2
:102850000020E1F7089511E0CFE5D1E000E005C0E8
:10286000802FFE01C2DD2196011DC036D10780E018
:082870000807B1F7F894FFCF4F
:102878001C051C051C051C051C051C051C051C0548
:102888007F010100001A04800000000000F9081D03
:102898000524083F0955083308470800000000C907
:1028A8000A240A980800000000D8091D0595089414
:1028B8000857796B7279746F206B61727465000DBB
:1028C8000A005374616E20616C61726D753A004E36
:1028D800696520776C61637A6F6E79004F4B313A86
:1028E800005A20004F4B323A004F4B333A004154C4
:0828F8002B434D47463D310022
:00000001FF
