:100000006FC100000C94B90C0C948E0C0C94630C12
:100010000C94380C0C940D0C0C94E20B0C94B70B54
:100020000C948C0B8EC100008CC100008AC10000B2
:1000300088C1000086C1000084C1000082C10000A8
:1000400080C100007EC100007CC100007AC10000B8
:1000500078C1000076C1000074C100000C94420B0E
:1000600070C1000025C200000C94940D6AC100000C
:1000700068C1000066C1000064C1000062C10000E8
:1000800060C100005EC100005CC100005AC10000F8
:100090000C946A0D0C94400D54C1000052C1000034
:1000A00050C100004EC100004CC100004AC1000018
:1000B00048C1000046C1000044C1000042C1000028
:1000C00040C100003EC100003CC100003AC1000038
:1000D00038C1000036C1000034C1000032C1000048
:1000E00030C10000B506BD06C606CE06D606DE0641
:1000F000E6066C076F075E0762076807A6077307C7
:1001000077077D07810785078B078F079307A6076A
:1001100099079D07A107C612F0120E130E130E13B6
:100120000E130E130E130E130000210024002700DF
:100130002A002D00300033000101000004010701F6
:100140000A0100002200250028002B002E003100AB
:10015000340002010000050108010B01000020002D
:100160002300260029002C002F003200000100008F
:10017000030106010901050505050705080808082A
:10018000020202020A0A080804040404010101012F
:10019000010101010303030303030303040707072A
:1001A0000C0C0C0C0C0C0C0C0202020206060606CF
:1001B000060606060B0B0B0B0B0B0B0B010210209C
:1001C000200808102040102040800201020108048D
:1001D0000201010204081020408080402010080421
:1001E000020180040201804020100804020108047A
:1001F00002010102040810204080010204081020BE
:10020000408000000A0B02090C0D0E0807030401D0
:1002100000000000000000000000000000000000DE
:1002200000000000000000000000000000001211AB
:1002300010000000000000000000000000000000AE
:1002400000000000000000005741524E494E473A5E
:1002500020436F6D6D756E69636174696F6E2066A2
:1002600061696C7572652C20697320746865204D16
:100270004652433532322070726F7065726C79204D
:10028000636F6E6E65637465643F00203D20287562
:100290006E6B6E6F776E2900203D2076322E300017
:1002A000203D2076312E3000203D2076302E30004B
:1002B000203D2028636C6F6E6529004669726D775A
:1002C0006172652056657273696F6E3A20307800EE
:1002D0003A2000526561646572200000C30DBE0DB6
:1002E00011241FBECFEFD1E2DEBFCDBF00E00CBFB7
:1002F00024E0A8E0B3E001C01D92A63AB207E1F7FE
:1003000013E0A0E0B2E0E8E0FBE200E00BBF02C0D7
:1003100007900D92A830B107D9F711E0CFE6D1E0F0
:1003200000E006C021970109802FFE010E943D13C5
:10033000CE36D10780E00807A9F70E94020F0C947F
:1003400073155ECEFC01538D448D252F30E0842F34
:1003500090E0821B930B541710F0CF9608950197ED
:100360000895FC01918D828D981761F0828DDF01D7
:10037000A80FB11D5D968C91928D9F5F9F73928F98
:1003800090E008958FEF9FEF0895FC01918D828D8D
:10039000981731F0828DE80FF11D858D90E008955A
:1003A0008FEF9FEF0895FC01918D228D892F90E0B2
:1003B000805C9F4F821B91098F739927089580E07D
:1003C00090E0892B21F00E94130B811121C080E065
:1003D00090E0892B21F00E94090B81111CC080E064
:1003E00090E0892B41F080E090E0892B21F00E9481
:1003F0000000811113C080E090E0892BA1F080E023
:1004000090E0892B81F00E94000081110AC00895BC
:100410000E940000DCCF0E940000E1CF0E9400009B
:10042000EACF0C9400000895089580E090E00895CC
:10043000DC01ED91FD91BD010190F081E02D40E0E6
:10044000199591E0811190E0892F089581E08093C2
:100450001302089508950895CF93DF93EC0160E0AF
:100460008E8141D661E08E813ED660E08E813BD6A2
:100470008BE891E00197F1F7DF91CF910895FC01AE
:10048000A089B1898C91A689B78982FD0FC09C9102
:10049000818D8F5F8F73228D821749F0218DDF014F
:1004A000A20FB11D5D969C93818F08958C91089544
:1004B0001F920F920FB60F9211240BB60F922F932B
:1004C0003F934F935F936F937F938F939F93AF93DC
:1004D000BF93EF93FF9385EA93E0D1DFFF91EF9114
:1004E000BF91AF919F918F917F916F915F914F914C
:1004F0003F912F910F900BBE0F900FBE0F901F904A
:100500001895FC01848DDF01A80FB11DA35ABF4FC0
:100510002C91848D90E001968F739927848FA68902
:10052000B7892C93A089B1898C9180648C93938D29
:10053000848D981306C00288F389E02D80818F7D19
:1005400080830895EF92FF920F931F93CF93DF93D1
:10055000EC0181E0888F9B8D8C8D981305C0E88914
:10056000F989808185FD23C0F62E0B8D10E00F5F89
:100570001F4F0F731127E02E8C8DE8120BC00FB6A2
:1005800007FCFACFE889F989808185FFF5CFCE0194
:10059000B8DFF2CF8B8DFE01E80FF11DE35AFF4F5C
:1005A000F0820B8FEA89FB898081806207C0EE8927
:1005B000FF896083E889F98980818064808381E094
:1005C00090E0DF91CF911F910F91FF90EF900895F0
:1005D000CF93DF93EC01888D8823C1F0EA89FB89F2
:1005E000808185FD05C0A889B9898C9186FD0EC0E2
:1005F0000FB607FCF5CF808185FFF2CFA889B989B6
:100600008C9185FFEDCFCE017CDFE8CFDF91CF91DC
:100610000895CF92DF92EF92FF920F931F93CF93A3
:10062000DF937C016C0187E0C80ED11CC0E0D0E0F4
:10063000062F10E0B8010C2E02C0759567950A943C
:10064000E2F76170F60181916F014DD52196C430BA
:10065000D10581F7C701DF91CF911F910F91FF90D5
:10066000EF90DF90CF90F8CECF92DF92EF92FF9293
:100670000F931F93CF93DF93EC01F62E642F8C81A1
:1006800032D58D818F3F11F060E02DD58F850F2DF4
:1006900010E084FF23C06E0187E0C80ED11CE12C5E
:1006A000F12CB8010E2C02C0759567950A94E2F7FB
:1006B0006170F60181916F0116D5FFEFEF1AFF0A05
:1006C00088E0E816F10469F7CE01DF91CF911F9120
:1006D0000F91FF90EF90DF90CF90BECEB80184E0F5
:1006E000759567958A95E1F7CE0193DF6F2DCE0161
:1006F000DF91CF911F910F91FF90EF90DF90CF90FE
:1007000088CF41E0B1DF81E090E0089540E0ACCFD8
:1007100008958EBD00000DB407FEFDCF8EB508957F
:100720008CBD9DBD08951F93CF93DF93EC01162FD1
:1007300083E590E0F5DF60E08E85D5D4812F806879
:10074000E8DF80E0E6DF182F61E08E85CCD4812FD2
:10075000DF91CF911F910895EF92FF921F93CF9356
:10076000DF931F92CDB7DEB77C01162F83E590E0B3
:100770004983D6DF60E0F7018685B5D4812FC9DFD4
:100780004981842FC6DF61E0F70186850F90DF91F4
:10079000CF911F91FF90EF90A6C48F929F92AF923E
:1007A000CF92EF92FF920F931F93CF93DF9300D0DE
:1007B0001F921F92CDB7DEB74C0182E08D8340E0DF
:1007C00064E2C401C9DF40E066E2C401C5DF46E27D
:1007D00068E4C401C1DF86E28C838D81823028F118
:1007E0006CE1C401A0DF482F4F776CE1C401B4DF96
:1007F00087E08B83A12CC12CCE0103967C018E0156
:100800000B5F1F4F9E012F5F3F4F41E0BE016C5FAA
:100810007F4FC401CDD481110BC08D81823039F45A
:1008200081E09B81911104C008C084E001C081E097
:1008300091E0823019F090E001C091E0892F0F9093
:100840000F900F900F900F90DF91CF911F910F910C
:10085000FF90EF90CF90AF909F908F900895CF92A0
:10086000DF92EF92FF920F931F93CF93DF93EC01F0
:100870006B01142F790140E062E06EDF44E06AE032
:10088000CE016ADF40E864E1CE0166DFA601612F98
:10089000CE0158D443E062E0CE015EDF08E813E108
:1008A0006AE0CE0140DF82FF10C040E062E0CE018E
:1008B00053DF64E4CE0137DFF701808362E4CE01C9
:1008C00032DFF701818380E004C00150110941F754
:1008D00083E0DF91CF911F910F91FF90EF90DF9018
:1008E000CF9008952F923F924F925F926F927F9296
:1008F0008F929F92AF92BF92CF92DF92EF92FF9230
:100900000F931F93CF93DF93CDB7DEB72D970FB61D
:10091000F894DEBF0FBECDBF413508F00AC1342EBA
:100920003B014C016CE1FFDE482F4F776CE1C401C5
:1009300013DFBB24B39422E0B21691F033E0B31678
:10094000E1F041E0B412F9C083E989833320D1F0AA
:1009500081E0F3019081953008F480E0D12C17C03C
:1009600085E98983332081F081E0F301908198301B
:1009700008F480E053E0D52E0AC087E9898346E079
:10098000D42E04C0D12C02C033E0D32E80E0532DEE
:10099000F8EFDF9E500D112457FD50E0882321F021
:1009A00098E89B8343E001C042E021E0952F9770D7
:1009B00009F420E0952F959595959595290F21F4AB
:1009C000882311F1585F20C0811102C094E001C05A
:1009D00093E0291708F4922F20E030E06D2D70E0AD
:1009E000E42FE20FA1E0B0E0AC0FBD1FAE0FB11DD0
:1009F000F901E60FF71FE60DF71DE181EC932F5F7C
:100A00003F4F291768F3DCCF23E0222E5032F4F059
:100A100020E72A839C818B8189279D8189279E815C
:100A200089278F839E01285F3F4F47E0BE016F5F9C
:100A30007F4FC4015D8713DF5D858111C9C01B86AF
:100A40002A86CE0107962C0179E01EC0952F97705B
:100A50009B87252F25952595259582E0820F392F97
:100A6000E0E18E9F300D11243A8371E0911101C0B5
:100A700070E0780F44244394512C4C0E5D1E480EB8
:100A8000511C87E0821B8A87CB844C2D4295407F86
:100A90004C0D6AE1C4015D877C875EDEA12C9E015E
:100AA000255F3F4F79018E01065F1F4F92017C85C4
:100AB000472FBE016F5F7F4FC4017AD35D858230BF
:100AC00091F56CE1C4012FDE5D8585FD34C08F7129
:100AD00009F480E2282F30E0452F550F550B4217BF
:100AE00053075CF5582FC901019787709927259501
:100AF0002595259531E0320F21E0009709F420E09B
:100B0000230FE1E0F0E0EC0FFD1FE20FF11D21E00B
:100B100030E002C0220F331F8A95E2F7C9019081AD
:100B2000892B808373CF811153C0503244F450E23B
:100B30006FCF86E04DC082E04BC085E049C08B811D
:100B4000883809F042C033E023E080E090E06D2D6A
:100B500070E0FC01E60FF71FE60DF71D432F480F6D
:100B6000A1E0B0E0AC0FBD1FA40FB11D4C914183BB
:100B70000196821770F38A85833019F58B85811170
:100B800020C09E012D5F3F4F41E0B201C40167DEEE
:100B900081111EC09B81F2018181981314C09C8138
:100BA0008281981310C0808182FF02C0B394C3CEAB
:100BB000F30183878B2D880FB80EB394B08280E049
:100BC00007C081E005C087E003C032E024E0BDCF6C
:100BD0002D960FB6F894DEBF0FBECDBFDF91CF913B
:100BE0001F910F91FF90EF90DF90CF90BF90AF904B
:100BF0009F908F907F906F905F904F903F902F903D
:100C00000895CF93DF93CDB7DEB760970FB6F89412
:100C1000DEBF0FBECDBF81E08093110286E392E07C
:100C20009A8389838CE0EAE6F4E0DE011396019072
:100C30000D928A95E1F7E8E6F4E086858F8787854F
:100C4000888B46E262E1CE01019686DD4CE062E0EF
:100C5000CE01019681DD47E86AE1CE0101967CDD97
:100C600060960FB6F894DEBF0FBECDBFDF91CF9177
:100C70000895AF92CF92EF92FF920F931F93CF936D
:100C8000DF93CDB7DEB760970FB6F894DEBF0FBE27
:100C9000CDBF80911102882329F081E080939004D8
:100CA0001092110286E392E09A8389838CE0EAE64F
:100CB000F4E0DE01139601900D928A95E1F78091A0
:100CC00076048F8780917704888B4FE768E0CE01A8
:100CD000019642DD80E589831A829E012D5F3F4F98
:100CE00042E0BE016F5F7F4F88E694E0B8DD81117E
:100CF0000FC0A12CC12CE12CF12C00E010E020E071
:100D000030E044E0BE016F5F7F4F88E694E050D250
:100D100060960FB6F894DEBF0FBECDBFDF91CF91C6
:100D20001F910F91FF90EF90CF90AF900895809119
:100D30001402882309F4A7C061E088E794E0E6DCA8
:100D40008BE39FE10197F1F780E02CD1E09118024D
:100D5000F09119023197E730F10508F042C0882779
:100D6000EE58FF4F8F4F0C943D1388E492E016D15C
:100D700081E018D185E592E007C088E492E00ED1C9
:100D800081E010D182E692E009D12BC088E492E0A4
:100D900005D181E007D185E792E01FC088E492E0A9
:100DA000FDD081E0FFD087E892E0EECF88E492E0CA
:100DB000F5D081E0F7D085E992E0E6CF88E492E0D3
:100DC000EDD081E0EFD087EA92E0DECF88E492E0D8
:100DD000E5D081E0E7D080EB92E0E0D084E190E0E4
:100DE000F3D082E0DFD083EC92E0D8D0809117027C
:100DF000882319F088EC92E002C08BEC92E0CED010
:100E00008EEC92E0CBD080911602882319F088EC0A
:100E100092E002C08BEC92E0C1D083ED92E0BED0B4
:100E200080911502882319F088EC92E002C08BECC7
:100E300092E0B4D083E0B6D088ED92E0AFD080915C
:100E40009204882319F08DED92E002C080EE92E0CA
:100E5000A5D083EE92E0A2D080919104882319F06E
:100E60008DED92E002C080EE92E098D088EE92E0A4
:100E700095D080911202882319F088EC92E002C08C
:100E80008BEC92E08BD010921402089561E086E31F
:100E90002AD162E370E080E090E055D360E086E321
:100EA00022C190E0FC013197E231F10508F04EC01B
:100EB0008827E758FF4F8F4F0C943D138091800097
:100EC0008F7703C0809180008F7D8093800008958C
:100ED00080918000877FF9CF84B58F7702C084B579
:100EE0008F7D84BD08958091B0008F7703C080917D
:100EF000B0008F7D8093B0000895809190008F772F
:100F000007C0809190008F7D03C080919000877F03
:100F10008093900008958091A0008F7707C0809102
:100F2000A0008F7D03C08091A000877F8093A000E8
:100F30000895809120018F7707C0809120018F7DD7
:100F400003C080912001877F809320010895FC01D8
:100F5000A089B18982E08C93A485B5851C92A68571
:100F6000B78580E18C93108EA489B58986E08C9337
:100F7000A289B3898C9180618C93A289B3898C9169
:100F800088608C93A289B3898C9180688C93028845
:100F9000F389E02D80818F7D80830895BC0188E7EF
:100FA00094E012C5843008F083E090918B04891797
:100FB00010F08FEF890FE82FF0E0E858FB4F6489BD
:100FC000606888E794E0A2CBCF92DF92EF92FF9225
:100FD000CF93DF936C01990FEE08FF08F7FE20C056
:100FE000E0917804F09179040190F081E02D6DE2B8
:100FF00088E794E01995EC0144275527BA014C196C
:101000005D096E097F092AE088E794E0F2D48C0F2D
:101010009D1FDF91CF91FF90EF90DF90CF900895CB
:101020002AE0B701A60188E794E0DF91CF91FF9015
:10103000EF90DF90CF90DDC40F931F93CF93DF939A
:101040008C01C0E0D0E0F801EC0FFD1F6491662335
:1010500071F0E091A503F091A6030190F081E02DDD
:1010600085EA93E01995892B11F02196ECCFCE01FA
:10107000DF91CF911F910F910895CF93DF93DCDF24
:10108000EC016AEF72E085EA93E09ED48C0F9D1F1D
:10109000DF91CF910895CF93DF93282F30E0F901AE
:1010A000EE5FFD4F8491F901E454FE4FD491F901B4
:1010B000EA58FE4FC491CC2389F08111F2DEEC2F67
:1010C000F0E0EE0FFF1FE45AFE4FA591B491EC91B2
:1010D000ED2381E090E021F480E002C080E090E028
:1010E000DF91CF9108951F93CF93DF93282F30E0A6
:1010F000F901EE5FFD4F8491F901E454FE4FD49164
:10110000F901EA58FE4FC491CC23C1F0162F81118A
:10111000C8DEEC2FF0E0EE0FFF1FEE5BFE4FA59157
:10112000B4918FB7F894111105C09C91ED2FE09503
:10113000E92302C0EC91ED2BEC938FBFDF91CF91AF
:101140001F910895CF92DF92EF92FF920F931F931A
:10115000CF93DF931F921F92CDB7DEB78C01F62E8F
:1011600083E590E049835A83DBDA60E0F801868505
:10117000BADF82E1CEDA4981E42EC42E5A81D52E1F
:101180008C2D8E198F1528F4F60181916F01C1DA2B
:10119000F7CF61E0F8018685A6DF0F900F90DF9111
:1011A000CF911F910F91FF90EF90DF90CF90B0CA39
:1011B0004F925F926F927F928F929F92AF92BF9267
:1011C000CF92DF92EF92FF920F931F93CF93DF9313
:1011D0001F921F92CDB7DEB74C012B01D42E3901DF
:1011E000E114F10419F0F701408101C040E0B42E90
:1011F000F0E1CF9EB00C112440E062E0C401ACDA13
:101200004FE768E0C401A8DA40E864E1C401A4DA69
:10121000A2016D2DC40196DF4B2D6AE1C4019CDA59
:101220004CE062E0C40198DA6AE1C4017CDA482F3C
:1012300040686AE1C40190DA80ED482E87E0582EBC
:1012400068E0C40170DA982F907341F480FD04C007
:1012500081E0481A5108A1F783E094C06CE0C40112
:1012600062DAD82E837109F08CC06114710409F41C
:101270004FC00115110509F44BC064E1C40153DAF4
:10128000B82EF80180818B1508F475C0B082BB20A0
:10129000A9F183E590E044DA60E0F401868523DF7C
:1012A00082E937DACC2099F08FEF90E02C0101C071
:1012B000440CCA94EAF782E92CDA84214094F301C1
:1012C0009081492284298083CC24C39401C0C12CFD
:1012D000BA944C2C512C460C571CCB1430F482E998
:1012E00018DAF2018083C394F4CF80E012DAF201BD
:1012F000808361E0F4018685F6DE0ADA68E1C401E4
:1013000012DA8770E114F10421F0F701808301C043
:1013100080E0D3FC32C06114710489F1011511051C
:1013200071F1AA2061F1F8014081413019F4843053
:1013300019F41FC0423010F487E024C08111FCCFA3
:1013400042509E012F5F3F4FB301C40188DA8111E3
:1013500019C0F8018081680E711CF30132979081E9
:1013600089819813E9CF319690818A819813E4CFCF
:1013700006C08FEF07C084E005C082E003C080E0B4
:1013800001C081E00F900F90DF91CF911F910F91DD
:10139000FF90EF90DF90CF90BF90AF909F908F9095
:1013A0007F906F905F904F900895CF93DF9390E080
:1013B000FC01E454FE4F2491FC01EA58FE4F849155
:1013C000882361F190E0880F991FFC01E85DFE4FD2
:1013D000C591D491FC01EE5BFE4FA591B4916111D2
:1013E00009C09FB7F8948881209582238883EC9167
:1013F0002E230BC0623061F49FB7F8943881822F9E
:10140000809583238883EC912E2B2C939FBF06C05D
:101410008FB7F894E8812E2B28838FBFDF91CF916F
:101420000895EF92FF920F931F93CF93DF93EC01F8
:10143000423018F08F8588608F874B8B1C8A80E440
:101440008D8B6E8B70E0605C7F4F6F8B61E08C8169
:10145000ACDF8D818F3F11F061E0A7DF61E08E810D
:10146000A4DF7E0187E0E80EF11C00E010E08F852C
:1014700084FD03C084E090E002C088E090E008179B
:10148000190744F461E0F70181917F018EDF0F5F5E
:101490001F4FEDCF8BE39DE00197F1F760E08C816A
:1014A00022DE60E08E811FDE8D818F3F11F060E0D3
:1014B0001ADE6F8564FD19C063E0CE01AAD80BE483
:1014C00016E4C8010197F1F763E0CE01A2D8C80184
:1014D0000197F1F763E0CE019CD883E592E0019794
:1014E000F1F762E0CE0195D813C06062CE010ED94B
:1014F0008BE496E40197F1F76F856062CE0106D91F
:1015000083E592E00197F1F76F856062CE01FED826
:101510006F856062CE01FAD884E0888B6CE0CE01E2
:10152000F5D861E0CE01F2D88BE39FE10197F1F7A6
:1015300082E0898B66E0CE01DF91CF911F910F9100
:10154000FF90EF90E3C88F929F92AF92BF92CF929D
:10155000DF92EF92FF926B017C016FD04B015C0137
:10156000C114D104E104F104E9F067D0DC01CB013E
:1015700088199909AA09BB09883E9340A105B105BC
:1015800078F321E0C21AD108E108F10888EE880E4C
:1015900083E0981EA11CB11CC114D104E104F10424
:1015A00021F7DECFFF90EF90DF90CF90BF90AF900C
:1015B0009F908F9008950895CF92DF92EF92FF92BF
:1015C0000F931F93CF93DF936C017A018B01C0E0DF
:1015D000D0E0CE15DF0589F0D8016D918D01D601DF
:1015E000ED91FC910190F081E02DC6011995892BB8
:1015F00011F47E0102C02196ECCFC701DF91CF919B
:101600001F910F91FF90EF90DF90CF9008950E946F
:101610005F1588E093E00E94D30121E0892B09F453
:1016200020E0822F089585EA93E00E94D30121E013
:10163000892B09F420E0822F08953FB7F894809118
:101640009E0490919F04A091A004B091A10426B59E
:10165000A89B05C02F3F19F00196A11DB11D3FBFEA
:10166000BA2FA92F982F8827820F911DA11DB11D78
:10167000BC01CD0142E0660F771F881F991F4A9574
:10168000D1F708951F920F920FB60F9211242F9346
:101690003F938F939F93AF93BF9380919A049091C0
:1016A0009B04A0919C04B0919D043091990423E087
:1016B000230F2D3720F40196A11DB11D05C026E88A
:1016C000230F0296A11DB11D2093990480939A04C3
:1016D00090939B04A0939C04B0939D0480919E04DE
:1016E00090919F04A091A004B091A1040196A11D26
:1016F000B11D80939E0490939F04A093A004B09387
:10170000A104BF91AF919F918F913F912F910F9025
:101710000FBE0F901F9018951F920F920FB60F9249
:1017200011240BB60F922F933F934F935F936F93B8
:101730007F938F939F93AF93BF93EF93FF93E0912A
:101740000E02F0910F021995FF91EF91BF91AF91A9
:101750009F918F917F916F915F914F913F912F91C9
:101760000F900BBE0F900FBE0F901F9018951F92F9
:101770000F920FB60F9211240BB60F922F933F9337
:101780004F935F936F937F938F939F93AF93BF9389
:10179000EF93FF93E0910C02F0910D021995FF91E8
:1017A000EF91BF91AF919F918F917F916F915F91D9
:1017B0004F913F912F910F900BBE0F900FBE0F9046
:1017C0001F9018951F920F920FB60F9211240BB60F
:1017D0000F922F933F934F935F936F937F938F93CA
:1017E0009F93AF93BF93EF93FF93E0910202F09129
:1017F00003021995FF91EF91BF91AF919F918F9146
:101800007F916F915F914F913F912F910F900BBE00
:101810000F900FBE0F901F9018951F920F920FB64A
:101820000F9211240BB60F922F933F934F935F9318
:101830006F937F938F939F93AF93BF93EF93FF9398
:10184000E0910002F09101021995FF91EF91BF9193
:10185000AF919F918F917F916F915F914F913F9148
:101860002F910F900BBE0F900FBE0F901F901895E9
:101870001F920F920FB60F9211240BB60F922F9357
:101880003F934F935F936F937F938F939F93AF9308
:10189000BF93EF93FF93E0910A02F0910B02199529
:1018A000FF91EF91BF91AF919F918F917F916F9138
:1018B0005F914F913F912F910F900BBE0F900FBEF4
:1018C0000F901F9018951F920F920FB60F92112430
:1018D0000BB60F922F933F934F935F936F937F932A
:1018E0008F939F93AF93BF93EF93FF93E091080281
:1018F000F09109021995FF91EF91BF91AF919F91DE
:101900008F917F916F915F914F913F912F910F90A8
:101910000BBE0F900FBE0F901F9018951F920F9245
:101920000FB60F9211240BB60F922F933F934F9344
:101930005F936F937F938F939F93AF93BF93EF9337
:10194000FF93E0910602F09107021995FF91EF9144
:10195000BF91AF919F918F917F916F915F914F91C7
:101960003F912F910F900BBE0F900FBE0F901F90C5
:1019700018951F920F920FB60F9211240BB60F926B
:101980002F933F934F935F936F937F938F939F9387
:10199000AF93BF93EF93FF93E0910402F0910502A0
:1019A0001995FF91EF91BF91AF919F918F917F9189
:1019B0006F915F914F913F912F910F900BBE0F90C0
:1019C0000FBE0F901F9018956115710579F0FB01FE
:1019D00001900020E9F73197AF01461B570BDC015E
:1019E000ED91FC910280F381E02D199480E090E06C
:1019F00008954F925F926F927F92EF92FF920F93B2
:101A00001F93CF93DF93CDB7DEB7A1970FB6F894AE
:101A1000DEBF0FBECDBF7C01FA01CB0119A222307F
:101A200008F42AE08E010F5D1F4F422E512C612CCD
:101A3000712CBF01A3019201FED5F901CA01015029
:101A400011096A3014F4605D01C0695CD8016C93BF
:101A5000232B242B252B69F7B801C701B5DFA196ED
:101A60000FB6F894DEBF0FBECDBFDF91CF911F91AF
:101A70000F91FF90EF907F906F905F904F9008953F
:101A80001F920F920FB60F9211240BB60F922F9345
:101A90003F934F935F936F937F938F939F93AF93F6
:101AA000BF93EF93FF9388E093E00E948102FF9140
:101AB000EF91BF91AF919F918F917F916F915F91C6
:101AC0004F913F912F910F900BBE0F900FBE0F9033
:101AD0001F9018951F920F920FB60F9211240BB6FC
:101AE0000F922F933F934F935F936F937F938F93B7
:101AF0009F93AF93BF93EF93FF9388E093E00E948F
:101B00003F02FF91EF91BF91AF919F918F917F9194
:101B10006F915F914F913F912F910F900BBE0F905E
:101B20000FBE0F901F9018951F920F920FB60F9235
:101B300011240BB60F922F933F934F935F936F93A4
:101B40007F938F939F93AF93BF93EF93FF9385EA18
:101B500093E00E948102FF91EF91BF91AF919F911D
:101B60008F917F916F915F914F913F912F910F9046
:101B70000BBE0F900FBE0F901F90189580914204DE
:101B80009091430420C610920B0310920A0348EE72
:101B900053E060E070E040930C0350930D036093BA
:101BA0000E0370930F0384E292E0909309038093F5
:101BB00008032DEC30E030931503209314032CEC34
:101BC00030E0309317032093160328EC30E0309375
:101BD00019032093180329EC30E030931B03209362
:101BE0001A032AEC30E030931D0320931C032EECE3
:101BF00030E030931F0320931E03109221031092B4
:101C0000220310922303109224031092A80310922F
:101C1000A7034093A9035093AA036093AB03709367
:101C2000AC039093A6038093A50385EC90E090937A
:101C3000B2038093B10384EC90E09093B40380935B
:101C4000B30380EC90E09093B6038093B50381ECEE
:101C500090E09093B8038093B70382EC90E0909368
:101C6000BA038093B90386EC90E09093BC03809311
:101C7000BB031092BE031092BF031092C0031092D8
:101C8000C10310927B0410927A0480E492E0909356
:101C900079048093780488E080937C048FEF8093AC
:101CA0007D0489E080937E048AE080937F048BE04A
:101CB000809380048CE0809381048DE08093820483
:101CC000109283041092840410928504109286046A
:101CD0001092870441E060E188E794E0A2DB86E3AC
:101CE00092E0909369048093680485E3809376047E
:101CF00085E0809377048BE292E09093490480938F
:101D0000480410924A0410924B0410924C04109212
:101D10004D0410924E0410924F04109250041092F1
:101D200051049093530480935204109254041092DF
:101D300055041092560410925704109258041092B1
:101D4000590410925A0410925B0490935D0480939E
:101D50005C0410925E0410925F0410926004109272
:101D60006104109262041092630410926404109251
:101D700065048AE292E0909367048093660410926F
:101D800043041092420410924504109244041092AD
:101D90004704109246046EE070E080E090E0ABD51E
:101DA000009799F090934304809342042DE030E033
:101DB0003093450420934404209146043091470415
:101DC000232BB9F4FC01108214C08091420490913D
:101DD0004304009709F0F7D4109243041092420490
:101DE0001092470410924604109245041092440445
:101DF00008952DE030E030934704209346046CEEC4
:101E000072E06AC6CF93DF93CDB7DEB769970FB69E
:101E1000F894DEBF0FBECDBF789484B5826084BDD8
:101E200084B5816084BD85B5826085BD85B58160DE
:101E300085BD80916E00816080936E00109281005C
:101E40008091810082608093810080918100816017
:101E500080938100809180008160809380008091D8
:101E6000B10084608093B1008091B0008160809364
:101E7000B0008091910082608093910080919100E8
:101E800081608093910080919000816080939000A8
:101E90008091A10082608093A1008091A100816067
:101EA0008093A1008091A00081608093A000809128
:101EB00021018260809321018091210181608093C2
:101EC00021018091200181608093200180917A001E
:101ED000846080937A0080917A00826080937A0097
:101EE00080917A00816080937A0080917A00806886
:101EF00080937A001092C10085EA93E028D81FB73A
:101F0000F89480919304811123C0EBEAF1E084916D
:101F1000E1EFF1E09491E82FF0E0EE0FFF1FE85DB4
:101F2000FE4FA591B491EC91E92319F461E085E3AA
:101F3000DAD861E085E339DA8CB580618CBD8CB587
:101F400080648CBD61E084E330DA61E083E32DDA04
:101F5000809193048F5F809393041FBF61E0809111
:101F6000760423DA61E080917604BDD8809177040D
:101F70008F3F89F061E019DA809177048CD8892B42
:101F800051F461E080917704AED862E370E080E0C4
:101F900090E0D9DA12C04FE062E088E694E00E9457
:101FA000AC0362E370E080E090E0CDDA62E088E6C6
:101FB00094E00E94930384FDF9CF40E064E288E658
:101FC00094E00E94AC0340E066E288E694E00E9460
:101FD000AC0346E268E488E694E00E94AC0340E883
:101FE00064E588E694E00E94AC0349EA66E588E689
:101FF00094E00E94AC0343E068E588E694E00E9428
:10200000AC0348EE6AE588E694E00E94AC0340E445
:102010006AE288E694E00E94AC034DE362E288E65F
:1020200094E00E94AC0368E288E694E00E94930387
:10203000982F9370933039F0482F436068E288E618
:1020400094E00E94AC0383ED92E00E941C0880EDB6
:1020500092E00E941C086EE688E694E00E949303DA
:10206000182F8BEB92E00E941C08412F50E060E09B
:1020700070E020E185EA93E0BCDC103969F028F4D7
:10208000183881F480EB92E00FC0113941F0123919
:1020900049F488E992E008C088EA92E005C080EA45
:1020A00092E002C08BE892E00E943D0811501E3F72
:1020B00020F088E492E00E943D0861E086E375D953
:1020C00061E086E172D961E088E16FD961E087E182
:1020D0006CD960E080E369D960E081E366D962E0B1
:1020E0008EE263D962E08FE260D962E08CE25DD972
:1020F00062E08DE25AD90E94460781E096E0909313
:1021000049048093480480ED97E0A0E0B0E080931C
:102110004A0490934B04A0934C04B0934D042FB702
:10212000F89480919A0490919B04A0919C04B091A2
:102130009D042FBF80934E0490934F04A0935004AE
:10214000B093510486E292E090935304809352043A
:1021500082E390E0A0E0B0E08093540490935504B3
:10216000A0935604B09357042FB7F89480919A0423
:1021700090919B04A0919C04B0919D042FBF8093EB
:10218000580490935904A0935A04B0935B0444E01C
:1021900064E188E794E045D961E086E10E94730834
:1021A00061E088E10E94730861E087E10E947308A2
:1021B00062E082E0FAD889E396E09093010280938E
:1021C000000280916A008C7F826080936A00EC9AA2
:1021D0000E94970688E093E00E94A70764EF71E0F1
:1021E00080E090E0B0D96DEF72E088E093E0ECDB46
:1021F0006AEF72E088E093E0E7DB80EA8093100208
:1022000040EA64E088E694E00E94AC0310929004F7
:102210000E944607992493948FB7F89420909A04CB
:1022200030909B0440909C0450909D048FBF68E4C4
:10223000662E64E0762E812CD30116964D915D9129
:102240006D917C91199712968D919D910D90BC91F5
:10225000A02D0097A105B105E1F172016101C41A39
:10226000D50AE60AF70A00E010E09801CA8ADB8A7C
:10227000EC8AFD8A0E8B1F8B288F398F7C018D0194
:1022800020E030E0A9018B83FC820D831E832F8325
:10229000388749875A8796014C895D8960E070E0EC
:1022A00080E090E057016801E12CF12C00E010E0A3
:1022B000ECD17CF0E0916604F0916704882D1995CB
:1022C000D301ED91FC911995F30126823782408666
:1022D0005186FAE06F0E711C839453E0C52E8C106A
:1022E000ABCF80919004882309F4C9C088E694E0BC
:1022F0000E9418020E9446071092110290916A04EF
:1023000020916B047090940430916C04609195045A
:1023100070916D0480909604E0916E046090970433
:1023200080E0891781F0813039F050F0823031F04F
:10233000833039F46E2E05C0632F03C0872E01C091
:10234000722E8F5FEECF6092970460939504709227
:1023500094048092960480E090E0698B64D1898334
:1023600081E090E060D18A83A980BA8069890FEF0B
:10237000A016B00609F47BC0CDB6DEB6C501880F45
:10238000991F880F991F2DB73EB7281B390B0FB621
:10239000F8943EBF0FBE2DBF2C5F3F4F7901412CFB
:1023A000512C42E0242E312C4A145B04ECF500E061
:1023B00010E0A701415051095C834B834150510902
:1023C0005C874B87415051095E874D87C801820D5C
:1023D000931D2F87388B698B26D12F853889698982
:1023E0000230110561F00330110569F0013011056B
:1023F00019F0AD85BE8505C0EB85FC8505C0AB81B8
:10240000BC818C9302C0F70180830F5F1F4F0430A3
:102410001105E1F6F4E02F0E311C0FEF401A500ABF
:1024200014E0E10EF11CC0CF80E090E0E0E0F0E0CD
:102430008A159B05B4F4D90113977C910196771105
:102440000DC011967C91761309C011967C9178117C
:1024500005C0D9017C91761101C0FC012C5F3F4F72
:10246000E7CF0FB6F894DEBE0FBECDBE02C0E0E0EF
:10247000F0E0EF2B11F0909298041092900480916C
:102480001302882309F474C080E30E944B08209152
:102490009204019739F4211102C090921402909293
:1024A000920405C02111909214021092920481E3CB
:1024B0000E944B0820919104019739F4211102C028
:1024C000909214029092910405C0211190921402EE
:1024D000109291048EE20E944B0820911702892BE2
:1024E00039F4211102C0909214029092170205C093
:1024F000211190921402109217028FE20E944B0851
:1025000020911602892B39F4211102C090921402F5
:102510009092160205C02111909214021092160298
:102520008CE20E944B0820911502892B39F421116D
:1025300002C0909214029092150205C0211190924F
:102540001402109215028DE20E944B082091120293
:10255000892B39F4211102C0909214029092120238
:1025600005C02111909214021092120210921302CF
:10257000E0911802F09119023197E930F10508F065
:102580004FC08827E557FF4F8F4F77C080911702C4
:10259000882381F080911602882361F080911502D2
:1025A000882341F080919204811104C080919104AC
:1025B000882341F0E2E0F0E0F0931902E093180282
:1025C0009092140280919804882341F183E0C82EF0
:1025D000D12CD0921902C0921802109298041EC0F9
:1025E000809117028823D1F0809116028823B1F0E0
:1025F00080911502882391F08091920481110EC080
:102600008091910481110AC081E090E090931902B9
:102610008093180210929804909214020E949706D8
:102620000E94DF01F9CDF999FECF92BD81BDF89AE4
:10263000992780B50895A1E21A2EAA1BBB1BFD01A4
:102640000DC0AA1FBB1FEE1FFF1FA217B307E40791
:10265000F50720F0A21BB30BE40BF50B661F771FE9
:10266000881F991F1A9469F76095709580959095C9
:102670009B01AC01BD01CF010895EE0FFF1F881F24
:102680008BBF0790F691E02D19942A153B054C0558
:102690005D056E057F05800791070895CF93DF9351
:1026A0008230910510F482E090E0E091A404F09172
:1026B000A50420E030E0C0E0D0E0309711F1408187
:1026C000518148175907C0F04817590761F48281B2
:1026D0009381209719F09B838A832BC09093A50444
:1026E0008093A40426C02115310519F04217530721
:1026F00018F49A01BE01DF01EF010280F381E02DA1
:10270000DCCF2115310509F1281B390B24303105A7
:1027100090F412968D919C9113976115710521F09B
:10272000FB019383828304C09093A5048093A40447
:10273000FD01329644C0FD01E20FF31F8193919396
:10274000225031092D933C933AC02091A20430913C
:10275000A304232B41F420911C0230911D023093DD
:10276000A3042093A20420911A0230911B02211588
:10277000310541F42DB73EB740911E0250911F0222
:10278000241B350BE091A204F091A304E217F30798
:10279000A0F42E1B3F0B2817390778F0AC014E5FD1
:1027A0005F4F2417350748F04E0F5F1F5093A30467
:1027B0004093A2048193919302C0E0E0F0E0CF0146
:1027C000DF91CF9108950F931F93CF93DF930097DD
:1027D00009F48CC0FC013297138212820091A40488
:1027E0001091A5040115110581F420813181820F1A
:1027F000931F2091A2043091A3042817390779F57B
:10280000F093A304E093A20471C0D80140E050E02B
:10281000AE17BF0750F412962D913C911397AD015E
:102820002115310509F1D901F3CF9D01DA01338377
:10283000228360817181860F971F8217930769F445
:10284000EC0128813981260F371F2E5F3F4F3183DE
:1028500020838A819B8193838283452B29F4F09383
:10286000A504E093A40442C01396FC93EE93129740
:10287000ED01499159919E01240F351FE217F3078D
:1028800071F480819181840F951F029611969C931B
:102890008E938281938113969C938E931297E0E09E
:1028A000F0E0D80112968D919C911397009719F042
:1028B000F8018C01F6CF8D919C9198012E5F3F4FCE
:1028C000820F931F2091A2043091A3042817390787
:1028D00069F4309729F41092A5041092A40402C060
:1028E000138212821093A3040093A204DF91CF916C
:1028F0001F910F9108956F927F928F929F92AF9246
:10290000BF92CF92DF92EF92FF920F931F93CF93DC
:10291000DF93EC01009781F4CB01DF91CF911F9100
:102920000F91FF90EF90DF90CF90BF90AF909F906E
:102930008F907F906F90B2CEFC01E60FF71F9C0145
:1029400022503109E217F30708F4A8C0D9010D910C
:102950001C91119706171707A8F00530110508F408
:102960009BC0C80104978617970708F495C00250CA
:102970001109061B170B019311936D937C93CF01E3
:1029800022DF8AC05B01A01AB10A4C01800E911EA1
:10299000A091A404B091A50440E050E0E12CF12CFA
:1029A000109709F44AC0A815B905D1F56D907C902F
:1029B0001197630182E0C80ED11CCA14DB0480F1B8
:1029C000A3014A195B096A0182E0C80ED11C129664
:1029D000BC9012971396AC91B5E0CB16D10440F0A1
:1029E000B282A38351834083D9016D937C930AC043
:1029F0000E5F1F4FC301800F911FF90191838083E8
:102A0000EB2DFA2FE114F10431F0D7011396FC936A
:102A1000EE93129741C0F093A504E093A4043CC048
:102A20008D919C9111974817590708F4AC017D01CD
:102A300012960D90BC91A02DB3CF8091A2049091DD
:102A4000A30488159905E1F446175707C8F4809147
:102A50001A0290911B02009741F48DB79EB74091E6
:102A60001E0250911F02841B950BE817F907B0F462
:102A7000F093A304E093A204F901718360830CC076
:102A8000CB010CDE7C01009749F0A801BE011BD0F0
:102A9000CE0199DEC70104C0CE0102C080E090E003
:102AA000DF91CF911F910F91FF90EF90DF90CF902A
:102AB000BF90AF909F908F907F906F90089581E02E
:102AC00090E0F89410C0FB01DC0102C001900D926F
:102AD00041505040D8F70895FB01DC0101900D9260
:102AE0000020E1F7089511E0CFE6D1E000E005C055
:102AF000802FFE01C2DD2196011DC037D10780E085
:082B00000807B1F7F894FFCFBC
:102B0800DB0ADB0ADB0ADB0ADB0ADB0ADB0ADB0A95
:102B18007F0101010101010102000000A6048000FB
:102B280000000000A202DC0AA201E802D301B10100
:102B3800C501000000007204CD0318020000000067
:102B48008103DC0A150214025374616E20616C6102
:102B5800726D753A004E696520776C61637A6F6EA5
:102B680079004E696520776C61637A6F6E792C20E5
:102B7800626C616400576C61637A616E69652C20D0
:102B8800637A61733A20004D6F6E69746F726F7764
:102B9800616E6965004D6F6E69746F726F77616EF3
:102BA80069652C20425000416C61726D2121210021
:102BB80057796C61637A616E69652C20637A6173F9
:102BC8003A20004F4B313A005A20004F20004F4B1B
:102BD800323A004F4B333A004352313A0031200029
:102BE8003020004352323A00445A3A0057796B7207
:102BF80079746F206B61727465000D0A0041542B63
:082C0800434D47463D31000039
:00000001FF
