:100000005EC100008DC100008BC1000089C10000ED
:1000100087C1000085C1000083C1000081C10000CC
:100020007FC100007DC100007BC1000079C10000DC
:1000300077C1000075C1000073C1000071C10000EC
:100040006FC100006DC100006BC1000069C10000FC
:1000500067C1000065C1000063C1000095C30000D6
:100060005FC1000019C40000EEC3000059C10000C8
:1000700057C1000055C1000053C1000051C100002C
:100080004FC100004DC100004BC1000049C100003C
:1000900047C1000045C1000043C1000041C100004C
:1000A0003FC100003DC100003BC1000039C100005C
:1000B00037C1000035C1000033C1000031C100006C
:1000C0002FC100002DC100002BC1000029C100007C
:1000D00027C1000025C1000023C1000021C100008C
:1000E0001FC100008C088F087E0882088808C60897
:1000F000930897089D08A108A508AB08AF08B308A6
:10010000C608B908BD08C108000020002300260069
:1001100029002C002F00320000010000030106011D
:1001200009015741524E494E473A20436F6D6D7554
:100130006E69636174696F6E206661696C75726562
:100140002C20697320746865204D46524335323245
:100150002070726F7065726C7920636F6E6E65636C
:100160007465643F00203D2028756E6B6E6F776E5E
:100170002900203D2076322E3000203D2076312E81
:100180003000203D2076302E3000203D2028636C4A
:100190006F6E6529004669726D77617265205665DC
:1001A0007273696F6E3A203078003A2000526561B0
:1001B000646572200000000A0B02090C0D0E08078E
:1001C0000304010000000000000000000000000027
:1001D000000000000000000000000000000000001F
:1001E00000121110000000000000000000000000DC
:1001F00000000000000000000000000000220025B8
:100200000028002B002E0031003400020100000500
:100210000108010B0100002100240027002A002D05
:10022000003000330001010000040107010A01054C
:10023000050505070508080808020202020A0A085F
:100240000804040404010101010101010103030385
:100250000303030303040707070C0C0C0C0C0C0C22
:100260000C0202020206060606060606060B0B0B29
:100270000B0B0B0B0B010210202008081020401064
:10028000204080020102010804020101020408105A
:100290002040808040201008040201800402018078
:1002A00040201008040201080402010102040810A1
:1002B000204080010204081020408000C50D112458
:1002C0001FBECFEFD1E2DEBFCDBF00E00CBF12E01A
:1002D000A0E0B2E0EAEFFCE100E00BBF02C0079053
:1002E0000D92AA34B107D9F723E0AAE4B2E001C025
:1002F0001D92A932B207E1F711E0CFE5D1E000E0AD
:1003000006C021970109802FFE010E94660ECE359E
:10031000D10780E00807A9F70E94B70A0C947B0E6A
:100320006FCE81E0809300020895CF92DF92EF922A
:10033000FF920F931F93CF93DF936C017A018B0190
:10034000C0E0D0E0CE15DF0589F0D8016D918D01B8
:10035000D601ED91FC910190F081E02DC601199537
:10036000892B11F47E0102C02196ECCFC701DF91E9
:10037000CF911F910F91FF90EF90DF90CF90089554
:10038000FC01538D448D252F30E0842F90E0821B9B
:10039000930B541710F0CF96089501970895FC0120
:1003A000918D828D981761F0828DDF01A80FB11DAC
:1003B0005D968C91928D9F5F9F73928F90E00895D0
:1003C0008FEF9FEF0895FC01918D828D981731F08A
:1003D000828DE80FF11D858D90E008958FEF9FEFDE
:1003E0000895FC01918D228D892F90E0805C9F4FB4
:1003F000821B91098F739927089588E592E0F1DFB8
:1004000021E0892B09F420E0822F0895FC01848DDE
:10041000DF01A80FB11DA35ABF4F2C91848D90E02E
:1004200001968F739927848FA689B7892C93A08909
:10043000B1898C9180648C93938D848D981306C0C0
:100440000288F389E02D80818F7D80830895EF926B
:10045000FF920F931F93CF93DF93EC0181E0888F7E
:100460009B8D8C8D981305C0E889F989808185FD65
:1004700023C0F62E0B8D10E00F5F1F4F0F73112757
:10048000E02E8C8DE8120BC00FB607FCFACFE8897E
:10049000F989808185FFF5CFCE01B8DFF2CF8B8D52
:1004A000FE01E80FF11DE35AFF4FF0820B8FEA893E
:1004B000FB898081806207C0EE89FF896083E889BB
:1004C000F98980818064808381E090E0DF91CF9121
:1004D0001F910F91FF90EF900895CF93DF93EC0160
:1004E000888D8823C1F0EA89FB89808185FD05C05C
:1004F000A889B9898C9186FD0EC00FB607FCF5CF8F
:10050000808185FFF2CFA889B9898C9185FFEDCFD5
:10051000CE017CDFE8CFDF91CF91089580E090E0BD
:10052000892B19F06ADF811125C080E090E0892BCA
:1005300041F080E090E0892B21F00E9400008111C1
:100540001CC080E090E0892B41F080E090E0892B96
:1005500021F00E940000811113C080E090E0892BFF
:10056000A1F080E090E0892B81F00E9400008111D1
:100570000AC008950E940000D8CF0E940000E1CF79
:100580000E940000EACF0C9400000895089580E0D6
:1005900090E00895DC01ED91FD91BD010190F081A5
:1005A000E02D40E0199591E0811190E0892F0895A8
:1005B00008950895CF93DF93EC0160E08E81E7D535
:1005C00061E08E81E4D560E08E81E1D58BE891E039
:1005D0000197F1F7DF91CF91089561E086E3D7D5D8
:1005E000BDD460E086E3D3C50E94770E2F923F9280
:1005F0004F925F926F927F928F929F92AF92BF9233
:10060000CF92DF92EF92FF920F931F93CF93DF93DE
:10061000CDB7DEB72C970FB6F894DEBF0FBECDBFB7
:100620008B839C83CDB6DEB6CE0101966B877C872B
:1006300086D489809A806B857C852FEF82169206FE
:1006400009F482C0ADB6BEB6C401880F991F880FE9
:10065000991FADB7BEB7A81BB90B0FB6F894BEBFB4
:100660000FBEADBF2DB63EB6B4E02B0E311C7101EE
:10067000612C712C32E0432E512C68147904E4F57E
:1006800000E010E09701215031093E832D83215075
:10069000310938872F83215031093A872987C801CA
:1006A000840D951D6B877C870E942E0E6B857C8543
:1006B0000230110561F00330110569F001301105B8
:1006C00019F0A985BA8505C0EF81F88505C0AD810F
:1006D000BE818C9302C0F70180830F5F1F4F0430EF
:1006E0001105E9F6F4E04F0E511C2FEF621A720A61
:1006F00034E0E30EF11CC1CFE0E0F0E080E090E0F8
:10070000E815F905DCF4D1011397AC913196A613E5
:1007100011C0D1011297AC91A7130CC0D101119750
:10072000AC912B81A21306C0D1013C912C813213D4
:1007300001C0CF0134E0230E311CE2CF0FB6F89494
:10074000BEBE0FBEADBE02C080E090E00FB6F89412
:10075000DEBE0FBECDBE2C960FB6F894DEBF0FBE28
:10076000CDBFDF91CF911F910F91FF90EF90DF9060
:10077000CF90BF90AF909F908F907F906F905F9041
:100780004F903F902F9008951F920F920FB60F92A7
:1007900011242F933F938F939F93AF93BF93809197
:1007A000500290915102A0915202B09153023091A7
:1007B0004F0223E0230F2D3720F40196A11DB11D18
:1007C00005C026E8230F0296A11DB11D20934F02FC
:1007D0008093500290935102A0935202B09353021F
:1007E0008091540290915502A0915602B091570207
:1007F0000196A11DB11D8093540290935502A093C0
:100800005602B0935702BF91AF919F918F913F9144
:100810002F910F900FBE0F901F90189561157105C5
:1008200079F0FB0101900020E9F73197AF01461BF9
:10083000570BDC01ED91FC910280F381E02D1994BE
:1008400080E090E008951F920F920FB60F9211244E
:100850000BB60F922F933F934F935F936F937F93BA
:100860008F939F93AF93BF93EF93FF9388E592E0AD
:10087000CDDDFF91EF91BF91AF919F918F917F91CE
:100880006F915F914F913F912F910F900BBE0F9001
:100890000FBE0F901F9018951F920F920FB60F92D8
:1008A00011240BB60F922F938F939F93EF93FF9387
:1008B000E0916802F09169028081E0916E02F0910E
:1008C0006F0282FD12C09081809171028F5F8F73E1
:1008D00020917202821751F0E0917102F0E0E85A23
:1008E000FD4F958F8093710201C08081FF91EF9140
:1008F0009F918F912F910F900BBE0F900FBE0F9075
:100900001F901895CF92DF92EF92FF920F931F9353
:10091000CF93DF937C016C0187E0C80ED11CC0E04F
:10092000D0E0062F10E0B8010C2E02C07595679537
:100930000A94E2F76170F60181916F0128D4219643
:10094000C430D10581F7C701DF91CF911F910F917D
:10095000FF90EF90DF90CF902DCECF92DF92EF926D
:10096000FF920F931F93CF93DF93EC01F62E642F2A
:100970008C810DD48D818F3F11F060E008D48F857C
:100980000F2D10E084FF23C06E0187E0C80ED11C3C
:10099000E12CF12CB8010E2C02C0759567950A94D4
:1009A000E2F76170F60181916F01F1D3FFEFEF1A69
:1009B000FF0A88E0E816F10469F7CE01DF91CF91D4
:1009C0001F910F91FF90EF90DF90CF90F3CDB80182
:1009D00084E0759567958A95E1F7CE0193DF6F2DD9
:1009E000CE01DF91CF911F910F91FF90EF90DF909B
:1009F000CF9088CF41E0B1DF81E090E0089540E002
:100A0000ACCF08958EBD00000DB407FEFDCF8EB5AE
:100A100008958CBD9DBD08951F93CF93DF93EC0186
:100A2000162F83E590E0F5DF60E08E85B0D3812F4F
:100A30008068E8DF80E0E6DF182F61E08E85A7D3CD
:100A4000812FDF91CF911F910895EF92FF921F9315
:100A5000CF93DF931F92CDB7DEB77C01162F83E5CE
:100A600090E04983D6DF60E0F701868590D3812F3F
:100A7000C9DF4981842FC6DF61E0F70186850F90C9
:100A8000DF91CF911F91FF90EF9081C38F929F9242
:100A9000AF92CF92EF92FF920F931F93CF93DF937A
:100AA00000D01F921F92CDB7DEB74C0182E08D833C
:100AB00040E064E2C401C9DF40E066E2C401C5DF92
:100AC00046E268E4C401C1DF86E28C838D81823016
:100AD00028F16CE1C401A0DF482F4F776CE1C4011D
:100AE000B4DF87E08B83A12CC12CCE0103967C015F
:100AF0008E010B5F1F4F9E012F5F3F4F41E0BE01F4
:100B00006C5F7F4FC40136D481110BC08D81823060
:100B100039F481E09B81911104C008C084E001C0D8
:100B200081E091E0823019F090E001C091E0892FDE
:100B30000F900F900F900F900F90DF91CF911F911A
:100B40000F91FF90EF90CF90AF909F908F9008956E
:100B5000CF92DF92EF92FF920F931F93CF93DF9389
:100B6000EC016B01142F790140E062E06EDF44E09C
:100B70006AE0CE016ADF40E864E1CE0166DFA601EB
:100B8000612FCE01C1D343E062E0CE015EDF08E811
:100B900013E16AE0CE0140DF82FF10C040E062E076
:100BA000CE0153DF64E4CE0137DFF701808362E4D6
:100BB000CE0132DFF701818380E004C001501109CA
:100BC00041F783E0DF91CF911F910F91FF90EF905C
:100BD000DF90CF9008952F923F924F925F926F9245
:100BE0007F928F929F92AF92BF92CF92DF92EF92BD
:100BF000FF920F931F93CF93DF93CDB7DEB72D975F
:100C00000FB6F894DEBF0FBECDBF413508F00AC164
:100C1000342E3B014C016CE1FFDE482F4F776CE135
:100C2000C40113DFBB24B39422E0B21691F033E089
:100C3000B316E1F041E0B412F9C083E989833320AF
:100C4000D1F081E0F3019081953008F480E0D12C5F
:100C500017C085E98983332081F081E0F301908119
:100C6000983008F480E053E0D52E0AC087E98983E4
:100C700046E0D42E04C0D12C02C033E0D32E80E055
:100C8000532DF8EFDF9E500D112457FD50E08823BF
:100C900021F098E89B8343E001C042E021E0952FDA
:100CA000977009F420E0952F959595959595290FC6
:100CB00021F4882311F1585F20C0811102C094E013
:100CC00001C093E0291708F4922F20E030E06D2D49
:100CD00070E0E42FE20FA1E0B0E0AC0FBD1FAE0F5B
:100CE000B11DF901E60FF71FE60DF71DE181EC9349
:100CF0002F5F3F4F291768F3DCCF23E0222E5032BD
:100D0000F4F020E72A839C818B8189279D818927A4
:100D10009E8189278F839E01285F3F4F47E0BE0158
:100D20006F5F7F4FC4015D8713DF5D858111C9C08F
:100D30001B862A86CE0107962C0179E01EC0952FCE
:100D400097709B87252F25952595259582E0820F05
:100D5000392FE0E18E9F300D11243A8371E091111B
:100D600001C070E0780F44244394512C4C0E5D1E5A
:100D7000480E511C87E0821B8A87CB844C2D4295FC
:100D8000407F4C0D6AE1C4015D877C875EDEA12C4B
:100D90009E01255F3F4F79018E01065F1F4F920133
:100DA0007C85472FBE016F5F7F4FC401E3D25D8515
:100DB000823091F56CE1C4012FDE5D8585FD34C084
:100DC0008F7109F480E2282F30E0452F550F550B25
:100DD000421753075CF5582FC9010197877099276F
:100DE00025952595259531E0320F21E0009709F4EE
:100DF00020E0230FE1E0F0E0EC0FFD1FE20FF11D1A
:100E000021E030E002C0220F331F8A95E2F7C901CA
:100E10009081892B808373CF811153C0503244F469
:100E200050E26FCF86E04DC082E04BC085E049C004
:100E30008B81883809F042C033E023E080E090E005
:100E40006D2D70E0FC01E60FF71FE60DF71D432F37
:100E5000480FA1E0B0E0AC0FBD1FA40FB11D4C9135
:100E600041830196821770F38A85833019F58B854B
:100E7000811120C09E012D5F3F4F41E0B201C401AE
:100E800067DE81111EC09B81F2018181981314C01D
:100E90009C818281981310C0808182FF02C0B3942C
:100EA000C3CEF30183878B2D880FB80EB394B08225
:100EB00080E007C081E005C087E003C032E024E0A5
:100EC000BDCF2D960FB6F894DEBF0FBECDBFDF911C
:100ED000CF911F910F91FF90EF90DF90CF90BF9037
:100EE000AF909F908F907F906F905F904F903F90CA
:100EF0002F9008953FB7F894809154029091550235
:100F0000A0915602B091570226B5A89B05C02F3F6D
:100F100019F00196A11DB11D3FBFBA2FA92F982F1F
:100F20008827820F911DA11DB11DBC01CD0142E09A
:100F3000660F771F881F991F4A95D1F70895CF93A1
:100F4000DF93EC0180E090E089D6888381E090E037
:100F500085D68983CE01DF91CF9108958F929F929C
:100F6000AF92BF92CF92DF92EF92FF92C3DF4B011D
:100F70005C0182E3C82ED12CE12CF12CBBDFDC011B
:100F8000CB0188199909AA09BB09883E9340A1059C
:100F9000B10558F021E0C21AD108E108F10888EE45
:100FA000880E83E0981EA11CB11CC114D104E10479
:100FB000F10421F7FF90EF90DF90CF90BF90AF90BA
:100FC0009F908F90089590E0FC01EB58FD4F249185
:100FD000FC01E15DFD4F8491882399F090E0880F3A
:100FE000991FFC01EB5EFD4FA591B491FC01E5500A
:100FF000FE4F859194918FB7F894EC91E22BEC938E
:101000008FBF08950F931F93CF93DF938C01C0E0A0
:10101000D0E0F801EC0FFD1F6491662371F0E091C0
:101020005802F09159020190F081E02D88E592E09C
:101030001995892B11F02196ECCFCE01DF91CF913C
:101040001F910F910895CF93DF93DCDFEC0167E4EC
:1010500072E088E592E0E2DB8C0F9D1FDF91CF917B
:1010600008958F929F92AF92BF920F931F93CF9349
:10107000DF93CDB7DEB7A1970FB6F894DEBF0FBEF2
:10108000CDBF19A2423008F44AE08E010F5D1F4F18
:10109000842E912CA12CB12CA5019401F5D5E62F1D
:1010A000B901CA0101501109EA3014F4E05D01C030
:1010B000E95CD801EC93232B242B252B69F7B8018D
:1010C00088E592E0ABDBA1960FB6F894DEBF0FBEC9
:1010D000CDBFDF91CF911F910F91BF90AF909F90A7
:1010E0008F90089590E0FC013197E231F10508F00E
:1010F0004DC08827EE58FF4F8F4FE8C58091800084
:101100008F7703C0809180008F7D80938000089549
:1011100080918000877FF9CF84B58F7702C084B536
:101120008F7D84BD08958091B0008F7703C080913A
:10113000B0008F7D8093B0000895809190008F77EC
:1011400007C0809190008F7D03C080919000877FC1
:101150008093900008958091A0008F7707C08091C0
:10116000A0008F7D03C08091A000877F8093A000A6
:101170000895809120018F7707C0809120018F7D95
:1011800003C080912001877F8093200108951F93E1
:10119000CF93DF93282F30E0F901EB54FE4F849179
:1011A000F901EB58FD4FD491F901E15DFD4FC49178
:1011B000CC23C1F0162F811195DFEC2FF0E0EE0F5C
:1011C000FF1FE550FE4FA591B4918FB7F894111110
:1011D00005C09C91ED2FE095E92302C0EC91ED2B29
:1011E000EC938FBFDF91CF911F910895EF92FF9203
:1011F0000F931F93CF93DF93EC01423018F08F854C
:1012000088608F874B8B1C8A80E48D8B6E8B70E09F
:10121000605C7F4F6F8B8C81D6DE8D818F3F09F0B4
:10122000D2DE8E81D0DE7E0187E0E80EF11C00E088
:1012300010E08F8584FD03C084E090E002C088E068
:1012400090E0081719073CF4F70181917F01BBDE9C
:101250000F5F1F4FEECF8BE39DE00197F1F760E04A
:101260008C8195DF60E08E8192DF8D818F3F11F060
:1012700060E08DDF6F8564FD19C063E0CE0142DB65
:101280000BE416E4C8010197F1F763E0CE013ADB05
:10129000C8010197F1F763E0CE0134DB83E592E00A
:1012A0000197F1F762E0CE012DDB13C06062CE0141
:1012B000A6DB8BE496E40197F1F76F856062CE01BF
:1012C0009EDB83E592E00197F1F76F856062CE01C6
:1012D00096DB6F856062CE0192DB84E0888B6CE0E8
:1012E000CE018DDB61E0CE018ADB8BE39FE10197CC
:1012F000F1F782E0898B66E0CE01DF91CF911F91FB
:101300000F91FF90EF907BCBCF92DF92EF92FF9205
:101310000F931F93CF93DF931F921F92CDB7DEB72A
:101320008C01F62E83E590E049835A8372DB60E0FE
:10133000F80186852CDF82E165DB4981E42EC42E2D
:101340005A81D52E8C2D8E198F1528F4F601819196
:101350006F0158DBF7CF61E0F801868518DF0F9049
:101360000F90DF91CF911F910F91FF90EF90DF9041
:10137000CF9047CB4F925F926F927F928F929F92C6
:10138000AF92BF92CF92DF92EF92FF920F931F9393
:10139000CF93DF931F921F92CDB7DEB74C012B0185
:1013A000D42E3901E114F10419F0F701408101C094
:1013B00040E0B42EF0E1CF9EB00C112440E062E09A
:1013C000C40143DB4FE768E0C4013FDB40E864E170
:1013D000C4013BDBA2016D2DC40196DF4B2D6AE1F8
:1013E000C40133DB4CE062E0C4012FDB6AE1C401DD
:1013F00013DB482F40686AE1C40127DB80ED482EEB
:1014000087E0582E68E0C40107DB982F907341F401
:1014100080FD04C081E0481A5108A1F783E094C020
:101420006CE0C401F9DAD82E837109F08CC0611424
:10143000710409F44FC00115110509F44BC064E1B2
:10144000C401EADAB82EF80180818B1508F475C062
:10145000B082BB20A9F183E590E0DBDA60E0F40123
:10146000868595DE82E9CEDACC2099F08FEF90E088
:101470002C0101C0440CCA94EAF782E9C3DA842142
:101480004094F3019081492284298083CC24C39421
:1014900001C0C12CBA944C2C512C460C571CCB14B7
:1014A00030F482E9AFDAF2018083C394F4CF80E0B4
:1014B000A9DAF201808361E0F401868568DEA1DAB1
:1014C00068E1C401A9DA8770E114F10421F0F701A1
:1014D000808301C080E0D3FC32C06114710489F1C3
:1014E0000115110571F1AA2061F1F8014081413027
:1014F00019F4843019F41FC0423010F487E024C07E
:101500008111FCCF42509E012F5F3F4FB301C401B8
:101510001FDB811119C0F8018081680E711CF30175
:101520003297908189819813E9CF319690818A8191
:101530009813E4CF06C08FEF07C084E005C082E0B7
:1015400003C080E001C081E00F900F90DF91CF9148
:101550001F910F91FF90EF90DF90CF90BF90AF90D1
:101560009F908F907F906F905F904F900895CF9352
:10157000DF93CDB7DEB72B970FB6F894DEBF0FBE63
:10158000CDBF789484B5826084BD84B5816084BD0C
:1015900085B5826085BD85B5816085BD80916E0011
:1015A000816080936E001092810080918100826042
:1015B000809381008091810081608093810080917F
:1015C00080008160809380008091B100846080936E
:1015D000B1008091B00081608093B0008091910053
:1015E000826080939100809191008160809391004E
:1015F000809190008160809390008091A100826032
:101600008093A1008091A10081608093A1008091CE
:10161000A00081608093A00080912101826080936E
:10162000210180912101816080932101809120011D
:1016300081608093200180917A00846080937A0099
:1016400080917A00826080937A0080917A00816034
:1016500080937A0080917A00806880937A0010925B
:10166000C100E0916802F091690282E08083E0911C
:101670006402F09165021082E0916602F0916702C7
:101680008FEC808310927002E0916C02F0916D02F9
:1016900086E08083E0916A02F0916B028081806134
:1016A0008083E0916A02F0916B0280818860808380
:1016B000E0916A02F0916B02808180688083E09102
:1016C0006A02F0916B0280818F7D80831FB7F8944E
:1016D00080914A02811120C0E4E6F2E08491EAEAB6
:1016E000F2E09491E82FF0E0EE0FFF1FEB5EFD4F6C
:1016F000A591B491EC91E92319F461E085E347DD0C
:1017000085E361DC8CB580618CBD8CB580648CBD5B
:1017100084E359DC83E357DC80914A028F5F809336
:101720004A021FBF85E380930F0385E08093100377
:1017300085E349DC61E080910F0329DD809110038E
:101740008F3F39F44FE062E081E093E07ED906DC20
:1017500022C039DC2091100330E0F901EB54FE4F38
:101760008491F901EB58FD4F0491F901E15DFD4FC2
:101770001491112309F48AC18111B4DCE12FF0E046
:10178000EE0FFF1FE85FFE4FA591B491EC91E023AF
:1017900009F47CC1D7CF62E081E093E03DD984FDBC
:1017A000FACF40E064E281E093E04FD940E066E2A6
:1017B00081E093E04AD946E268E481E093E045D9CC
:1017C00040E864E581E093E040D949EA66E581E0DC
:1017D00093E03BD943E068E581E093E036D948EEF9
:1017E0006AE581E093E031D940E46AE281E093E088
:1017F0002CD94DE362E281E093E027D968E281E0F1
:1018000093E00AD9982F9370933031F0482F4360BA
:1018100068E281E093E019D98DEA91E0F3DB8AEA8E
:1018200091E0F0DB6EE681E093E0F6D8182F85E9D1
:1018300091E0E8DB612F70E080E090E040E111DCB6
:10184000103969F028F4183881F48AE891E00FC063
:10185000113941F0123949F482E791E008C082E879
:1018600091E005C08AE791E002C085E691E0EBDBFC
:1018700011501E3F18F082E291E0E5DB86E3A3DB26
:101880000E94ED0281E991E09093F6028093F502C7
:1018900080ED97E0A0E0B0E08093F7029093F8022B
:1018A000A093F902B093FA022FB7F89480915002F6
:1018B00090915102A0915202B09153022FBF809398
:1018C000FB029093FC02A093FD02B093FE0244E061
:1018D00064E181E193E08ADCE1E0809124038111FD
:1018E000E0E0E195F0E0EF5EFC4F6489606881E143
:1018F00093E085D869E272E081E193E00E940E04F2
:10190000E0912403E23010F4E15001C0E1E0F0E0A6
:10191000EF5EFC4F6489606881E193E070D86EE20D
:1019200072E081E193E00E940E048FB7F89440903A
:1019300050025090510260905202709053028FBF3B
:101940004091FB025091FC026091FD027091FE02F9
:101950008091F7029091F802A091F902B091FA02F9
:101960000097A105B105A1F153014201841A950A1E
:10197000A60AB70A8C019D0140E050E0BA018B83B2
:101980001C832D833E834F83588769877A87940110
:10199000A50160E070E080E090E05801CD80DE803D
:1019A000E12CF12C00E010E099D194F0E091FF02DD
:1019B000F09100031995E091F502F091F602199566
:1019C0004092FB025092FC026092FD027092FE0275
:1019D00081E093E05BD8882309F455C08091000230
:1019E000882309F450C081E093E00E94CA0281116B
:1019F00053C049C0813009F067C0372F8F5F8F1304
:101A0000F9CF40934B0230934C0290934E022093B7
:101A10004D0260914B0270914C0280914D02909169
:101A20004E020E94F6026C01A0904B02B0904C0254
:101A3000E0904D02F0904E02B501C7010E94F602FF
:101A4000892B09F44EC00D2C000CEE08FF08F7FEA0
:101A500098C0E0915802F09159020190F081E02D78
:101A60006DE288E592E0199566277727CB016C191E
:101A70007D098E099F094AE0F4DA67E472E088E59F
:101A800092E00E940E040E948E024FCF61E080918E
:101A900010037DDB63DA85CE0E94ED021092000216
:101AA000F0910303E091040340914B027091050310
:101AB00030914C026091060320914D025091070332
:101AC00090914E0280E09BCF813048F0823029F027
:101AD000833009F093CF952F91CF262F8FCF4E2FA4
:101AE0008DCFCE0101962BDA29813A812F3F1FEF4E
:101AF000310729F481E090E09A83898304C02F5F45
:101B00003F4F3A83298309811A8101501109000F3F
:101B1000111F000F111F480122E0820E911C6981E4
:101B200080E090E06B879AD06B85681719F080E0B1
:101B300090E09CD06A8181E090E06B878FD06B85CC
:101B4000681719F081E090E091D06A2DC4018ED021
:101B50006B2DC80103968AD06E2DC801049686D0DD
:101B60006F2DC801059682D06AE372E088E592E0A5
:101B70000E940E0467E472E088E592E00E940E0481
:101B800062CF4AE0C701B60177CFCF93E8E5F2E034
:101B90001382128288EE93E0A0E0B0E08483958304
:101BA000A683B78385E092E09183808385EC90E003
:101BB0009587848784EC90E09787868780EC90E017
:101BC000918B808B81EC90E0938B828B82EC90E008
:101BD000958B848B86EC90E0978B868B118E128E82
:101BE000138E148EE1E1F3E01382128281E292E01F
:101BF0009183808388E08483CFEFC58389E08683E7
:101C00008AE087838BE080878CE081878DE0828704
:101C10001386148615861686178641E060E1CF018B
:101C2000E5DAE1E0F3E087E192E09183808385E308
:101C30008687C787E5EFF2E089ED92E091838083A4
:101C400012821382148215821682178210861186E0
:101C500088ED92E093878287CF910895F999FECF1E
:101C600092BD81BDF89A992780B50895262FF999DC
:101C7000FECF1FBA92BD81BD20BD0FB6F894FA9A6F
:101C8000F99A0FBE01960895A1E21A2EAA1BBB1B5A
:101C9000FD010DC0AA1FBB1FEE1FFF1FA217B30738
:101CA000E407F50720F0A21BB30BE40BF50B661F4E
:101CB000771F881F991F1A9469F760957095809512
:101CC00090959B01AC01BD01CF010895EE0FFF1F60
:101CD000881F8BBF0790F691E02D19942A153B05BC
:101CE0004C055D056E057F0580079107089581E02D
:0A1CF00090E0F89400C0F894FFCFD4
:101CFA00010000000027029501C0016D02F101CF29
:101D0A0001E30100000000EB054605CA02000000DD
:101D1A0000FA049501C702C6025465737400686527
:101D2A006C6C6F20576F726C640063617264207709
:0A1D3A0072697474656E000D0A00F2
:00000001FF
