:100000006EC1000098C400006BC400003EC4000034
:1000100011C40000E4C30000B7C300008AC300009D
:100020005DC300008DC100008BC1000089C10000CC
:1000300087C1000085C1000083C1000081C10000AC
:100040007FC100007DC100007BC1000079C10000BC
:1000500077C1000075C1000073C100000C944C0E04
:100060006FC100006BC5000040C5000069C1000001
:1000700067C1000065C1000063C1000061C10000EC
:100080005FC100005DC100005BC1000059C10000FC
:1000900003C50000D8C4000053C1000051C10000D6
:1000A0004FC100004DC100004BC1000049C100001C
:1000B00047C1000045C1000043C1000041C100002C
:1000C0003FC100003DC100003BC1000039C100003C
:1000D00037C1000035C1000033C1000031C100004C
:1000E0002FC1000076097E0987098F0997099F09AA
:1000F000A709B913DF13F9136D146D146D146D1482
:100100006D146D14910D940D830D870D8D0DCB0D18
:10011000980D9C0DA20DA60DAA0DB00DB40DB80D35
:10012000CB0DBE0DC20DC60D5741524E494E473A3A
:1001300020436F6D6D756E69636174696F6E2066C3
:1001400061696C7572652C20697320746865204D37
:100150004652433532322070726F7065726C79206E
:10016000636F6E6E65637465643F00203D20287583
:100170006E6B6E6F776E2900203D2076322E300038
:10018000203D2076312E3000203D2076302E30006C
:10019000203D2028636C6F6E6529004669726D777B
:1001A0006172652056657273696F6E3A203078000F
:1001B0003A2000526561646572200000002200252B
:1001C0000028002B002E0031003400020100000541
:1001D0000108010B01000020002300260029002C4B
:1001E000002F003200000100000301060109010593
:1001F000050505070508080808020202020A0A08A0
:1002000008040404040101010101010101030303C5
:100210000303030303040707070C0C0C0C0C0C0C62
:100220000C0202020206060606060606060B0B0B69
:100230000B0B0B0B0B0102102020080810204010A4
:10024000204080020102010804020101020408109A
:1002500020408080402010080402018004020180B8
:1002600040201008040201080402010102040810E1
:10027000204080010204081020408000000A0B0288
:10028000090C0D0E08070304010000000000000027
:10029000000000000000000000000000000000005E
:1002A000000000000000001211100000000000001B
:1002B000000000000000000000000000000000003E
:1002C0000000002100240027002A002D0030003308
:1002D0000001010000040107010A01007214112449
:1002E0001FBECFEFD1E2DEBFCDBF00E00CBF25E0E7
:1002F000A8E1B3E001C01D92A932B207E1F713E013
:10030000A0E0B2E0ECE9FBE200E00BBF02C0079026
:100310000D92A831B107D9F711E0CFE6D1E000E0A6
:1003200006C021970109802FFE010E94BB15CE3621
:10033000D10780E00807A9F70E94960E0C94CC150F
:100340005FCE0895CF92DF92EF92FF920F931F93AB
:10035000CF93DF936C017A018B01C0E0D0E0CE1522
:10036000DF0589F0D8016D918D01D601ED91FC91E9
:100370000190F081E02DC6011995892B11F47E01C1
:1003800002C02196ECCFC701DF91CF911F910F9151
:10039000FF90EF90DF90CF900895FC01A089B18984
:1003A0008C91A689B78982FD0FC09C91818D8F5F4A
:1003B0008F73228D821749F0218DDF01A20FB11DAD
:1003C0005D969C93818F08958C910895FC01538DC7
:1003D000448D252F30E0842F90E0821B930B54171F
:1003E00010F0CF96089501970895FC01918D828DAC
:1003F000981761F0828DDF01A80FB11D5D968C9179
:10040000928D9F5F9F73928F90E008958FEF9FEF83
:100410000895FC01918D828D981731F0828DE80F3F
:10042000F11D858D90E008958FEF9FEF0895FC01F9
:10043000918D228D892F90E0805C9F4F821B9109C6
:100440008F739927089585E293E0F1DF21E0892BEE
:1004500009F420E0822F089582EC93E0E8DF21E0A8
:10046000892B09F420E0822F0895FC01848DDF019F
:10047000A80FB11DA35ABF4F2C91848D90E0019617
:100480008F739927848FA689B7892C93A089B18906
:100490008C9180648C93938D848D981306C0028810
:1004A000F389E02D80818F7D80830895EF92FF9204
:1004B0000F931F93CF93DF93EC0181E0888F9B8D87
:1004C0008C8D981305C0E889F989808185FD23C04A
:1004D000F62E0B8D10E00F5F1F4F0F731127E02ECC
:1004E0008C8DE8120BC00FB607FCFACFE889F989AA
:1004F000808185FFF5CFCE01B8DFF2CF8B8DFE0175
:10050000E80FF11DE35AFF4FF0820B8FEA89FB8958
:100510008081806207C0EE89FF896083E889F9895C
:1005200080818064808381E090E0DF91CF911F9192
:100530000F91FF90EF900895CF93DF93EC01888D9A
:100540008823C1F0EA89FB89808185FD05C0A889DF
:10055000B9898C9186FD0EC00FB607FCF5CF80815E
:1005600085FFF2CFA889B9898C9185FFEDCFCE01A7
:100570007CDFE8CFDF91CF91089580E090E0892B78
:1005800019F06ADF811120C080E090E0892B19F01A
:100590005ADF81111CC080E090E0892B41F080E09F
:1005A00090E0892B21F00E940000811113C080E0AF
:1005B00090E0892BA1F080E090E0892B81F00E94EF
:1005C000000081110AC008950E940000DDCF0E9442
:1005D0000000E1CF0E940000EACF0C9400000895D3
:1005E000089580E090E00895DC01ED91FD91BD015A
:1005F0000190F081E02D40E0199591E0811190E0AB
:10060000892F089581E08093130208958091180244
:1006100090911902181619064CF40197909319023B
:100620008093180281E08093170208951092750458
:100630001092760410927704109278040895089529
:100640000895862F0C94350B862F642F0C945D0B28
:10065000CF93DF93EC0160E08E810E945D0B61E03F
:100660008E810E945D0B60E08E810E945D0B8BE8A5
:1006700091E00197F1F7DF91CF91089580911C03EC
:1006800090911D0382309105A1F083309105C1F056
:100690000197F9F480911803882319F060E086E14E
:1006A00015C061E086E10E945D0B81E08093180334
:1006B0000895809118038823A1F360E088E106C0C3
:1006C00080911803882369F360E087E1F6D71092E0
:1006D00018030895862F642F0C94CC0D1F920F924F
:1006E0000FB60F9211240BB60F922F933F934F9397
:1006F0005F936F937F938F939F93AF93BF93EF938A
:10070000FF93E0910E02F0910F021995FF91EF9186
:10071000BF91AF919F918F917F916F915F914F9119
:100720003F912F910F900BBE0F900FBE0F901F9017
:1007300018951F920F920FB60F9211240BB60F92BD
:100740002F933F934F935F936F937F938F939F93D9
:10075000AF93BF93EF93FF93E0910C02F0910D02E2
:100760001995FF91EF91BF91AF919F918F917F91DB
:100770006F915F914F913F912F910F900BBE0F9012
:100780000FBE0F901F9018951F920F920FB60F92E9
:1007900011240BB60F922F933F934F935F936F9358
:1007A0007F938F939F93AF93BF93EF93FF93E091CA
:1007B0000202F09103021995FF91EF91BF91AF9161
:1007C0009F918F917F916F915F914F913F912F9169
:1007D0000F900BBE0F900FBE0F901F9018951F9299
:1007E0000F920FB60F9211240BB60F922F933F93D7
:1007F0004F935F936F937F938F939F93AF93BF9329
:10080000EF93FF93E0910002F09101021995FF919F
:10081000EF91BF91AF919F918F917F916F915F9178
:100820004F913F912F910F900BBE0F900FBE0F90E5
:100830001F9018951F920F920FB60F9211240BB6AE
:100840000F922F933F934F935F936F937F938F9369
:100850009F93AF93BF93EF93FF93E0910A02F091C0
:100860000B021995FF91EF91BF91AF919F918F91DD
:100870007F916F915F914F913F912F910F900BBEA0
:100880000F900FBE0F901F9018951F920F920FB6EA
:100890000F9211240BB60F922F933F934F935F93B8
:1008A0006F937F938F939F93AF93BF93EF93FF9338
:1008B000E0910802F09109021995FF91EF91BF9123
:1008C000AF919F918F917F916F915F914F913F91E8
:1008D0002F910F900BBE0F900FBE0F901F90189589
:1008E0001F920F920FB60F9211240BB60F922F93F7
:1008F0003F934F935F936F937F938F939F93AF93A8
:10090000BF93EF93FF93E0910602F09107021995D0
:10091000FF91EF91BF91AF919F918F917F916F91D7
:100920005F914F913F912F910F900BBE0F900FBE93
:100930000F901F9018951F920F920FB60F921124CF
:100940000BB60F922F933F934F935F936F937F93C9
:100950008F939F93AF93BF93EF93FF93E091040224
:10096000F09105021995FF91EF91BF91AF919F9181
:100970008F917F916F915F914F913F912F910F9048
:100980000BBE0F900FBE0F901F901895611571054B
:1009900079F0FB0101900020E9F73197AF01461B88
:1009A000570BDC01ED91FC910280F381E02D19944D
:1009B00080E090E008954F925F926F927F92EF9265
:1009C000FF920F931F93CF93DF93CDB7DEB7A1971D
:1009D0000FB6F894DEBF0FBECDBF7C01FA01CB018C
:1009E00019A2223008F42AE08E010F5D1F4F422E1B
:1009F000512C612C712CBF01A30192010E94991509
:100A0000F901CA01015011096A3014F4605D01C096
:100A1000695CD8016C93232B242B252B61F7B8013B
:100A2000C701B4DFA1960FB6F894DEBF0FBECDBFED
:100A3000DF91CF911F910F91FF90EF907F906F907A
:100A40005F904F9008951F920F920FB60F9211244E
:100A50000BB60F922F933F934F935F936F937F93B8
:100A60008F939F93AF93BF93EF93FF9385E293E0B0
:100A7000FCDCFF91EF91BF91AF919F918F917F919E
:100A80006F915F914F913F912F910F900BBE0F90FF
:100A90000FBE0F901F9018951F920F920FB60F92D6
:100AA00011240BB60F922F933F934F935F936F9345
:100AB0007F938F939F93AF93BF93EF93FF9385E2C1
:100AC00093E06BDCFF91EF91BF91AF919F918F917C
:100AD0007F916F915F914F913F912F910F900BBE3E
:100AE0000F900FBE0F901F9018951F920F920FB688
:100AF0000F9211240BB60F922F933F934F935F9356
:100B00006F937F938F939F93AF93BF93EF93FF93D5
:100B100082EC93E0AADCFF91EF91BF91AF919F919E
:100B20008F917F916F915F914F913F912F910F9096
:100B30000BBE0F900FBE0F901F9018951F920F9233
:100B40000FB60F9211240BB60F922F933F934F9332
:100B50005F936F937F938F939F93AF93BF93EF9325
:100B6000FF9382EC93E019DCFF91EF91BF91AF917D
:100B70009F918F917F916F915F914F913F912F91B5
:100B80000F900BBE0F900FBE0F901F901895CF9235
:100B9000DF92EF92FF920F931F93CF93DF937C012D
:100BA0006C0187E0C80ED11CC0E0D0E0062F10E039
:100BB000B8010C2E02C0759567950A94E2F7617032
:100BC000F60181916F0179D52196C430D10581F765
:100BD000C701DF91CF911F910F91FF90EF90DF90B0
:100BE000CF9036CDCF92DF92EF92FF920F931F936B
:100BF000CF93DF93EC01F62E642F8C815ED58D812F
:100C00008F3F11F060E059D58F850F2D10E084FFE4
:100C100023C06E0187E0C80ED11CE12CF12CB80175
:100C20000E2C02C0759567950A94E2F76170F60183
:100C300081916F0142D5FFEFEF1AFF0A88E0E816B5
:100C4000F10469F7CE01DF91CF911F910F91FF90D1
:100C5000EF90DF90CF90FCCCB80184E0759567955C
:100C60008A95E1F7CE0193DF6F2DCE01DF91CF9111
:100C70001F910F91FF90EF90DF90CF9088CF41E0D0
:100C8000B1DF81E090E0089540E0ACCF08958EBDE3
:100C900000000DB407FEFDCF8EB508958CBD9DBD3F
:100CA00008951F93CF93DF93EC01162F83E590E017
:100CB000F5DF60E08E8501D5812F8068E8DF80E078
:100CC000E6DF182F61E08E85F8D4812FDF91CF9178
:100CD0001F910895EF92FF921F93CF93DF931F927E
:100CE000CDB7DEB77C01162F83E590E04983D6DFD0
:100CF00060E0F7018685E1D4812FC9DF4981842F27
:100D0000C6DF61E0F70186850F90DF91CF911F91DB
:100D1000FF90EF90D2C48F929F92AF92CF92EF92BA
:100D2000FF920F931F93CF93DF9300D01F921F92D8
:100D3000CDB7DEB74C0182E08D8340E064E2C401B0
:100D4000C9DF40E066E2C401C5DF46E268E4C401F1
:100D5000C1DF86E28C838D81823028F16CE1C40191
:100D6000A0DF482F4F776CE1C401B4DF87E08B83AD
:100D7000A12CC12CCE0103967C018E010B5F1F4F6D
:100D80009E012F5F3F4F41E0BE016C5F7F4FC4016A
:100D90008BD581110BC08D81823039F481E09B812C
:100DA000911104C008C084E001C081E091E082306C
:100DB00019F090E001C091E0892F0F900F900F90F3
:100DC0000F900F90DF91CF911F910F91FF90EF90B7
:100DD000CF90AF909F908F900895CF92DF92EF9237
:100DE000FF920F931F93CF93DF93EC016B01142FAE
:100DF000790140E062E06EDF44E06AE0CE016ADF44
:100E000040E864E1CE0166DFA601612FCE0116D570
:100E100043E062E0CE015EDF08E813E16AE0CE0164
:100E200040DF82FF10C040E062E0CE0153DF64E4A7
:100E3000CE0137DFF701808362E4CE0132DFF701B4
:100E4000818380E004C00150110941F783E0DF9104
:100E5000CF911F910F91FF90EF90DF90CF90089569
:100E60002F923F924F925F926F927F928F929F92BA
:100E7000AF92BF92CF92DF92EF92FF920F931F93A8
:100E8000CF93DF93CDB7DEB72D970FB6F894DEBFC3
:100E90000FBECDBF413508F00AC1342E3B014C01D5
:100EA0006CE1FFDE482F4F776CE1C40113DFBB24F8
:100EB000B39422E0B21691F033E0B316E1F041E0D2
:100EC000B412F9C083E989833320D1F081E0F301C2
:100ED0009081953008F480E0D12C17C085E9898392
:100EE000332081F081E0F3019081983008F480E0B4
:100EF00053E0D52E0AC087E9898346E0D42E04C08A
:100F0000D12C02C033E0D32E80E0532DF8EFDF9ECA
:100F1000500D112457FD50E0882321F098E89B8361
:100F200043E001C042E021E0952F977009F420E0F2
:100F3000952F959595959595290F21F4882311F175
:100F4000585F20C0811102C094E001C093E02917CE
:100F500008F4922F20E030E06D2D70E0E42FE20FD6
:100F6000A1E0B0E0AC0FBD1FAE0FB11DF901E60F5F
:100F7000F71FE60DF71DE181EC932F5F3F4F291717
:100F800068F3DCCF23E0222E5032F4F020E72A83EE
:100F90009C818B8189279D8189279E8189278F83C9
:100FA0009E01285F3F4F47E0BE016F5F7F4FC40146
:100FB0005D8713DF5D858111C9C01B862A86CE013E
:100FC00007962C0179E01EC0952F97709B87252FDF
:100FD00025952595259582E0820F392FE0E18E9F9A
:100FE000300D11243A8371E0911101C070E0780F47
:100FF00044244394512C4C0E5D1E480E511C87E036
:10100000821B8A87CB844C2D4295407F4C0D6AE130
:10101000C4015D877C875EDEA12C9E01255F3F4F6A
:1010200079018E01065F1F4F92017C85472FBE011B
:101030006F5F7F4FC40138D45D85823091F56CE1DC
:10104000C4012FDE5D8585FD34C08F7109F480E217
:10105000282F30E0452F550F550B421753075CF5ED
:10106000582FC901019787709927259525952595B2
:1010700031E0320F21E0009709F420E0230FE1E096
:10108000F0E0EC0FFD1FE20FF11D21E030E002C0A7
:10109000220F331F8A95E2F7C9019081892B808343
:1010A00073CF811153C0503244F450E26FCF86E0C9
:1010B0004DC082E04BC085E049C08B81883809F083
:1010C00042C033E023E080E090E06D2D70E0FC0151
:1010D000E60FF71FE60DF71D432F480FA1E0B0E024
:1010E000AC0FBD1FA40FB11D4C9141830196821717
:1010F00070F38A85833019F58B85811120C09E019C
:101100002D5F3F4F41E0B201C40167DE81111EC077
:101110009B81F2018181981314C09C818281981374
:1011200010C0808182FF02C0B394C3CEF3018387D5
:101130008B2D880FB80EB394B08280E007C081E099
:1011400005C087E003C032E024E0BDCF2D960FB686
:10115000F894DEBF0FBECDBFDF91CF911F910F91ED
:10116000FF90EF90DF90CF90BF90AF909F908F90C7
:101170007F906F905F904F903F902F900895CF9306
:10118000DF93CDB7DEB760970FB6F894DEBF0FBE22
:10119000CDBF81E0809311028AE492E09A83898333
:1011A0008CE0EBE8F4E0DE01139601900D928A9555
:1011B000E1F7E9E8F4E086858F878785888B46E24A
:1011C00062E1CE01019686DD4CE062E0CE0101963F
:1011D00081DD47E86AE1CE0101967CDD60960FB6BD
:1011E000F894DEBF0FBECDBFDF91CF910895AF92CF
:1011F000CF92EF92FF920F931F93CF93DF93CDB7D0
:10120000DEB760970FB6F894DEBF0FBECDBF8091FA
:101210001102882341F081E080931903109211029A
:1012200089E894E0E1D98AE492E09A8389838CE0AA
:10123000EBE8F4E0DE01139601900D928A95E1F758
:10124000809197048F8780919804888B4FE768E09E
:10125000CE0101963FDD80E589831A829E012D5FD4
:101260003F4F42E0BE016F5F7F4F89E894E0B5DDFC
:1012700081110FC0A12CC12CE12CF12C00E010E059
:1012800020E030E044E0BE016F5F7F4F89E894E0EA
:101290000BD360960FB6F894DEBF0FBECDBFDF91C3
:1012A000CF911F910F91FF90EF90CF90AF90089545
:1012B00080911702882309F4A9C061E089E994E0CC
:1012C000E3DC8BE39FE10197F1F780E055D1E091FA
:1012D0001A02F0911B023197E730F10508F044C083
:1012E0008827EE58FF4F8F4F0C94BB1586E692E08F
:1012F0003FD181E041D183E792E007C086E692E0EA
:1013000037D181E039D180E892E032D12DC086E634
:1013100092E02ED181E030D183E992E01FC086E6D1
:1013200092E026D181E028D185EA92E0EECF86E6F0
:1013300092E01ED181E020D183EB92E0E6CF86E6F9
:1013400092E016D181E018D185EC92E0DECF86E6FE
:1013500092E00ED181E010D18EEC92E009D1809123
:101360001802909119021AD182E006D181EE92E022
:10137000FFD080911602882319F086EE92E002C019
:1013800089EE92E0F5D08CEE92E0F2D080911502D9
:10139000882319F086EE92E002C089EE92E0E8D050
:1013A00081EF92E0E5D080911402882319F086EE57
:1013B00092E002C089EE92E0DBD083E0DDD086EFE0
:1013C00092E0D6D080911B03882319F08BEF92E036
:1013D00002C08EEF92E0CCD081E093E0C9D0809142
:1013E0001A03882319F08BEF92E002C08EEF92E08F
:1013F000BFD086E093E0BCD080911202882319F020
:1014000086EE92E002C089EE92E0B2D0109217020E
:10141000089561E086E351D162E370E080E090E0FE
:10142000F7D360E086E349C196E0899FD00111249B
:10143000AF54BB4F90967C936E935F9791E09196DB
:101440009C93919790911D05E0911E05F0911F05C9
:10145000992339F0309751F0811108C08091CD0463
:1014600004C0309719F05C968C9119940895FC0192
:10147000A089B18982E08C93A485B5851C92A6854C
:10148000B78580E18C93108EA489B58986E08C9312
:10149000A289B3898C9180618C93A289B3898C9144
:1014A00088608C93A289B3898C9180688C93028820
:1014B000F389E02D80818F7D808308950F931F93A2
:1014C000CF93DF93C82FD62F86E0C89FF001112459
:1014D000EF54FB4F11A2878D90A181309105E1F06F
:1014E0001CF4892B49F03FC08230910591F103979C
:1014F000D1F560E070E031C06623A9F161E070E0F1
:101500008C2F92DFBDD36093090570930A058093F9
:101510000B0590930C0527C0B3D3009109051091DA
:101520000A0520910B0530910C05AB01BC01401B55
:10153000510B620B730B80911B0590911C05A0E071
:10154000B0E084179507A607B70718F462E070E0CB
:1015500004C0D11108C063E070E08C2FDF91CF91FF
:101560001F910F9161CFDF91CF911F910F9108953E
:10157000BC0189E994E00ACA843008F083E09091C4
:10158000AC04891710F08FEF890FE82FF0E0E756D1
:10159000FB4F6489606889E994E076CBCF92DF9253
:1015A000EF92FF92CF93DF936C01990FEE08FF0843
:1015B000F7FE20C0E0919904F0919A040190F08127
:1015C000E02D6DE289E994E01995EC014427552757
:1015D000BA014C195D096E097F092AE089E994E096
:1015E000EAD98C0F9D1FDF91CF91FF90EF90DF9094
:1015F000CF9008952AE0B701A60189E994E0DF9130
:10160000CF91FF90EF90DF90CF90D5C90F931F93AC
:10161000CF93DF938C01C0E0D0E0F801EC0FFD1F09
:101620006491662371F0E091C203F091C3030190CD
:10163000F081E02D82EC93E01995892B11F0219631
:10164000ECCFCE01DF91CF911F910F910895CF93F1
:10165000DF93DCDFEC0164E173E082EC93E096D988
:101660008C0F9D1FDF91CF910895CF93DF93282F8B
:1016700030E0F901E558FD4F8491F901EB5CFD4F35
:10168000D491F901E151FE4FC491CC2389F081112D
:101690002DD2EC2FF0E0EE0FFF1FEB52FE4FA59185
:1016A000B491EC91ED2381E090E021F480E002C060
:1016B00080E090E0DF91CF9108951F93CF93DF9367
:1016C000282F30E0F901E558FD4F8491F901EB5CDA
:1016D000FD4FD491F901E151FE4FC491CC23C1F0EB
:1016E000162F811103D2EC2FF0E0EE0FFF1FE5540F
:1016F000FE4FA591B4918FB7F894111105C09C913C
:10170000ED2FE095E92302C0EC91ED2BEC938FBF18
:10171000DF91CF911F910895EF92FF920F931F9346
:10172000CF93DF93EC01423018F08F8588608F876C
:101730004B8B1C8A80E48D8B6E8B70E0605C7F4FDE
:101740006F8B61E08C8128D28D818F3F11F061E039
:1017500023D261E08E8120D27E0187E0E80EF11C69
:1017600000E010E08F8584FD03C084E090E002C0BB
:1017700088E090E00817190744F461E0F7018191CF
:101780007F010AD20F5F1F4FEDCF8BE39DE00197E2
:10179000F1F760E08C8191DF60E08E818EDF8D81DA
:1017A0008F3F11F060E089DF6F8564FD19C063E051
:1017B000CE01EDD90BE416E4C8010197F1F763E01F
:1017C000CE01E5D9C8010197F1F763E0CE01DFD979
:1017D00083E592E00197F1F762E0CE01D8D913C01A
:1017E0006062CE0151DA8BE496E40197F1F76F85E0
:1017F0006062CE0149DA83E592E00197F1F76F85E7
:101800006062CE0141DA6F856062CE013DDA84E02C
:10181000888B6CE0CE0138DA61E0CE0135DA8BE3FB
:101820009FE10197F1F782E0898B66E0CE01DF91BD
:10183000CF911F910F91FF90EF9026CACF92DF9228
:10184000EF92FF920F931F93CF93DF931F921F92FC
:10185000CDB7DEB78C01F62E83E590E049835A833D
:101860001DDA60E0F801868528DF82E110DA49811F
:10187000E42EC42E5A81D52E8C2D8E198F1528F466
:10188000F60181916F0103DAF7CF61E0F8018685F7
:1018900014DF0F900F90DF91CF911F910F91FF9068
:1018A000EF90DF90CF90F2C94F925F926F927F924C
:1018B0008F929F92AF92BF92CF92DF92EF92FF9260
:1018C0000F931F93CF93DF931F921F92CDB7DEB775
:1018D0004C012B01D42E3901E114F10419F0F70168
:1018E000408101C040E0B42EF0E1CF9EB00C112445
:1018F00040E062E0C401EED94FE768E0C401EAD9F4
:1019000040E864E1C401E6D9A2016D2DC40196DF6F
:101910004B2D6AE1C401DED94CE062E0C401DAD9A2
:101920006AE1C401BED9482F40686AE1C401D2D936
:1019300080ED482E87E0582E68E0C401B2D9982F78
:10194000907341F480FD04C081E0481A5108A1F76A
:1019500083E094C06CE0C401A4D9D82E837109F04F
:101960008CC06114710409F44FC00115110509F40C
:101970004BC064E1C40195D9B82EF80180818B1564
:1019800008F475C0B082BB20A9F183E590E086D948
:1019900060E0F401868591DE82E979D9CC2099F066
:1019A0008FEF90E02C0101C0440CCA94EAF782E961
:1019B0006ED984214094F301908149228429808347
:1019C000CC24C39401C0C12CBA944C2C512C460C8D
:1019D000571CCB1430F482E95AD9F2018083C394A6
:1019E000F4CF80E054D9F201808361E0F401868570
:1019F00064DE4CD968E1C40154D98770E114F10464
:101A000021F0F701808301C080E0D3FC32C0611473
:101A1000710489F10115110571F1AA2061F1F80134
:101A20004081413019F4843019F41FC0423010F461
:101A300087E024C08111FCCF42509E012F5F3F4FB1
:101A4000B301C401CAD9811119C0F8018081680E9F
:101A5000711CF3013297908189819813E9CF3196F7
:101A600090818A819813E4CF06C08FEF07C084E08D
:101A700005C082E003C080E001C081E00F900F90BC
:101A8000DF91CF911F910F91FF90EF90DF90CF905A
:101A9000BF90AF909F908F907F906F905F904F908E
:101AA00008953FB7F8948091250590912605A0915F
:101AB0002705B091280526B5A89B05C02F3F19F032
:101AC0000196A11DB11D3FBFBA2FA92F982F8827BE
:101AD000820F911DA11DB11DBC01CD0142E0660F19
:101AE000771F881F991F4A95D1F7089590E0FC0150
:101AF0003197E231F10508F04EC08827EE57FF4FCD
:101B00008F4F0C94BB15809180008F7703C080911C
:101B100080008F7D80938000089580918000877F72
:101B2000F9CF84B58F7702C084B58F7D84BD0895C9
:101B30008091B0008F7703C08091B0008F7D80933B
:101B4000B0000895809190008F7707C08091900039
:101B50008F7D03C080919000877F809390000895CF
:101B60008091A0008F7707C08091A0008F7D03C077
:101B70008091A000877F8093A0000895809120012C
:101B80008F7707C0809120018F7D03C08091200155
:101B9000877F809320010895CF93DF9390E0FC012D
:101BA000EB5CFD4F2491FC01E151FE4F84918823B1
:101BB00061F190E0880F991FFC01EF53FD4FC59133
:101BC000D491FC01E554FE4FA591B491611109C077
:101BD0009FB7F8948881209582238883EC912E23E7
:101BE0000BC0623061F49FB7F8943881822F8095E2
:101BF00083238883EC912E2B2C939FBF06C08FB735
:101C0000F894E8812E2B28838FBFDF91CF91089520
:101C10008F929F92AF92BF92CF92DF92EF92FF92FC
:101C20006B017C013EDF4B015C01C114D104E10476
:101C3000F104E9F036DFDC01CB0188199909AA0922
:101C4000BB09883E9340A105B10578F321E0C21A93
:101C5000D108E108F10888EE880E83E0981EA11CE7
:101C6000B11CC114D104E104F10421F7DECFFF90CF
:101C7000EF90DF90CF90BF90AF909F908F9008959E
:101C80002FB7F8946091210570912205809123056A
:101C9000909124052FBF08951F920F920FB60F92B7
:101CA00011242F933F938F939F93AF93BF93809172
:101CB000210590912205A0912305B0912405309132
:101CC000200523E0230F2D3720F40196A11DB11D1F
:101CD00005C026E8230F0296A11DB11D2093200503
:101CE0008093210590932205A0932305B0932405AA
:101CF0008091250590912605A0912705B091280592
:101D00000196A11DB11D8093250590932605A093F2
:101D10002705B0932805BF91AF919F918F913F9177
:101D20002F910F900FBE0F901F901895CF93DF93B8
:101D3000CDB7DEB768970FB6F894DEBF0FBECDBF44
:101D4000789484B5826084BD84B5816084BD85B596
:101D5000826085BD85B5816085BD80916E008160A2
:101D600080936E0010928100809181008260809348
:101D7000810080918100816080938100809180004A
:101D80008160809380008091B10084608093B10075
:101D90008091B00081608093B0008091910082605A
:101DA0008093910080919100816080939100809157
:101DB00090008160809390008091A1008260809368
:101DC000A1008091A10081608093A1008091A0007A
:101DD00081608093A0008091210182608093210125
:101DE0008091210181608093210180912001816097
:101DF0008093200180917A00846080937A008091A2
:101E00007A00826080937A0080917A00816080936A
:101E10007A0080917A00806880937A001092C100E5
:101E200082EC93E024DB1FB7F89480911E038111AC
:101E300023C0E4E2F2E08491EAE6F2E09491E82F34
:101E4000F0E0EE0FFF1FEF53FD4FA591B491EC9121
:101E5000E92319F461E085E330DC61E085E39CDE91
:101E60008CB580618CBD8CB580648CBD61E084E3F1
:101E700093DE61E083E390DE80911E038F5F8093A9
:101E80001E031FBF61E08091970486DE61E08091B0
:101E9000970413DC809198048F3F89F061E07CDE29
:101EA00080919804E2DB892B51F461E080919804E1
:101EB00004DC62E370E080E090E0AADE12C04FE054
:101EC00062E089E894E00E946A0662E370E080E0E4
:101ED00090E09EDE62E089E894E00E94510684FD75
:101EE000F9CF40E064E289E894E00E946A0640E0AD
:101EF00066E289E894E00E946A0646E268E489E8BE
:101F000094E00E946A0640E864E589E894E00E9453
:101F10006A0649EA66E589E894E00E946A0643E0B9
:101F200068E589E894E00E946A0648EE6AE589E877
:101F300094E00E946A0640E46AE289E894E00E9424
:101F40006A064DE362E289E894E00E946A0668E26C
:101F500089E894E00E945106982F9370933039F0ED
:101F6000482F436068E289E894E00E946A0683EBA8
:101F700091E04CDB80EB91E049DB6EE689E894E090
:101F80000E945106182F8BE991E040DB412F50E071
:101F900060E070E020E182EC93E00E94DB04103905
:101FA00069F028F4183881F480E991E00FC0113904
:101FB00041F0123949F488E791E008C088E891E0DF
:101FC00005C080E891E002C08BE691E040DB115053
:101FD0001E3F18F088E291E03ADB61E086E3DCDD49
:101FE00061E086E1D9DD61E088E1D6DD61E087E18D
:101FF000D3DD60E080E3D0DD60E081E3CDDD62E051
:102000008EE2CADD62E08FE2C7DD62E08CE2C4DD11
:1020100062E08DE2C1DDFDD98FEB98E09093600422
:1020200080935F0480ED97E0A0E0B0E080936104CE
:1020300090936204A0936304B093640421DE6093E0
:10204000650470936604809367049093680482E04B
:1020500093E090936A048093690482E390E0A0E0A7
:10206000B0E080936B0490936C04A0936D04B093E4
:102070006E0406DE60936F047093700480937104A5
:102080009093720486E093E09093740480937304B9
:1020900010927504109276041092770410927804CE
:1020A000EFDD6093790470937A0480937B049093BE
:1020B0007C048EE393E090937E0480937D041092E1
:1020C0007F04109280041092810410928204D8DD63
:1020D00060938304709384048093850490938604B2
:1020E00044E064E189E994E017DB61E086E1E5DA48
:1020F00061E088E1E2DA61E087E1DFDA62E082E074
:102100004BDD87EF98E0909301028093000280916D
:102110006A008C7F826080936A00EC9AC9D885E25D
:1021200093E0A5D964EF71E080E090E071DD6AE0B2
:1021300073E085E293E00E94C60464E173E085E207
:1021400093E00E94C60480EA8093100240EA64E0B3
:1021500089E894E00E946A06109219035AD990DD2A
:102160001B012C017FE5872E74E0972E712CD40182
:1021700016964D915D916D917C91199712968D9166
:102180009D910D90BC91A02D0097A105B105E1F1A5
:1021900072016101C41AD50AE60AF70A00E010E0EC
:1021A0009801C98ADA8AEB8AFC8A0D8B1E8B2F8BE9
:1021B000388F7C018D0120E030E0A9018B83FC8207
:1021C0000D831E832F83388749875A8796014B8951
:1021D0005C8960E070E080E090E057016801E12CEC
:1021E000F12C00E010E0CFD47CF0E0918704F09176
:1021F0008804872D1995D401ED91FC911995F4016E
:102200002682378240865186FAE08F0E911C7394A5
:1022100064E0C62E7C10ABCF80911903882309F4AB
:10222000CCC0F7D81092110290918B0420918C04AD
:1022300090901F0330918D0480902003E0918E04D4
:1022400070912103F0918F046091220380E089173F
:1022500081F0813039F050F0823031F0833039F440
:102260006F2F05C0832E03C07E2F01C0922E8F5F7B
:10227000EECF60932203709321038092200390920B
:102280001F0380E090E06F87788B4BD4898381E0D7
:1022900090E047D48A83A980BA806F8578890FEF50
:1022A000A016B00609F480C0CDB6DEB6C501880F11
:1022B000991F880F991F2DB73EB7281B390B0FB6F2
:1022C000F8943EBF0FBE2DBF2DB63EB634E0230EB0
:1022D000311C7101612C712C52E0452E512C6A1475
:1022E0007B04E4F500E010E0A701415051095C8354
:1022F0004B839701225031093C872B87425051096B
:102300005E874D87C801840D951D6F87788B09D432
:102310006F8578890230110561F00330110569F08D
:102320000130110519F0AD85BE8505C0EB85FC8532
:1023300005C0AB81BC818C9302C0F70180830F5F25
:102340001F4F04301105F1F6F4E04F0E511C0FEF52
:10235000601A700A14E0E10EF11CC1CF80E090E039
:10236000E0E0F0E08A159B05CCF4D1011397AC9125
:102370000196A9110FC0D1011297AC91A8110AC002
:10238000D1011197AC91A71305C0D1012C9126134F
:1023900001C0FC01B4E02B0E311CE4CF0FB6F89461
:1023A000DEBE0FBECDBE02C0E0E0F0E0EF2B19F0C4
:1023B00081E08093240310921903809113028823F3
:1023C00009F486C080E351D920911B03019749F499
:1023D000211103C081E08093170281E080931B03E9
:1023E00007C0222319F081E08093170210921B038B
:1023F00081E33BD920911A03019749F4211103C0CD
:1024000081E08093170281E080931A0307C02223A2
:1024100019F081E08093170210921A038EE225D9F9
:1024200020911602892B49F4211103C081E0809389
:10243000170281E08093160207C0222319F081E081
:1024400080931702109216028FE20FD92091150285
:10245000892B49F4211103C081E08093170281E0A8
:102460008093150207C0222319F081E080931702A0
:10247000109215028CE2F9D820911402892B49F4AC
:10248000211103C081E08093170281E08093140240
:1024900007C0222319F081E08093170210921402E2
:1024A0008DE2E3D820911202892B49F4211103C057
:1024B00081E08093170281E08093120207C02223FB
:1024C00019F081E080931702109212021092130209
:1024D00090902303911029C181E080931D05D0DBEA
:1024E00000910D0510910E0520910F0530911005FA
:1024F000AB01BC01401B510B620B730B80911905A2
:1025000090911A05A0E0B0E084179507A607B707D9
:1025100008F007C110E080911705181758F4E091F2
:102520001305F0911405E10FF11D62E0808134DBA9
:102530001F5FF1CF812C80911805881608F05EC0CE
:10254000E82CF12CE0911505F0911605EE0DFF1D1C
:1025500061E0808121DBE0911505F0911605EE0D1B
:10256000FF1D60E08081A9D881E090E0A0E0B0E0AC
:10257000082C04C0880F991FAA1FBB1F0A94D2F70A
:102580005C016C01C094D094712C80911705781671
:1025900000F5072D10E0E0911305F0911405E00F10
:1025A000F11F808162D80C5F1F4F000F111FF801CF
:1025B000EF54FB4F892B29F4808191818A299B2933
:1025C00004C0808191818C219D21918380837394AB
:1025D000DCCFE0911505F0911605EE0DFF1D61E0D1
:1025E00080816BD88091150590911605FC01EE0D48
:1025F000FF1D60E08081D0DA83949DCFEDECF4E0A4
:1026000083819481892B39F41082CC24CA94DC2CE8
:10261000D282C1821582369605E0E930F00781F753
:10262000F12C96E0E92E80911705F81608F054C0B9
:10263000D12C0F2D10E0000F111F07541B4F2091BC
:102640001805D21608F046C0D8016D917C910D2C6A
:1026500002C0769567950A94E2F761707727F29E3B
:10266000900111242D0D311DE0911105F0911205FD
:10267000E20FF31FA081E1EBF4E080E0458D568D81
:102680004217530711F461701BC08F5F36968A3072
:10269000A9F7672BE9F0EDECF4E080E090E04081F1
:1026A000411111C0E89EA001E99E500D1124FA01CC
:1026B000EF54FB4FA48F368F258F10A2178E61E049
:1026C0000E945E0A05C0019636968A30910539F758
:1026D000D394B5CFF394A7CF80E090E010E0FC0155
:1026E000EF54FB4F21A1211111E006968C33910587
:1026F000B1F7C6DA60930D0570930E0580930F0550
:1027000090931005112369F08091D204882349F039
:102710008091D0049091D104019719F49090CD0448
:1027200002C010921D05909223036091230366233B
:1027300091F0E091C203F091C3030190F081E02D8C
:1027400082EC93E0199564E173E082EC93E00E94DF
:10275000C60410922303E0911A02F0911B023197F4
:10276000E930F10508F0BBC08827E758FF4F8F4FCD
:1027700002C280911602882341F0809115028823BD
:1027800021F080911402811109C082E090E09093C1
:102790001B0280931A0281E0809317028091240328
:1027A000882309F49AC083E090E090931B02809301
:1027B0001A0281E080931702109224038EC0809148
:1027C0001602882309F489C080911502882309F430
:1027D00084C080911402882309F47FC081E090E0D6
:1027E00090931B0280931A02109224038093170285
:1027F00074C080911802909119028531910529F5D4
:1028000084E190E0909319028093180288EE93E09F
:10281000A0E0B0E08093750490937604A0937704D1
:10282000B093780481E090E090931D0380931C03A3
:1028300084EF91E0A0E0B0E080937F049093800467
:10284000A0938104B093820448C0892B51F584E0A1
:1028500090E090931B0280931A0281E0809317020C
:1028600085E190E0909319028093180210927F0402
:1028700010928004109281041092820461E086E13B
:102880000E945D0B61E088E10E945D0B61E087E1E1
:102890000E945D0B60E086E10E945D0B0E94090AC8
:1028A0001CC0809124038823C1F081E090E09093C4
:1028B0001B0280931A028093170210922403109235
:1028C000750410927604109277041092780485E1D2
:1028D00090E090931902809318020E9458090E9478
:1028E000BD023DCC109228031092270348EE53E01E
:1028F00060E070E04093290350932A0360932B0318
:1029000070932C0388E392E0909326038093250331
:102910002DEC30E030933203209331032CEC30E087
:10292000309334032093330328EC30E030933603A4
:102930002093350329EC30E030933803209337039C
:102940002AEC30E030933A03209339032EEC30E048
:1029500030933C0320933B0310923E0310923F03BD
:1029600010924003109241031092C5031092C403C9
:102970004093C6035093C7036093C8037093C90381
:102980009093C3038093C20385EC90E09093CF03B0
:102990008093CE0384EC90E09093D1038093D00396
:1029A00080EC90E09093D3038093D20381EC90E08D
:1029B0009093D5038093D40382EC90E09093D70357
:1029C0008093D60386EC90E09093D9038093D8034C
:1029D0001092DB031092DC031092DD031092DE03F1
:1029E0001092B3041092B7041092B6041092B80477
:1029F00080E692E09093B2048093B10480E090E08E
:102A0000FC01EF54FB4F148E10A2178E11A20696F4
:102A10008C339105A9F780E292E09093140580939E
:102A200013058CE192E0909316058093150584E0E0
:102A3000809317058093180584E292E09093120525
:102A4000809311058AE090E090931A058093190510
:102A500084EF91E090931C0580931B0510921F0555
:102A600010921E0510920D0510920E0510920F0582
:102A70001092100510921D0510929C0410929B0458
:102A800084E592E090939A048093990488E080937F
:102A90009D048FEF80939E0489E080939F048AE0D9
:102AA0008093A0048BE08093A1048CE08093A20427
:102AB0008DE08093A3041092A4041092A5041092B8
:102AC000A6041092A7041092A80441E060E189E9ED
:102AD00094E00E948C0B8AE492E090938A048093A5
:102AE000890485E38093970485E080939804EFE55B
:102AF000F4E080E293E09183808312821382148257
:102B0000158216821782108611863A9624E0E738DD
:102B1000F20789F78FE193E090938804809387040C
:102B20000895F999FECF92BD81BDF89A992780B595
:102B30000895A1E21A2EAA1BBB1BFD010DC0AA1FFE
:102B4000BB1FEE1FFF1FA217B307E407F50720F016
:102B5000A21BB30BE40BF50B661F771F881F991F91
:102B60001A9469F760957095809590959B01AC01DA
:102B7000BD01CF010895EE0FFF1F881F8BBF079087
:102B8000F691E02D19942A153B054C055D056E055F
:0C2B90007F05800791070895F894FFCF9F
:102B9C00A101A101A101A101A101A101A101A10119
:102BAC007F01010101010101150002002527292BDC
:102BBC002426282A313233413435364237383943CA
:102BCC002A302344000000005602A201E6019C02B8
:102BDC001702F50109020000000030078B06F40211
:102BEC00000000003F06A201F102F002000000000C
:102BFC006A03240321035374616E20616C61726D4E
:102C0C00753A004E696520776C61637A6F6E790056
:102C1C004E696520776C61637A6F6E792C20626CDB
:102C2C00616400576C61637A616E69652C20637A0C
:102C3C0061733A20004D6F6E69746F726F77616EBD
:102C4C006965004D6F6E69746F726F77616E69653F
:102C5C002C20425000416C61726D2121210057796A
:102C6C006C61637A616E69652C20637A61733A20BA
:102C7C00004F4B313A005A20004F20004F4B323A54
:102C8C00004F4B333A004352313A00312000302090
:102C9C00004352323A00445A3A0041542B434D47B8
:082CAC00463D31000D0A000055
:00000001FF
