:100000005FC100000DC40000E0C30000B3C30000E6
:1000100086C3000059C300002CC30000FFC20000CB
:10002000D2C200007EC100007CC100007AC1000085
:1000300078C1000076C1000074C1000072C10000E8
:1000400070C100006EC100006CC100006AC10000F8
:1000500068C1000066C1000064C100000C94FF0C80
:1000600060C10000E0C40000B5C400005AC1000037
:1000700058C1000056C1000054C1000052C1000028
:1000800050C100004EC100004CC100004AC1000038
:1000900078C400004DC4000044C1000042C100000B
:1000A00040C100003EC100003CC100003AC1000058
:1000B00038C1000036C1000034C1000032C1000068
:1000C00030C100002EC100002CC100002AC1000078
:1000D00028C1000026C1000024C1000022C1000088
:1000E00020C1000057055A0549054D0553059105E6
:1000F0005E05620568056C05700576057A057E0566
:100100009105840588058C055741524E494E473A62
:1001100020436F6D6D756E69636174696F6E2066E3
:1001200061696C7572652C20697320746865204D57
:100130004652433532322070726F7065726C79208E
:10014000636F6E6E65637465643F00203D202875A3
:100150006E6B6E6F776E2900203D2076322E300058
:10016000203D2076312E3000203D2076302E30008C
:10017000203D2028636C6F6E6529004669726D779B
:100180006172652056657273696F6E3A203078002F
:100190003A2000526561646572200000002100244D
:1001A0000027002A002D0030003300010100000468
:1001B0000107010A0100002200250028002B002E63
:1001C000003100340002010000050108010B0100AC
:1001D0000020002300260029002C002F0032000000
:1001E00001000003010601090105050505070508D1
:1001F000080808020202020A0A08080404040401AA
:1002000001010101010101030303030303030304CB
:100210000707070C0C0C0C0C0C0C0C02020202065B
:10022000060606060606060B0B0B0B0B0B0B0B014B
:1002300002102020080810204010204080020102F7
:1002400001080402010102040810204080804020BF
:1002500010080402018004020180402010080402FA
:100260000108040201010204081020408001020478
:10027000081020408000000A0B02090C0D0E080730
:100280000304010000000000000000000000000066
:10029000000000000000000000000000000000005E
:1002A000001211100000000000000000000000001B
:1002B000000000000000000000000000A310E31197
:1002C00011241FBECFEFD1E2DEBFCDBF00E00CBFD7
:1002D00024E0A2EAB2E001C01D92A034B207E1F727
:1002E00012E0A0E0B2E0E2EBF8E200E00BBF02C0F7
:1002F00007900D92A23AB107D9F711E0CFE5D1E00E
:1003000000E006C021970109802FFE010E94121211
:10031000CE35D10780E00807A9F70E94490D0C945B
:1003200048146ECE0895CF92DF92EF92FF920F9312
:100330001F93CF93DF936C017A018B01C0E0D0E073
:10034000CE15DF0589F0D8016D918D01D601ED91B3
:10035000FC910190F081E02DC6011995892B11F4D3
:100360007E0102C02196ECCFC701DF91CF911F9192
:100370000F91FF90EF90DF90CF900895FC01A0893E
:10038000B1898C91A689B78982FD0FC09C91818D1E
:100390008F5F8F73228D821749F0218DDF01A20FAD
:1003A000B11D5D969C93818F08958C910895FC01F9
:1003B000538D448D252F30E0842F90E0821B930BCA
:1003C000541710F0CF96089501970895FC01918D70
:1003D000828D981761F0828DDF01A80FB11D5D96A7
:1003E0008C91928D9F5F9F73928F90E008958FEF15
:1003F0009FEF0895FC01918D828D981731F0828DC9
:10040000E80FF11D858D90E008958FEF9FEF08951F
:10041000FC01918D228D892F90E0805C9F4F821B83
:1004200091098F73992708958BEA92E0F1DF21E01B
:10043000892B09F420E0822F089588E493E0E8DF17
:1004400021E0892B09F420E0822F0895FC01848D9E
:10045000DF01A80FB11DA35ABF4F2C91848D90E0EE
:1004600001968F739927848FA689B7892C93A089C9
:10047000B1898C9180648C93938D848D981306C080
:100480000288F389E02D80818F7D80830895EF922B
:10049000FF920F931F93CF93DF93EC0181E0888F3E
:1004A0009B8D8C8D981305C0E889F989808185FD25
:1004B00023C0F62E0B8D10E00F5F1F4F0F73112717
:1004C000E02E8C8DE8120BC00FB607FCFACFE8893E
:1004D000F989808185FFF5CFCE01B8DFF2CF8B8D12
:1004E000FE01E80FF11DE35AFF4FF0820B8FEA89FE
:1004F000FB898081806207C0EE89FF896083E8897B
:10050000F98980818064808381E090E0DF91CF91E0
:100510001F910F91FF90EF900895CF93DF93EC011F
:10052000888D8823C1F0EA89FB89808185FD05C01B
:10053000A889B9898C9186FD0EC00FB607FCF5CF4E
:10054000808185FFF2CFA889B9898C9185FFEDCF95
:10055000CE017CDFE8CFDF91CF91089580E090E07D
:10056000892B19F06ADF811120C080E090E0892B8F
:1005700019F05ADF81111CC080E090E0892B41F016
:1005800080E090E0892B21F00E940000811113C0CF
:1005900080E090E0892BA1F080E090E0892B81F051
:1005A0000E94000081110AC008950E940000DDCF62
:1005B0000E940000E1CF0E940000EACF0C940000EE
:1005C00008950E9434141F920F920FB60F921124B7
:1005D0000BB60F922F933F934F935F936F937F933D
:1005E0008F939F93AF93BF93EF93FF93E0910E028E
:1005F000F0910F021995FF91EF91BF91AF919F91EB
:100600008F917F916F915F914F913F912F910F90BB
:100610000BBE0F900FBE0F901F9018951F920F9258
:100620000FB60F9211240BB60F922F933F934F9357
:100630005F936F937F938F939F93AF93BF93EF934A
:10064000FF93E0910C02F0910D021995FF91EF914B
:10065000BF91AF919F918F917F916F915F914F91DA
:100660003F912F910F900BBE0F900FBE0F901F90D8
:1006700018951F920F920FB60F9211240BB60F927E
:100680002F933F934F935F936F937F938F939F939A
:10069000AF93BF93EF93FF93E0910202F0910302B7
:1006A0001995FF91EF91BF91AF919F918F917F919C
:1006B0006F915F914F913F912F910F900BBE0F90D3
:1006C0000FBE0F901F9018951F920F920FB60F92AA
:1006D00011240BB60F922F933F934F935F936F9319
:1006E0007F938F939F93AF93BF93EF93FF93E0918B
:1006F0000002F09101021995FF91EF91BF91AF9126
:100700009F918F917F916F915F914F913F912F9129
:100710000F900BBE0F900FBE0F901F9018951F9259
:100720000F920FB60F9211240BB60F922F933F9397
:100730004F935F936F937F938F939F93AF93BF93E9
:10074000EF93FF93E0910A02F0910B021995FF914C
:10075000EF91BF91AF919F918F917F916F915F9139
:100760004F913F912F910F900BBE0F900FBE0F90A6
:100770001F9018951F920F920FB60F9211240BB66F
:100780000F922F933F934F935F936F937F938F932A
:100790009F93AF93BF93EF93FF93E0910802F09183
:1007A00009021995FF91EF91BF91AF919F918F91A0
:1007B0007F916F915F914F913F912F910F900BBE61
:1007C0000F900FBE0F901F9018951F920F920FB6AB
:1007D0000F9211240BB60F922F933F934F935F9379
:1007E0006F937F938F939F93AF93BF93EF93FF93F9
:1007F000E0910602F09107021995FF91EF91BF91E8
:10080000AF919F918F917F916F915F914F913F91A8
:100810002F910F900BBE0F900FBE0F901F90189549
:100820001F920F920FB60F9211240BB60F922F93B7
:100830003F934F935F936F937F938F939F93AF9368
:10084000BF93EF93FF93E0910402F0910502199595
:10085000FF91EF91BF91AF919F918F917F916F9198
:100860005F914F913F912F910F900BBE0F900FBE54
:100870000F901F9018956115710579F0FB0101909B
:100880000020E9F73197AF01461B570BDC01ED91D2
:10089000FC910280F381E02D199480E090E00895AE
:1008A0004F925F926F927F92EF92FF920F931F93FE
:1008B000CF93DF93CDB7DEB7A1970FB6F894DEBF25
:1008C0000FBECDBF7C01FA01CB0119A2223008F482
:1008D0002AE08E010F5D1F4F422E512C612C712C8E
:1008E000BF01A30192010E94F011F901CA01015058
:1008F00011096A3014F4605D01C0695CD8016C9321
:10090000232B242B252B61F7B801C701B4DFA19657
:100910000FB6F894DEBF0FBECDBFDF91CF911F9110
:100920000F91FF90EF907F906F905F904F900895A0
:100930001F920F920FB60F9211240BB60F922F93A6
:100940003F934F935F936F937F938F939F93AF9357
:10095000BF93EF93FF938BEA92E078DDFF91EF91E5
:10096000BF91AF919F918F917F916F915F914F91C7
:100970003F912F910F900BBE0F900FBE0F901F90C5
:1009800018951F920F920FB60F9211240BB60F926B
:100990002F933F934F935F936F937F938F939F9387
:1009A000AF93BF93EF93FF938BEA92E0E7DCFF9165
:1009B000EF91BF91AF919F918F917F916F915F91D7
:1009C0004F913F912F910F900BBE0F900FBE0F9044
:1009D0001F9018951F920F920FB60F9211240BB60D
:1009E0000F922F933F934F935F936F937F938F93C8
:1009F0009F93AF93BF93EF93FF9388E493E026DD3B
:100A0000FF91EF91BF91AF919F918F917F916F91E6
:100A10005F914F913F912F910F900BBE0F900FBEA2
:100A20000F901F9018951F920F920FB60F921124DE
:100A30000BB60F922F933F934F935F936F937F93D8
:100A40008F939F93AF93BF93EF93FF9388E493E0CB
:100A500095DCFF91EF91BF91AF919F918F917F9125
:100A60006F915F914F913F912F910F900BBE0F901F
:100A70000FBE0F901F90189590E0FC013197E23166
:100A8000F10508F04EC08827EE58FF4F8F4F0C94A9
:100A90001212809180008F7703C0809180008F7D3B
:100AA00080938000089580918000877FF9CF84B57E
:100AB0008F7702C084B58F7D84BD08958091B0008A
:100AC0008F7703C08091B0008F7D8093B000089530
:100AD000809190008F7707C0809190008F7D03C038
:100AE00080919000877F8093900008958091A0006E
:100AF0008F7707C08091A0008F7D03C08091A000F8
:100B0000877F8093A0000895809120018F7707C090
:100B1000809120018F7D03C080912001877F809389
:100B200020010895FC01A089B18982E08C93A485FD
:100B3000B5851C92A685B78580E18C93108EA4891B
:100B4000B58986E08C93A289B3898C9180618C935E
:100B5000A289B3898C9188608C93A289B3898C9186
:100B600080688C930288F389E02D80818F7D80835B
:100B70000895BC018BE194E07ECE843008F083E0E0
:100B800090912E04891710F08FEF890FE82FF0E075
:100B9000E55EFB4F648960688BE194E09FC3CF9270
:100BA000DF92EF92FF92CF93DF936C01990FEE08E3
:100BB000FF08F7FE20C0E0911B04F0911C04019097
:100BC000F081E02D6DE28BE194E01995EC01442772
:100BD0005527BA014C195D096E097F092AE08BE19E
:100BE00094E05EDE8C0F9D1FDF91CF91FF90EF9020
:100BF000DF90CF9008952AE0B701A6018BE194E041
:100C0000DF91CF91FF90EF90DF90CF9049CE0F937F
:100C10001F93CF93DF938C01C0E0D0E0F801EC0F7D
:100C2000FD1F6491662371F0E0914803F091490340
:100C30000190F081E02D88E493E01995892B11F063
:100C40002196ECCFCE01DF91CF911F910F910895A6
:100C5000CF93DF93DCDFEC016CE472E088E493E097
:100C60000ADE8C0F9D1FDF91CF910895CF93DF9304
:100C7000282F30E0F901EB58FD4F8491F901E15D37
:100C8000FD4FD491F901E751FE4FC491CC2389F077
:100C90008111F2DEEC2FF0E0EE0FFF1FE153FE4F6B
:100CA000A591B491EC91ED2381E090E021F480E0F6
:100CB00002C080E090E0DF91CF9108951F93CF9321
:100CC000DF93282F30E0F901EB58FD4F8491F901B3
:100CD000E15DFD4FD491F901E751FE4FC491CC2362
:100CE000C1F0162F8111C8DEEC2FF0E0EE0FFF1FD0
:100CF000EB54FE4FA591B4918FB7F894111105C034
:100D00009C91ED2FE095E92302C0EC91ED2BEC9343
:100D10008FBFDF91CF911F910895CF92DF92EF9215
:100D2000FF920F931F93CF93DF931F921F92CDB724
:100D3000DEB78C01F62E83E590E049835A83D8D242
:100D400060E0F8018685BADF82E1CBD24981E42EEA
:100D5000C42E5A81D52E8C2D8E198F1528F4F601AC
:100D600081916F01BED2F7CF61E0F8018685A6DFE1
:100D70000F900F90DF91CF911F910F91FF90EF9007
:100D8000DF90CF90ADC24F925F926F927F928F9221
:100D90009F92AF92BF92CF92DF92EF92FF920F930A
:100DA0001F93CF93DF931F921F92CDB7DEB74C01F5
:100DB0002B01D42E3901E114F10419F0F70140811F
:100DC00001C040E0B42EF0E1CF9EB00C112440E011
:100DD00062E0C401A9D24FE768E0C401A5D240E8AF
:100DE00064E1C401A1D2A2016D2DC40196DF4B2D97
:100DF0006AE1C40199D24CE062E0C40195D26AE193
:100E0000C40179D2482F40686AE1C4018DD280EDD7
:100E1000482E87E0582E68E0C4016DD2982F907359
:100E200041F480FD04C081E0481A5108A1F783E035
:100E300094C06CE0C4015FD2D82E837109F08CC0DD
:100E40006114710409F44FC00115110509F44BC078
:100E500064E1C40150D2B82EF80180818B1508F4EA
:100E600075C0B082BB20A9F183E590E041D260E07B
:100E7000F401868523DF82E934D2CC2099F08FEF0C
:100E800090E02C0101C0440CCA94EAF782E929D20F
:100E900084214094F3019081492284298083CC24C9
:100EA000C39401C0C12CBA944C2C512C460C571C35
:100EB000CB1430F482E915D2F2018083C394F4CFCD
:100EC00080E00FD2F201808361E0F4018685F6DED6
:100ED00007D268E1C4010FD28770E114F10421F058
:100EE000F701808301C080E0D3FC32C0611471043B
:100EF00089F10115110571F1AA2061F1F801408114
:100F0000413019F4843019F41FC0423010F487E0E6
:100F100024C08111FCCF42509E012F5F3F4FB3018F
:100F2000C40185D2811119C0F8018081680E711C3D
:100F3000F3013297908189819813E9CF319690819E
:100F40008A819813E4CF06C08FEF07C084E005C004
:100F500082E003C080E001C081E00F900F90DF913C
:100F6000CF911F910F91FF90EF90DF90CF90BF90A6
:100F7000AF909F908F907F906F905F904F9008956B
:100F8000CF93DF9390E0FC01E15DFD4F2491FC01E4
:100F9000E751FE4F8491882361F190E0880F991FFB
:100FA000FC01E556FE4FC591D491FC01EB54FE4F78
:100FB000A591B491611109C09FB7F89488812095DB
:100FC00082238883EC912E230BC0623061F49FB79B
:100FD000F8943881822F809583238883EC912E2B7F
:100FE0002C939FBF06C08FB7F894E8812E2B2883DF
:100FF0008FBFDF91CF910895EF92FF920F931F93D0
:10100000CF93DF93EC01423018F08F8588608F8793
:101010004B8B1C8A80E48D8B6E8B70E0605C7F4F05
:101020006F8B61E08C81ACDF8D818F3F11F061E0CF
:10103000A7DF61E08E81A4DF7E0187E0E80EF11C6E
:1010400000E010E08F8584FD03C084E090E002C0E2
:1010500088E090E00817190744F461E0F7018191F6
:101060007F018EDF0F5F1F4FEDCF8BE39DE0019778
:10107000F1F760E08C8122DE60E08E811FDE8D81E1
:101080008F3F11F060E01ADE6F8564FD19C063E0E8
:10109000CE01A7D00BE416E4C8010197F1F763E095
:1010A000CE019FD0C8010197F1F763E0CE0199D03E
:1010B00083E592E00197F1F762E0CE0192D013C090
:1010C0006062CE010BD18BE496E40197F1F76F8556
:1010D0006062CE0103D183E592E00197F1F76F855D
:1010E0006062CE01FBD06F856062CE01F7D084E0F4
:1010F000888B6CE0CE01F2D061E0CE01EFD08BE3C3
:101100009FE10197F1F782E0898B66E0CE01DF91E4
:10111000CF911F910F91FF90EF90E0C08F929F921F
:10112000AF92BF92CF92DF92EF92FF926B017C0160
:1011300041D44B015C01C114D104E104F104E9F094
:1011400039D4DC01CB0188199909AA09BB09883E69
:101150009340A105B10578F321E0C21AD108E10856
:10116000F10888EE880E83E0981EA11CB11CC11402
:10117000D104E104F10421F7DECFFF90EF90DF907E
:10118000CF90BF90AF909F908F900895089580E08A
:1011900090E00895DC01ED91FD91BD010190F08199
:1011A000E02D40E0199591E0811190E0892F08959C
:1011B00081E080931302089508950895CF93DF93FB
:1011C000EC0160E08E817ADD61E08E8177DD60E0A8
:1011D0008E8174DD8BE891E00197F1F7DF91CF917B
:1011E0000895CF92DF92EF92FF920F931F93CF93C8
:1011F000DF937C016C0187E0C80ED11CC0E0D0E019
:10120000062F10E0B8010C2E02C0759567950A9460
:10121000E2F76170F60181916F0150DD2196C430D3
:10122000D10581F7C701DF91CF911F910F91FF90F9
:10123000EF90DF90CF90C2CFCF92DF92EF92FF92EC
:101240000F931F93CF93DF93EC01F62E642F8C81C5
:1012500035DD8D818F3F11F060E030DD8F850F2D02
:1012600010E084FF23C06E0187E0C80ED11CE12C82
:10127000F12CB8010E2C02C0759567950A94E2F71F
:101280006170F60181916F0119DDFFEFEF1AFF0A1E
:1012900088E0E816F10469F7CE01DF91CF911F9144
:1012A0000F91FF90EF90DF90CF9088CFB80184E04E
:1012B000759567958A95E1F7CE0193DF6F2DCE0185
:1012C000DF91CF911F910F91FF90EF90DF90CF9022
:1012D00088CF41E0B1DF81E090E0089540E0ACCFFD
:1012E00008958EBD00000DB407FEFDCF8EB50895A4
:1012F0008CBD9DBD08951F93CF93DF93EC01162FF6
:1013000083E590E0F5DF60E08E85D8DC812F806892
:10131000E8DF80E0E6DF182F61E08E85CFDC812FEB
:10132000DF91CF911F910895EF92FF921F93CF937A
:10133000DF931F92CDB7DEB77C01162F83E590E0D7
:101340004983D6DF60E0F7018685B8DC812FC9DFED
:101350004981842FC6DF61E0F70186850F90DF9118
:10136000CF911F91FF90EF90A9CC8F929F92AF9257
:10137000CF92EF92FF920F931F93CF93DF9300D002
:101380001F921F92CDB7DEB74C0182E08D8340E003
:1013900064E2C401C9DF40E066E2C401C5DF46E2A1
:1013A00068E4C401C1DF86E28C838D81823028F13C
:1013B0006CE1C401A0DF482F4F776CE1C401B4DFBA
:1013C00087E08B83A12CC12CCE0103967C018E017A
:1013D0000B5F1F4F9E012F5F3F4F41E0BE016C5FCF
:1013E0007F4FC401D0DC81110BC08D81823039F474
:1013F00081E09B81911104C008C084E001C081E0BC
:1014000091E0823019F090E001C091E0892F0F90B7
:101410000F900F900F900F90DF91CF911F910F9130
:10142000FF90EF90CF90AF909F908F900895CF92C4
:10143000DF92EF92FF920F931F93CF93DF93EC0114
:101440006B01142F790140E062E06EDF44E06AE056
:10145000CE016ADF40E864E1CE0166DFA601612FBC
:10146000CE015BDC43E062E0CE015EDF08E813E121
:101470006AE0CE0140DF82FF10C040E062E0CE01B2
:1014800053DF64E4CE0137DFF701808362E4CE01ED
:1014900032DFF701818380E004C00150110941F778
:1014A00083E0DF91CF911F910F91FF90EF90DF903C
:1014B000CF9008952F923F924F925F926F927F92BA
:1014C0008F929F92AF92BF92CF92DF92EF92FF9254
:1014D0000F931F93CF93DF93CDB7DEB72D970FB642
:1014E000F894DEBF0FBECDBF413508F00AC1342EDF
:1014F0003B014C016CE1FFDE482F4F776CE1C401EA
:1015000013DFBB24B39422E0B21691F033E0B3169C
:10151000E1F041E0B412F9C083E989833320D1F0CE
:1015200081E0F3019081953008F480E0D12C17C060
:1015300085E98983332081F081E0F301908198303F
:1015400008F480E053E0D52E0AC087E9898346E09D
:10155000D42E04C0D12C02C033E0D32E80E0532D12
:10156000F8EFDF9E500D112457FD50E0882321F045
:1015700098E89B8343E001C042E021E0952F9770FB
:1015800009F420E0952F959595959595290F21F4CF
:10159000882311F1585F20C0811102C094E001C07E
:1015A00093E0291708F4922F20E030E06D2D70E0D1
:1015B000E42FE20FA1E0B0E0AC0FBD1FAE0FB11DF4
:1015C000F901E60FF71FE60DF71DE181EC932F5FA0
:1015D0003F4F291768F3DCCF23E0222E5032F4F07E
:1015E00020E72A839C818B8189279D8189279E8181
:1015F00089278F839E01285F3F4F47E0BE016F5FC1
:101600007F4FC4015D8713DF5D858111C9C01B86D3
:101610002A86CE0107962C0179E01EC0952F97707F
:101620009B87252F25952595259582E0820F392FBB
:10163000E0E18E9F300D11243A8371E0911101C0D9
:1016400070E0780F44244394512C4C0E5D1E480EDC
:10165000511C87E0821B8A87CB844C2D4295407FAA
:101660004C0D6AE1C4015D877C875EDEA12C9E0182
:10167000255F3F4F79018E01065F1F4F92017C85E8
:10168000472FBE016F5F7F4FC4017DDB5D858230D8
:1016900091F56CE1C4012FDE5D8585FD34C08F714D
:1016A00009F480E2282F30E0452F550F550B4217E3
:1016B00053075CF5582FC901019787709927259525
:1016C0002595259531E0320F21E0009709F420E0BF
:1016D000230FE1E0F0E0EC0FFD1FE20FF11D21E030
:1016E00030E002C0220F331F8A95E2F7C9019081D2
:1016F000892B808373CF811153C0503244F450E260
:101700006FCF86E04DC082E04BC085E049C08B8141
:10171000883809F042C033E023E080E090E06D2D8E
:1017200070E0FC01E60FF71FE60DF71D432F480F91
:10173000A1E0B0E0AC0FBD1FA40FB11D4C914183DF
:101740000196821770F38A85833019F58B85811194
:1017500020C09E012D5F3F4F41E0B201C40167DE12
:1017600081111EC09B81F2018181981314C09C815C
:101770008281981310C0808182FF02C0B394C3CECF
:10178000F30183878B2D880FB80EB394B08280E06D
:1017900007C081E005C087E003C032E024E0BDCF90
:1017A0002D960FB6F894DEBF0FBECDBFDF91CF915F
:1017B0001F910F91FF90EF90DF90CF90BF90AF906F
:1017C0009F908F907F906F905F904F903F902F9061
:1017D0000895CF93DF93CDB7DEB760970FB6F89437
:1017E000DEBF0FBECDBF81E08093110280E392E0A7
:1017F0009A8389838CE0EDE0F4E0DE01139601909A
:101800000D928A95E1F7EBE0F4E086858F87878576
:10181000888B46E262E1CE01019686DD4CE062E013
:10182000CE01019681DD47E86AE1CE0101967CDDBB
:1018300060960FB6F894DEBF0FBECDBFDF91CF919B
:101840000895AF92CF92EF92FF920F931F93CF9391
:10185000DF93CDB7DEB760970FB6F894DEBF0FBE4B
:10186000CDBF80911102882329F081E08093A202EC
:101870001092110280E392E09A8389838CE0EDE07C
:10188000F4E0DE01139601900D928A95E1F78091C4
:1018900019048F8780911A04888B4FE768E0CE0186
:1018A000019642DD80E589831A829E012D5F3F4FBC
:1018B00042E0BE016F5F7F4F8BE094E0B8DD8111A5
:1018C0000FC0A12CC12CE12CF12C00E010E020E095
:1018D00030E044E0BE016F5F7F4F8BE094E053DA6D
:1018E00060960FB6F894DEBF0FBECDBFDF91CF91EB
:1018F0001F910F91FF90EF90CF90AF90089580913E
:101900001202882309F448C061E08BE194E0E6DC30
:101910008BE39FE10197F1F780E02FD98DE592E00D
:1019200028D981E02AD98AE692E023D982E025D914
:1019300087E792E01ED98CE792E01BD98FE792E00F
:1019400018D98CE792E015D984E892E012D98CE797
:1019500092E00FD989E892E00CD98CE792E009D99E
:1019600083E00BD98EE892E004D98091A402882309
:1019700019F085E992E002C088E992E0FAD88BE993
:1019800092E0F7D88091A302882319F085E992E0CC
:1019900002C088E992E0EDD810921202089561E049
:1019A00086E38CD962E370E080E090E0B7DB60E032
:1019B00086E384C93FB7F894809138049091390444
:1019C000A0913A04B0913B0426B5A89B05C02F3FD7
:1019D00019F00196A11DB11D3FBFBA2FA92F982F55
:1019E0008827820F911DA11DB11DBC01CD0142E0D0
:1019F000660F771F881F991F4A95D1F708951F9288
:101A00000F920FB60F9211242F933F938F939F93B2
:101A1000AF93BF938091330490913404A091350427
:101A2000B09136043091370423E0230F2D3720F492
:101A30000196A11DB11D05C026E8230F0296A11D28
:101A4000B11D209337048093330490933404A09302
:101A50003504B09336048091380490913904A091F4
:101A60003A04B0913B040196A11DB11D8093380446
:101A700090933904A0933A04B0933B04BF91AF9183
:101A80009F918F913F912F910F900FBE0F901F90BC
:101A90001895CF93DF93CDB7DEB760970FB6F89464
:101AA000DEBF0FBECDBF789484B5826084BD84B59F
:101AB000816084BD85B5826085BD85B5816085BD49
:101AC00080916E00816080936E0010928100809101
:101AD0008100826080938100809181008160809389
:101AE0008100809180008160809380008091B100AE
:101AF00084608093B1008091B00081608093B000D9
:101B0000809191008260809391008091910081602A
:101B100080939100809190008160809390008091EB
:101B2000A10082608093A1008091A10081608093D8
:101B3000A1008091A00081608093A000809121018C
:101B40008260809321018091210181608093210135
:101B50008091200181608093200180917A008460CF
:101B600080937A0080917A00826080937A008091DD
:101B70007A00816080937A0080917A0080688093F7
:101B80007A001092C10088E493E00E9492051FB78A
:101B9000F8948091A502811123C0EEE1F2E08491D6
:101BA000E4E6F2E09491E82FF0E0EE0FFF1FE55637
:101BB000FE4FA591B491EC91E92319F461E085E31E
:101BC0007DD861E085E3DCD98CB580618CBD8CB5B6
:101BD00080648CBD61E084E3D3D961E083E3D0D934
:101BE0008091A5028F5F8093A5021FBF61E0809165
:101BF0001904C6D961E08091190460D880911A0453
:101C00008F3F89F061E0BCD980911A042FD8892BCD
:101C100051F461E080911A0451D862E370E080E0F1
:101C200090E07CDA10C04FE062E08BE094E07CDB77
:101C300062E370E080E090E071DA62E08BE094E0D3
:101C40005ADB84FDFACF40E064E28BE094E06CDB89
:101C500040E066E28BE094E067DB46E268E48BE01C
:101C600094E062DB40E864E58BE094E05DDB49EA08
:101C700066E58BE094E058DB43E068E58BE094E0B8
:101C800053DB48EE6AE58BE094E04EDB40E46AE229
:101C90008BE094E049DB4DE362E28BE094E044DBCF
:101CA00068E28BE094E027DB982F9370933031F05B
:101CB000482F436068E28BE094E036DB83E991E0F3
:101CC0000E94070680E991E00E9407066EE68BE01D
:101CD00094E011DB182F8BE791E00E940706412F5B
:101CE00050E060E070E020E188E493E00E9450045E
:101CF000103969F028F4183881F480E791E00FC0BA
:101D0000113941F0123949F488E591E008C088E6BC
:101D100091E005C080E691E002C08BE491E00E9472
:101D2000280611501E3F20F088E091E00E9428060E
:101D300061E086E325D961E086E122D961E088E1AE
:101D40001FD961E087E11CD960E080E319D927DE63
:101D500089EE9BE09093EC038093EB0380ED97E09A
:101D6000A0E0B0E08093ED039093EE03A093EF0327
:101D7000B093F0032FB7F89480913304909134041A
:101D8000A0913504B09136042FBF8093F103909356
:101D9000F203A093F303B093F40388ED98E09093DB
:101DA000F6038093F50382E390E0A0E0B0E0809337
:101DB000F7039093F803A093F903B093FA032FB7B6
:101DC000F8948091330490913404A0913504B0913B
:101DD00036042FBF8093FB039093FC03A093FD0375
:101DE000B093FE0344E064E18BE194E005D961E047
:101DF00086E10E945E0661E088E10E945E0661E085
:101E000087E10E945E0662E082E0BAD881E29CE04F
:101E1000909301028093000280916A008C7F82601F
:101E200080936A00EC9A6BDD8BEA92E00E94920547
:101E300064EF71E080E090E071D962E472E08BEAD7
:101E400092E00E943B046CE472E08BEA92E00E9414
:101E50003B0480EA8093100240EA64E08BE094E067
:101E600063DA1092A2029BDD8FB7F89420903304BE
:101E70003090340440903504509036048FBF4BEEC0
:101E8000842E43E0942E712CD40116964D915D91D1
:101E90006D917C91199712960D911D912D913C9108
:101EA00015970B831C832D833E83012B022B032B61
:101EB000C1F192018101041B150B260B370B580150
:101EC00069014B815C816D817E819A01AB0160E08B
:101ED00070E0CB012B833C834D835E836F837887D7
:101EE00089879A879501A60160E070E080E090E024
:101EF000AB80BC80CD80DE80E12CF12C00E010E0D6
:101F000099D27CF0E0910904F0910A04872D19958B
:101F1000D401ED91FC911995F40126823782408617
:101F20005186FAE08F0E911C739403E07012ACCFCF
:101F30008091A202882309F4CEC08BE094E02AD9D4
:101F40002EDD1092110290910D0420910E045091FB
:101F5000A70230910F046091A802E09110048090D4
:101F6000A902F09111049090AA0280E0891781F0F3
:101F7000813039F050F0823031F0833039F49F2EC7
:101F800005C0632F03C08E2E01C0522F8F5FEECF8E
:101F90006093A8025093A7028092A9029092AA028D
:101FA00080E090E05F87688B13D2898381E090E0C6
:101FB0000FD28A83A980BA805F8568891FEFA11636
:101FC000B10609F47FC0CDB6DEB6C501880F991FF2
:101FD000880F991F2DB73EB7281B390B0FB6F89401
:101FE0003EBF0FBE2DBF2DB63EB634E0230E311CD2
:101FF0007101612C712C32E0432E512C6A147B0448
:10200000DCF500E010E09701215031093C832B837F
:10201000215031093C872B87215031093E872D877C
:10202000C801840D951D5F87688BD2D15F85688953
:102030000230110561F00330110569F0013011051E
:1020400019F0AD85BE8505C0EB85FC8505C0AB816B
:10205000BC818C9302C0F70180830F5F1F4F043057
:102060001105F1F6F4E04F0E511C0FEF601A700AE3
:1020700014E0E10EF11CC2CF80E090E0E0E0F0E07F
:102080008A159B05CCF4D1011397AC910196A51349
:102090000FC0D1011297AC91A6130AC0D1011197BC
:1020A000AC91A81105C0D1012C91291101C0FC01EE
:1020B000B4E02B0E311CE4CF0FB6F894DEBE0FBE99
:1020C000CDBE02C0E0E0F0E0EF2B19F0E1E0E093DC
:1020D000A6021092A20280911302882381F180E36C
:1020E0000E9436062091A402019749F4211103C0F1
:1020F000F1E0F093120201E00093A40207C0222352
:1021000019F011E0109312021092A40281E30E94D0
:1021100036062091A302019749F4211103C021E062
:102120002093120231E03093A30207C0222319F05A
:1021300041E0409312021092A30210921302DFDBDF
:102140000E94AE0291CE1092AE021092AD0248EE05
:1021500053E060E070E04093AF025093B0026093B0
:10216000B1027093B2028EE192E09093AC02809340
:10217000AB022DEC30E03093B8022093B7022CEC88
:1021800030E03093BA022093B90228EC30E030936B
:10219000BC022093BB0229EC30E03093BE022093B6
:1021A000BD022AEC30E03093C0022093BF022EEC37
:1021B00030E03093C2022093C1021092C402109208
:1021C000C5021092C6021092C70210924B031092E1
:1021D0004A0340934C0350934D0360934E03709316
:1021E0004F03909349038093480385EC90E09093CC
:1021F00055038093540384EC90E0909357038093AD
:10220000560380EC90E0909359038093580381EC3F
:1022100090E090935B0380935A0382EC90E090935C
:102220005D0380935C0386EC90E090935F03809362
:102230005E03109261031092620310926303109286
:10224000640310921E0410921D048AE392E090939E
:102250001C0480931B0488E080931F048FEF8093FD
:10226000200489E0809321048AE0809322048BE09B
:10227000809323048CE0809324048DE080932504D4
:102280001092260410922704109228041092290418
:1022900010922A0441E060E18BE194E00E94FC0787
:1022A00080E392E090930C0480930B0485E3809389
:1022B000190485E080931A048DED98E09093EC0367
:1022C0008093EB031092ED031092EE031092EF0354
:1022D0001092F0031092F1031092F2031092F303A4
:1022E0001092F4039093F6038093F5031092F70392
:1022F0001092F8031092F9031092FA031092FB0364
:102300001092FC031092FD031092FE0390930004C0
:102310008093FF03109201041092020410920304B0
:1023200010920404109205041092060410920704FF
:10233000109208048CED98E090930A0480930904AD
:102340001092E6031092E5031092E8031092E7035F
:102350001092EA031092E9036EE070E080E090E0F2
:102360009FD1009799F09093E6038093E5032DE0C9
:1023700030E03093E8032093E7032091E9033091A4
:10238000EA03232BB9F4FC01108214C08091E50309
:102390009091E603009709F0EBD01092E6031092BB
:1023A000E5031092EA031092E9031092E8031092F9
:1023B000E70308952DE030E03093EA032093E9032A
:1023C0006FE472E05EC28091E5039091E603D0C0B5
:1023D000F999FECF92BD81BDF89A992780B50895ED
:1023E000A1E21A2EAA1BBB1BFD010DC0AA1FBB1F19
:1023F000EE1FFF1FA217B307E407F50720F0A21B8B
:10240000B30BE40BF50B661F771F881F991F1A94F7
:1024100069F760957095809590959B01AC01BD0121
:10242000CF010895EE0FFF1F881F8BBF0790F69115
:10243000E02D19942A153B054C055D056E057F05B9
:10244000800791070895CF93DF938230910510F4B0
:1024500082E090E0E0913E04F0913F0420E030E023
:10246000C0E0D0E0309711F1408151814817590701
:10247000C0F04817590761F482819381209719F0C1
:102480009B838A832BC090933F0480933E0426C095
:102490002115310519F04217530718F49A01BE01AE
:1024A000DF01EF010280F381E02DDCCF2115310542
:1024B00009F1281B390B2430310590F412968D91C7
:1024C0009C9113976115710521F0FB019383828321
:1024D00004C090933F0480933E04FD01329644C0B3
:1024E000FD01E20FF31F81939193225031092D9347
:1024F0003C933AC020913C0430913D04232B41F49D
:10250000209116023091170230933D0420933C0431
:1025100020911402309115022115310541F42DB797
:102520003EB74091180250911902241B350BE091DF
:102530003C04F0913D04E217F307A0F42E1B3F0B7F
:102540002817390778F0AC014E5F5F4F2417350725
:1025500048F04E0F5F1F50933D0440933C0481931D
:10256000919302C0E0E0F0E0CF01DF91CF910895B8
:102570000F931F93CF93DF93009709F48CC0FC0156
:1025800032971382128200913E0410913F0401158C
:10259000110581F420813181820F931F20913C0429
:1025A00030913D042817390779F5F0933D04E09305
:1025B0003C0471C0D80140E050E0AE17BF0750F4B2
:1025C00012962D913C911397AD012115310509F11A
:1025D000D901F3CF9D01DA013383228360817181B8
:1025E000860F971F8217930769F4EC0128813981C0
:1025F000260F371F2E5F3F4F318320838A819B81B7
:1026000093838283452B29F4F0933F04E0933E04A7
:1026100042C01396FC93EE931297ED0149915991A4
:102620009E01240F351FE217F30771F48081918119
:10263000840F951F029611969C938E9382819381AD
:1026400013969C938E931297E0E0F0E0D8011296D7
:102650008D919C911397009719F0F8018C01F6CF9A
:102660008D919C9198012E5F3F4F820F931F209177
:102670003C0430913D042817390769F4309729F458
:1026800010923F0410923E0402C0138212821093F3
:102690003D0400933C04DF91CF911F910F91089569
:1026A0006F927F928F929F92AF92BF92CF92DF9262
:1026B000EF92FF920F931F93CF93DF93EC0100975C
:1026C00081F4CB01DF91CF911F910F91FF90EF909B
:1026D000DF90CF90BF90AF909F908F907F906F9042
:1026E000B2CEFC01E60FF71F9C0122503109E21720
:1026F000F30708F4A8C0D9010D911C911197061792
:102700001707A8F00530110508F49BC0C80104970D
:102710008617970708F495C002501109061B170B7E
:10272000019311936D937C93CF0122DF8AC05B01EB
:10273000A01AB10A4C01800E911EA0913E04B091E6
:102740003F0440E050E0E12CF12C109709F44AC01E
:10275000A815B905D1F56D907C901197630182E0C1
:10276000C80ED11CCA14DB0480F1A3014A195B090D
:102770006A0182E0C80ED11C1296BC901297139683
:10278000AC91B5E0CB16D10440F0B282A383518363
:102790004083D9016D937C930AC00E5F1F4FC30124
:1027A000800F911FF90191838083EB2DFA2FE114A3
:1027B000F10431F0D7011396FC93EE93129741C0C8
:1027C000F0933F04E0933E043CC08D919C9111979F
:1027D0004817590708F4AC017D0112960D90BC9181
:1027E000A02DB3CF80913C0490913D0488159905AC
:1027F000E1F446175707C8F480911402909115022E
:10280000009741F48DB79EB740911802509119027C
:10281000841B950BE817F907B0F4F0933D04E0939F
:102820003C04F901718360830CC0CB010CDE7C0198
:10283000009749F0A801BE011BD0CE0199DEC70167
:1028400004C0CE0102C080E090E0DF91CF911F91E3
:102850000F91FF90EF90DF90CF90BF90AF909F903F
:102860008F907F906F90089581E090E0F89410C071
:10287000FB01DC0102C001900D9241505040D8F79D
:102880000895FB01DC0101900D920020E1F708950D
:1028900011E0CFE5D1E000E005C0802FFE01C2DDF0
:1028A0002196011DC036D10780E00807B1F7F894E2
:0228B000FFCF58
:1028B200920192019201920192019201920192017E
:1028C2007F01010100004004800000000000470277
:1028D2009301D7018D020802E601FA01000000000F
:1028E2005A0AB509CA080000000069099301C7081D
:1028F200C60841542B434D47463D31000D0A00574F
:10290200796B7279746F206B6172746500537461B4
:102912006E20616C61726D753A004E696520776C4C
:1029220061637A6F6E79004F4B313A005A20004F43
:102932004B323A004F4B333A00445A573A00525501
:102942004348313A0031200030200052554348328A
:022952003A0049
:00000001FF
